:020000040800F2
:1000000000000220E9040008DD060008DF06000801
:10001000E1060008E3060008E5060008000000000D
:10002000000000000000000000000000E7060008DB
:10003000E906000800000000EB060008ED060008D5
:100040003905000839050008390500083905000898
:100050003905000839050008390500083905000888
:100060003905000839050008390500083905000878
:100070003905000839050008390500083905000868
:10008000390500083905000839050008000000009E
:10009000000000000000000000000000390500081A
:1000A0003905000839050008390500083905000838
:1000B0003905000839050008390500083905000828
:1000C0003905000839050008390500083905000818
:1000D000390500083905000839050008000000004E
:1000E000390500083905000839050008000000003E
:1000F00000000000000000000000000039050008BA
:10010000000000003905000839050008390500081D
:1001100000000000000000000000000000000000DF
:1001200039050008390500083905000839050008B7
:100130003905000800000000000000000000000079
:100140000000000000000000000000003905000869
:100150003905000839050008390500083905000887
:100160003905000839050008000000000000000003
:10017000000000000000000000000000000000007F
:100180000000000039050008000000000000000029
:080190003905000839050008DB
:1001980010B5054C237833B9044B13B10448AFF3B9
:1001A80000800123237010BD0C0000200000000017
:1001B8001015000808B5034B1BB103490348AFF3FA
:1001C800008008BD00000000100000201015000885
:1001D80053B94AB9002908BF00281CBF4FF0FF31A6
:1001E8004FF0FF3000F07AB9ADF1080C6DE904CE9C
:1001F80000F006F8DDF804E0DDE9022304B07047FA
:100208002DE9F0478C460D460446089E002B51D137
:100218008A4217466DD9B2FA82FEBEF1000F0BD0A2
:10022800CEF1200C01FA0EF520FA0CFC02FA0EF7BA
:100238004CEA050C00FA0EF44FEA174A250CBCFBF1
:10024800FAF81FFA87F90AFB18CC45EA0C4508FBAF
:1002580009F3AB420AD9ED1908F1FF3280F0238186
:10026800AB4240F22081A8F102083D44ED1AA4B245
:10027800B5FBFAF00AFB105544EA054400FB09F9FE
:10028800A14509D9E41900F1FF3380F00A81A1459D
:1002980040F2078102383C44A4EB090440EA0840D4
:1002A8000021002E61D024FA0EF40023346073601C
:1002B800BDE8F0878B4207D9002E54D0002186E88C
:1002C80021000846BDE8F087B3FA83F1002940F021
:1002D8008E80AB4202D3824200F2FA80841A65EB28
:1002E80003050120AC46002E3FD086E81010BDE87B
:1002F800F08712B90127B7FBF2F7B7FA87FEBEF10C
:10030800000F34D1EB1B3A0C1FFA87FC0121B3FB19
:10031800F2F8250C02FB183345EA03450CFB08F3F9
:10032800AB4207D9ED1908F1FF3002D2AB4200F217
:10033800D1808046ED1AA3B2B5FBF2F002FB10554E
:1003480043EA05440CFB00FCA44507D9E41900F175
:10035800FF3302D2A44500F2B8801846A4EB0C047F
:1003680040EA08409DE731463046BDE8F087CEF1C7
:10037800200405FA0EF307FA0EF720FA04F83A0CEF
:1003880025FA04F448EA0308B4FBF2F14FEA1845E9
:1003980002FB11441FFA87FC45EA044501FB0CF3F4
:1003A800AB4200FA0EF409D9ED1901F1FF3080F0E3
:1003B8008A80AB4240F2878002393D44EB1A1FFA2B
:1003C80088F5B3FBF2F002FB103345EA034500FB66
:1003D8000CF3AB4207D9ED1900F1FF386FD2AB42ED
:1003E8006DD902383D44EB1A40EA01418FE7C1F16B
:1003F800200722FA07F88B4005FA01F448EA0303BC
:1004080020FA07FE4FEA134CFD404EEA040EB5FBF6
:10041800FCF94FEA1E440CFB19551FFA83F844EA0D
:10042800054509FB08F4AC4202FA01F200FA01FAA8
:1004380008D9ED1809F1FF3043D2AC4241D9A9F1EE
:1004480002091D442D1B1FFA8EFEB5FBFCF00CFBA8
:1004580010554EEA054400FB08F8A04507D9E418F2
:1004680000F1FF3529D2A04527D902381C4440EABB
:100478000940A4EB0804A0FB02894C45C6464D463A
:1004880015D312D056B1BAEB0E0364EB050404FA87
:1004980007F7CB401F43CC40376074600021BDE8AC
:1004A800F0871846F8E69046E0E6C245EAD2B8EB8F
:1004B800020E69EB03050138E4E72846D7E7404612
:1004C80091E78146BEE7014678E702383C4445E7B4
:1004D800084608E7A8F102083D442BE7704700BF2B
:1004E800DFF834D0002103E00C4B5B584350043153
:1004F8000B480C4B42189A42F6D30B4A02E00023F1
:1005080042F8043B094B9A42F9D300F0EDF800F0A9
:10051800C3FF00F05FF87047000002205015000884
:10052800000000200C0000200C00002080000020AB
:10053800FEE7000010B594B03022002108A800F0B2
:10054800DAFF1422002103A800F0D5FF1F4B002179
:1005580001911A6C42F080521A641B6C03F08053AC
:100568000193019B1A4B02911A6842F440421A60A7
:100578001B6803F440430293029B012308934FF442
:10058800803309934FF480030F9308231093C823F3
:100598000224119308A804230E941294139300F0D4
:1005A800AFFC08B100F026FF0F2303934FF48052ED
:1005B8000023032103A8049405930692079300F0EF
:1005C8004FFE08B100F016FF14B010BD003802400D
:1005D8000070004000B599B000F0D0F8FFF7AAFF0E
:1005E800104B002116911A6B42F080021A631A6BA5
:1005F80002F080021692169A17911A6B42F00202C4
:100608001A631B6B03F0020317936846179B00F0ED
:10061800D1FE54226946044800F062FF00F00EFF44
:10062800FEE700BF003802402800002082B00C4BD3
:10063800002100915A6C42F480425A645A6C02F4C8
:1006480080420092009A01911A6C42F080521A641A
:100658001B6C03F080530193019B02B0704700BFED
:100668000038024030B5044689B01422002103A89E
:1006780000F041FF2268144B9A4223D1134C1448CE
:1006880000250195236B43F002032363236B03F0DA
:1006980002030193019BC0230393122304930123B4
:1006A80005930323069303A90423079300F002F993
:1006B8000295236C43F400132364236C03F40013A2
:1006C8000293029B09B030BD00540040003802403C
:1006D800000402407047FEE7FEE7FEE7FEE77047CA
:1006E8007047704700F064B80F49D1F8883043F478
:1006F8007003C1F888300D4B1A68002042F00102DF
:100708001A6098601A6822F0847222F480321A60A3
:10071800074A5A601A6822F480221A60D8604FF09B
:1007280000638B60704700BF00ED00E000380240B6
:100738001030002438B50E4A0E4B054618784FF491
:100748007A73B3FBF0F31068B0FBF3F000F09CF899
:10075800044658B90F2D09D8024629464FF0FF30F4
:1007680000F05EF8044B20461D6038BD012038BDFE
:1007780000000020040000200800002008B50B4BF2
:100788001A6842F400721A601A6842F480621A60A9
:100798001A6842F480721A60032000F02FF80020D3
:1007A800FFF7C8FFFFF742FF002008BD003C0240EA
:1007B800034A044B11681B780B441360704700BF51
:1007C8007C00002004000020014B1868704700BF1F
:1007D8007C00002038B50446FFF7F6FF631C1CBFF9
:1007E800054B1B78054618BFE418FFF7EDFF401BC3
:1007F8008442FAD838BD00BF04000020074AD368F5
:1008080023F4E0631B041B0C43F0BF63000243F4B2
:10081800003300F4E0600343D360704700ED00E06C
:10082800174B30B5DC68C4F30224C4F10703251D57
:10083800042B28BF0423062D4FF0010505FA03F306
:1008480003F1FF338CBF033C00241940A14005FA93
:1008580004F4013C2240002842EA01024FEA021255
:10086800ADBF00F1604000F00F00064B00F561409D
:10087800B5BFD2B2D2B21A5480F8002330BD00BF3F
:1008880000ED00E014ED00E00138B0F1807F0AD2FD
:10089800064B074A5860F02182F8231000200722EF
:1008A80098601A6070470120704700BF10E000E0B0
:1008B80000ED00E02DE9F04F85B00B68DFF89C8172
:1008C800644A01934FF001090023019C09FA03F7D8
:1008D80007EA0406B74240F0AD804C6824F0100ADD
:1008E800BAF1020F16D14FEAD30C00EB8C0C03F0CF
:1008F800070BDCF820504FEA8B0B4FF00F0E0EFA67
:100908000BFE25EA0E0E0D6905FA0BF545EA0E05F4
:10091800CCF820504FEA430C0325D0F800B005FA74
:100928000CF5ED4304F0030E0BEA050B0EFA0CFE72
:100938000AF1FF3A4EEA0B0EBAF1010F0095C0F822
:1009480000E015D8D0F808E005EA0E0ECD6805FAE3
:100958000CFA4AEA0E0EC0F808E0D0F804E02EEAD5
:100968000707C4F3001E0EFA03FE4EEA07074760A6
:10097800C768009D3D408F6807FA0CF73D43C56086
:10098800E50057D54FF0000BCDF80CB0D8F84470FF
:10099800314D47F48047C8F84470D8F8447007F4DC
:1009A80080470397039F23F0030707F1804707F564
:1009B8009C3703F0030CD7F808A04FEA8C0C4FF0D3
:1009C8000F0E0EFA0CFEA8422AEA0E0E39D005F5D3
:1009D8008065A84237D005F58065A84235D005F571
:1009E8008065A84233D005F58065A84214BF072565
:1009F800042505FA0CF545EA0E05BD601568F743B0
:100A080014F4803F0CBF3D4035431560556814F41D
:100A1800003F0CBF3D4035435560956814F4801F76
:100A28000CBF3D4035439560D568A40254BF3D4096
:100A38003543D5600133102B7FF447AF05B0BDE8CF
:100A4800F08F5D46D5E70125D3E70225D1E70325D9
:100A5800CFE700BF003C01400000024000380240E0
:100A680001684B6913F480634FF0000210D06FF4F3
:100A780080634B612023026380F83D3080F83E207C
:100A8800036C80F83C2043F00403036401207047A2
:100A9800184670472DE9F843044617469946C1F3AE
:100AA80007488EB22568B8F1010F0CBF6B69AB69B6
:100AB80036EA030314BF0120002008B9BDE8F88313
:100AC8006B695A0516D52B6843F400732B606FF4D5
:100AD80080636B6120220023236384F83D2084F81F
:100AE8003E30226C42F00402226484F83C3001203B
:100AF800BDE8F8837B1CD5D0FFF766FEA0EB0900A4
:100B0800874201D3002FCDD100232022236384F80C
:100B18003D2084F83E30226C42F02002E4E770B5B4
:100B280004460D46164623685B695B0701D500201D
:100B380070BD2046FFF794FFA8B96A1CF3D0FFF7F1
:100B480043FE801B854201D3002DECD100232022D7
:100B5800236384F83D2084F83E30226C84F83C30CE
:100B680042F020022264012070BD2DE9F843089E5E
:100B7800044690461F46C1F307498DB22368B9F170
:100B8800010F0CBF5B699B6935EA03030CBF0123A6
:100B98000023434502D00020BDE8F8837B1CEDD03C
:100BA800FFF712FE801B874201D3002FE6D10023F6
:100BB8002022236384F83D2084F83E30226C84F898
:100BC8003C3042F0200222640120BDE8F88370B571
:100BD80004460D46164623685B691B0601D50020AE
:100BE80070BD2046FFF73CFFA8B96A1CF3D0FFF799
:100BF800EBFD801B854201D3002DECD10023202280
:100C0800236384F83D2084F83E30226C84F83C301D
:100C180042F020022264012070BD000070B5044635
:100C280008B9012070BD90F83D3003F0FF021BB9F0
:100C380080F83C20FFF716FD2268242384F83D3015
:100C4800136823F00103136000F0A4FB6568414BAF
:100C58009D424DD8404B9842E3D922683F4953689A
:100C6800B0FBF1F123F03F030B435360136A23F009
:100C78003F03013119431162D169364B21F44F41C9
:100C88009D4221F0FF0100F1FF3048D86D00B0FB14
:100C9800F5F00130C0F30B03042B38BF04230B43DA
:100CA800D3611168206AE36921F0C00103430B4353
:100CB80013609168E068236921F40341034321F03C
:100CC800FF010B439360D168A069636921F0FF01BC
:100CD80003430B43D360136843F001031360002000
:100CE8002023206484F83D30206384F83E0070BDE2
:100CF8001B4B984295D92268184E5368B0FBF6F6FC
:100D080023F03F0333435360136A4FF496717143E2
:100D180023F03F034FF47A76B1FBF6F1A9E7A36815
:100D280053B905EB4503B0FBF3F0431CC3F30B03C6
:100D38006BB143F40043B2E719236B43B0FBF3F004
:100D4800431CC3F30B0313B143F44043A7E7012348
:100D5800A5E700BFA08601007F841E0040420F0067
:100D6800FF083D002DE9FF4104461F460D46904609
:100D7800FFF72AFD94F83D30202B064604D00225C3
:100D8800284604B0BDE8F081009019230122584993
:100D98002046FFF7EAFE0028F1D194F83C30012BF9
:100DA800EDD0012384F83C3023681A68D2075EBF6F
:100DB8001A6842F001021A601A6822F400621A6086
:100DC800212284F83D20102284F83E20002222644B
:100DD8006785628D2285474AE262E26AC4F8248008
:100DE800082A04D0012A02D012F5803F04D11A68DB
:100DF80042F480721A6002E0226B122AF7D0009641
:100E08000A9B00224FF001112046FFF7AEFE08B101
:100E18000125B5E723692268B3F5804F13D105F0A2
:100E2800FE05156133460A9A33492046FFF732FE1C
:100E380005460028ECD1236803905A6903929B6900
:100E48000393039B44E0EB1103F0060343F0F00324
:100E580013612A490A9A33462046FFF71BFE0028E9
:100E6800D6D12368EDB21D61DCE732460A992046E7
:100E7800FFF7ADFE40B1236C042B01BF2268136855
:100E880043F400731360C3E7636A20681A4612F8D4
:100E9800011B01616262628D013A92B26285228D04
:100EA8004769511E89B27F0721850AD549B159780A
:100EB800016102336362638D013B9BB2023A638531
:100EC800228532460A992046FFF729FE0028D2D10A
:100ED800238D002BC9D121680A6842F400720A6088
:100EE800202284F83D2084F83C3084F83E3047E7DF
:100EF800020010000000FFFF0200010008000100CE
:100F08002DE9F341044618B9012002B0BDE8F0818B
:100F18000368DD0710D42368980758D423681A0794
:100F280000F19A8023685B0700F1B880A269002A63
:100F380040F019810020E8E7A64B9A6802F00C02FD
:100F4800042A07D09A6802F00C02082A0AD15B68C2
:100F5800590207D59F4B1B689A03DCD56368002BA1
:100F6800D9D1D1E763689B4DB3F5803F11D12B6888
:100F780043F480332B60FFF727FC964D06462B6819
:100F88009B03C8D4FFF720FC801B6428F7D90320F3
:100F9800BBE7B3F5A02F04D12B6843F480232B6063
:100FA800E5E72A6822F480322A602A6822F480223F
:100FB8002A60002BDFD1FFF707FC06462B689F034A
:100FC800A9D5FFF701FC801B6428F7D9DFE7814B1F
:100FD8009A6812F00C0F07D09A6802F00C02082ADF
:100FE80011D15B685E020ED47A4B1A68950702D558
:100FF800E268012A88D11A68216922F0F80242EAD7
:10100800C1021A608AE7E268734BB2B101221A6022
:10101800FFF7DAFB6F4D06462B68980707D52B6854
:10102800226923F0F80343EAC2032B6076E7FFF74F
:10103800CBFB801B0228EFD9A9E71A60FFF7C4FB96
:10104800644D06462B6899077FF568AFFFF7BCFB30
:10105800801B0228F6D99AE76269604B7AB10122AF
:101068001A60FFF7B1FB5B4D06466B6F9F073FF5B4
:1010780059AFFFF7A9FB801B0228F6D987E71A604A
:10108800FFF7A2FB534D06466B6F98077FF54AAFF3
:10109800FFF79AFB801B0228F6D978E74D4B1A6CAC
:1010A80012F0805228D101921A6C42F080521A64D0
:1010B8001B6C03F080530193019B0126484D2B685C
:1010C800D9051BD5A368434D012B27D12B6F43F0BE
:1010D80001032B67FFF778FB3E4D074641F288383E
:1010E8002B6F9B0739D5002E3FF420AF394A136C7C
:1010F80023F08053136419E70026DFE72B6843F4D5
:1011080080732B60FFF760FB07462B68DA05D9D49C
:10111800FFF75AFBC01B0228F7D938E7052B04D183
:101128002B6F43F004032B67D0E72A6F22F00102EC
:101138002A672A6F22F004022A67002BCAD1FFF718
:1011480043FB41F2883807462B6F9807CBD5FFF74A
:101158003BFBC01B4045F7D919E7FFF735FBC01B20
:101168004045BDD913E71B4DAB6803F00C03082BB2
:101178003FF4CAAE1B4E0023022A336034D1FFF776
:1011880023FB07462B6899011ED4226AE36913439F
:10119800626A43EA8213E26A43EA0263A26A0D4C76
:1011A8005208013A43EA02436B6001233360FFF7B8
:1011B8000BFB054623689A013FF5BCAEFFF704FB1D
:1011C800401B0228F6D9E2E6FFF7FEFAC01B022808
:1011D800D8D9DCE60038024000004742800E47427A
:1011E8000070004060004742FFF7EEFA04462B68A3
:1011F8009B017FF59FAEFFF7E7FA001B0228F6D99F
:10120800C5E600BF134908B58B6803F00C03042B2F
:1012180003D0082B03D0104808BD104808BD4A6801
:101228004B68496813F4800314BF0C480A48C1F39B
:10123800881118BF002302F03F02A1FB0001FEF74E
:10124800C7FF044B5B68C3F3014301335B00B0FB8A
:10125800F3F008BD003802400024F40000127A00C0
:101268002DE9F0410D46044610B90120BDE8F08192
:10127800444B1A6802F00F028A4228D321688F076C
:101288002DD4C80740D43F4B1A6802F00F0295428C
:1012980066D3226851076CD4130707D53A4A2169E7
:1012A800936823F4604343EAC1039360FFF7AAFFFE
:1012B800354B364A9B68C3F30313D35CD840344B91
:1012C80018600020FFF736FA0020BDE8F081CAB2A6
:1012D8001A701B6803F00F039942C6D1CEE72A4B58
:1012E80011F0040F1EBF9A6842F4E0529A600E078C
:1012F80042BF9A6842F460429A609A68A06822F0F5
:10130800F00202439A60BCE762681F4B012A1DD1B4
:101318001B6813F4003FA8D01B4EB36823F00303E7
:101328001343B360FFF750FA41F288380746B368B1
:10133800626803F00C03B3EB820FA4D0FFF744FA02
:10134800C01B4045F3D90320BDE8F081911E012957
:101358001B6802D813F0007FDDE713F0020FDAE70D
:10136800EAB21A701B6803F00F039D427FF47DAF49
:101378008FE70549E0688B6823F4E05303438B60EB
:101388008AE700BF003C02400038024028150008E8
:1013980000000020044B054A9B68C3F38223D35CFA
:1013A800034A1068D84070470038024038150008D2
:1013B8000000002010B596B00C4B01930C4B029323
:1013C800044600234FF4804201A803930493059236
:1013D8000693079308930993FFF720FC542201A969
:1013E800204600F07DF8204616B010BD005400409D
:1013F800A0860100704700001FB500F0F00300014F
:1014080043F00C02C0B243F008038DF80D3040F0F1
:101418000C038DF80E3040F0080064238DF80C2082
:101428008DF80F00009303AA04234E210248FFF70A
:1014380099FC05B05DF804FB2800002008B53320AE
:10144800FFF7DAFF3220FFF7D7FF3220FFF7C2F9A4
:101458002820FFF7D1FF3220FFF7BCF90120FFF762
:10146800CBFF3220FFF7B6F90620FFF7C5FF322081
:10147800FFF7B0F90C20FFF7BFFF3220FFF7AAF9FA
:101488000220FFF7B9FF3220FFF7A4F98020BDE85A
:101498000840FFF7B1BF000070B50D4E0D4CA41BFE
:1014A800A4100025A54209D10B4E0C4C00F02CF8D5
:1014B800A41BA4100025A54205D170BD56F82530FF
:1014C80098470135EEE756F8253098470135F2E799
:1014D8004815000848150008481500084C1500086C
:1014E80010B5431E0A44914200D110BD11F8014BBA
:1014F80003F8014FF7E702440346934200D17047CF
:1015080003F8011BF9E70000F8B500BFF8BC08BCF8
:101518009E467047F8B500BFF8BC08BC9E467047A9
:10152800000000000000000001020304060708098B
:081538000000000001020304A1
:08154000C8ECFF7F0100000070
:04154800BD010008D9
:04154C0099010008F9
:0C1550000024F400010000001000000066
:04000005080004E902
:00000001FF
