:020000040800F2
:10000000005000204D010008A9040008AB040008BE
:10001000AD040008AF040008B104000800000000AF
:10002000000000000000000000000000B304000811
:10003000B504000800000000B7040008B904000877
:100040009501000895010008950100089501000838
:100050009501000895010008950100089501000828
:100060009501000895010008950100089501000818
:100070009501000895010008950100089501000808
:1000800095010008950100089501000895010008F8
:1000900095010008950100089501000895010008E8
:1000A00095010008950100089501000895010008D8
:1000B00095010008950100089501000895010008C8
:1000C00095010008950100089501000895010008B8
:1000D00095010008950100089501000895010008A8
:1000E0009501000895010008950100080000000036
:1000F0000000000000000000000000000000000000
:0C01000000000000000000005FF808F1A3
:10010C0010B5054C237833B9044B13B10448AFF345
:10011C0000800123237010BD70000020000000003F
:10012C003421000808B5034B1BB103490348AFF356
:10013C00008008BD0000000074000020342100087D
:10014C00002103E00B4B5B58435004310A480B4B26
:10015C0042189A42F6D30A4A02E0002342F8043BC2
:10016C00084B9A42F9D300F0A3F901F0D5FE00F048
:10017C00EFF8704784210008000000207000002078
:10018C00700000206C010020FEE7000008B50A4B4F
:10019C000246196809B90949196069461868024488
:1001AC008A4206D901F0B2FE0C2303604FF0FF30F7
:1001BC0008BD1A6008BD00BF8C0000206C01002037
:1001CC0070B5444C0022254622602271284601F06D
:1001DC0005FE0028FAD12378002B39D105243E4B9B
:1001EC003C4E1D682B79002B4BD0052231462868DC
:1001FC0001F0C6FE002844D1642000F0B5F90224B9
:10020C0001224FF40051354800F0ECFA322000F096
:10021C00ABF9022C3CD00924304D00224FF4005194
:10022C00284600F0DFFAC82000F09EF901224FF4B6
:10023C000051284600F0D6FA013CC82000F094F991
:10024C0014F0FF04E9D1BDE87040224801F098BADF
:10025C000524224D00224FF40051284600F0C2FA2A
:10026C00642000F081F901224FF40051284600F07F
:10027C00B9FA013C642000F077F914F0FF04E9D1DD
:10028C00ACE7013C14F0FF04AD69ABD10124B7E736
:10029C00124D00224FF40051284600F0A3FA4FF4FF
:1002AC00FA7000F061F901224FF40051284600F079
:1002BC0099FA013C4FF4FA7000F056F914F0FF046F
:1002CC00E7D14FF4FA7000F04FF9BDE870400148E7
:1002DC0001F076BA480100204401002000100140D2
:1002EC00282210B594B00DEB0200002101F057FE4E
:1002FC00142200210DEB020001F051FE002110220E
:10030C0001A801F04CFE4FF48033022401220B9320
:10031C0012934FF4E0130AA80A920E9213931194BD
:10032C0000F0B4FC0F234FF48062059300232146A8
:10033C0005A8079308920993069400F081FE4FF4E8
:10034C00004301A80194039300F028FF14B010BDE2
:10035C0008B5FFF7C5FF01F087FA00224FF4805172
:10036C00154800F03FFA00224FF40051124800F0FB
:10037C0039FA01F0F2FC01F07BFB01F00FF90221DC
:10038C00012001F0B0FB0D4801F0A4FB4FF47A7092
:10039C0000F0EAF84FF4FA7000F0E6F8FFF710FFFF
:1003AC004FF4FA6000F0E0F8002001F029FA012087
:1003BC0001F026FAF2E700BF000C01405C210008B6
:1003CC007047000010B5044686B01022002102A828
:1003DC0001F0E5FD2268114B9A421CD1104C02A988
:1003EC00A369104843F00803A361A36903F0080351
:1003FC000093009BC02302931223039303230593C2
:10040C0000F00EF9E36943F40013E361E36903F4CC
:10041C0000130193019B06B010BD00BF00540040B7
:10042C0000100240000C014010B5044686B01022AA
:10043C00002102A801F0B3FD2268164B9A4226D186
:10044C0003F560439A6902A942F480529A619A6951
:10045C00114802F480520092009A9A6942F0040208
:10046C009A619B6903F004030193019BA0230293FF
:10047C00022303930323059300F0D2F84023029345
:10048C00002302A904480393049300F0C9F806B0B2
:10049C0010BD00BF00300140000801407047FEE76E
:1004AC00FEE7FEE7FEE770477047704700F04AB87A
:1004BC000F4B1A6842F001021A6059680D4A0A4043
:1004CC005A601A6822F0847222F480321A601A6818
:1004DC0022F480221A605A6822F4FE025A604FF409
:1004EC001F029A604FF00062034B9A60704700BF86
:1004FC00001002400000FFF800ED00E038B50E4B94
:10050C00054618784FF47A73B3FBF0F30B4A106876
:10051C00B0FBF3F000F06EF8044658B90F2D09D873
:10052C00024629464FF0FF3000F030F8044B2046CD
:10053C001D6038BD012038BD0400002000000020E3
:10054C0008000020034A044B11681B780B4413600D
:10055C00704700BF6401002004000020014B1868A4
:10056C00704700BF6401002038B50446FFF7F6FF62
:10057C000546631C1EBF044B1B78E418FFF7EEFF07
:10058C00401B8442FAD838BD04000020174B30B50C
:10059C00DC68C4F30224C4F10703251D042B28BF17
:1005AC000423062D4FF0010598BF002405FA03F330
:1005BC0003F1FF3388BF033C1940A14005FA04F452
:1005CC00013C2240002842EA01024FEA0212A9BF74
:1005DC0000F16040064BD2B200F56140BBBF00F0A9
:1005EC000F00D2B280F800231A5430BD00ED00E0A9
:1005FC0014ED00E00138B0F1807F0AD2F021064BF7
:10060C00064A586082F823100020072298601A606E
:10061C0070470120704700BF10E000E000ED00E0E3
:10062C002DE9F74F00242646664BDFF8A8E1DFF8EA
:10063C00A8C10A6832FA06F502D103B0BDE8F08F02
:10064C004FF0010808FA06F802EA080290457FD13B
:10065C004D68122D00F0AA8000F28380022D00F06C
:10066C00A28077D8002D00F08980012D00F09980B0
:10067C004FF00F09FF2A93BF824606F18045083DD3
:10068C00D0F800B092BFB500D0F804B0AD0009FAB4
:10069C0005F82BEA080804FA05F588BF00F1040AEE
:1006AC0048EA0505CAF80050D1F804A01AF0805F9A
:1006BC004ED0454D444FAD6926F0030845F0010579
:1006CC00BD61BD6908F1804805F00105019508F58B
:1006DC00803806F0030B019D4FEA8B0BD8F80850BD
:1006EC0009FA0BF925EA0909384DA84263D005F53A
:1006FC008065A84261D005F58065A8425FD005F5FC
:10070C008065A8420CBF0325042505FA0BF545EAC4
:10071C000905C8F808501D681AF4803F14BF15432A
:10072C0095431D605D681AF4003F14BF1543954353
:10073C005D609D681AF4801F14BF154395439D603E
:10074C00DD681AF4001F14BF2A4325EA0202DA609E
:10075C0001366EE7032D22D0112D89D1CC680434DB
:10076C0086E71B4FBD4209D012D8DFF870904D457B
:10077C0004D009F580394D457FF47AAF8C68C4B14B
:10078C00012C0CBFC0F81080C0F8148008246FE74F
:10079C007545F3D06545F1D0DFF84490EBE70024C4
:1007AC0066E7CC6864E7CC68083461E7CC680C3445
:1007BC005EE704245CE70025A7E70125A5E70225F1
:1007CC00A3E700BF000401400010024000080140F4
:1007DC000000211000003110000032100000111038
:1007EC00000022100AB1016170470904FBE701689F
:1007FC0000224B6913F4806310D06FF480634B615B
:10080C002023026380F83D3080F83E20036C80F892
:10081C003C2043F0040303640120704718467047E2
:10082C002DE9F843044617469946C1F307488EB2A2
:10083C002568B8F1010F0CBF6B69AB6936EA03038D
:10084C0014BF0120002008B9BDE8F8836B695A0574
:10085C0016D52B68202243F400732B606FF4806351
:10086C006B610023236384F83D2084F83E30226CB6
:10087C0042F00402226484F83C300120BDE8F88385
:10088C007B1CD5D0FFF76AFEA0EB0900874201D391
:10089C00002FCDD100232022236384F83D2084F83F
:1008AC003E30226C42F02002E4E770B504460D465F
:1008BC00164623685B695B0701D5002070BD204696
:1008CC00FFF795FFA8B96A1CF3D0FFF747FE801B12
:1008DC00854201D3002DECD100232022236384F820
:1008EC003D2084F83E30226C84F83C3042F02002EB
:1008FC002264012070BD2DE9F843044690461F4642
:10090C00089EC1F307498DB22368B9F1010F0CBFE2
:10091C005B699B6935EA03030CBF01230023434544
:10092C0002D00020BDE8F8837B1CEDD0FFF716FE4B
:10093C00801B874201D3002FE6D1002320222363A2
:10094C0084F83D2084F83E30226C84F83C3042F030
:10095C00200222640120BDE8F88370B504460D46E0
:10096C00164623685B691B0601D5002070BD204626
:10097C00FFF73DFFA8B96A1CF3D0FFF7EFFD801B12
:10098C00854201D3002DECD100232022236384F86F
:10099C003D2084F83E30226C84F83C3042F020023A
:1009AC002264012070BD000070B5044608B9012016
:1009BC0070BD90F83D3003F0FF021BB980F83C206D
:1009CC00FFF700FD2423226884F83D30136823F0E0
:1009DC000103136000F0D2FB6568414B9D424DD87A
:1009EC00404B9842E3D940492268B0FBF1F153687F
:1009FC0023F03F030B435360136A23F03F03013191
:100A0C0019431162D169364B21F44F419D4221F0BB
:100A1C00FF0100F1FF3048D86D00B0FBF5F001305C
:100A2C00C0F30B03042B38BF04230B43D3611168B1
:100A3C00206AE36921F0C00103430B431360916802
:100A4C00E068236921F40341034321F0FF010B43C8
:100A5C009360D168A069636921F0FF0103430B43E4
:100A6C00D3601368002043F001031360202320643B
:100A7C0084F83D30206384F83E0070BD1B4B9842D7
:100A8C0095D9194E4FF49671B0FBF6F62268714366
:100A9C00536823F03F0333434FF47A765360136A61
:100AAC00B1FBF6F123F03F03A9E7A36853B905EBBB
:100ABC004503B0FBF3F0431CC3F30B036BB143F4DE
:100ACC000043B2E719236B43B0FBF3F0431CC3F3B1
:100ADC000B0313B143F44043A7E70123A5E700BF81
:100AEC00A08601007F841E0040420F00FF083D00DD
:100AFC002DE9FF4104461F460D469046FFF72EFD9B
:100B0C0094F83D300646202B04D00225284604B02C
:100B1C00BDE8F08100901923012258492046FFF7C7
:100B2C00EAFE0028F1D194F83C30012BEDD00123E2
:100B3C0084F83C3023681A68D2075EBF1A6842F00A
:100B4C0001021A601A6822F400621A60212284F8E9
:100B5C003D20102284F83E20002222646785628D9D
:100B6C00C4F824802285464AE262E26A082A04D04C
:100B7C00012A02D012F5803F04D11A6842F4807227
:100B8C001A6002E0226B122AF7D000960A9B002210
:100B9C004FF001112046FFF7AEFE08B10125B5E775
:100BAC0023692268B3F5804F13D105F0FE0515615A
:100BBC0033460A9A33492046FFF732FE0546002891
:100BCC00ECD1236803905A6903929B690393039BAE
:100BDC0044E0EB1103F0060343F0F00313612A49E0
:100BEC0033460A9A2046FFF71BFE0028D6D123680D
:100BFC00EDB21D61DCE732460A992046FFF7ADFEE7
:100C0C0040B1236C042B01BF2268136843F40073BA
:100C1C001360C3E7636A20681A4612F8011B01616E
:100C2C006262628D013A92B26285228D4769511ED1
:100C3C0089B27F0721850AD549B159780233016100
:100C4C006362638D023A013B9BB263852285324617
:100C5C000A992046FFF729FE0028D2D1238D002BBC
:100C6C00C9D121680A6842F400720A60202284F813
:100C7C003C3084F83D2084F83E3047E702001000F9
:100C8C000000FFFF02000100080001002DE9F34104
:100C9C00054608B901203CE00368DB0710D42B683B
:100CAC009F075DD42B68190700F194802B685A07B5
:100CBC0000F1BE80E869002840F02C81002028E07B
:100CCC008F4C636803F00C03042B07D0636803F0AC
:100CDC000C03082B09D16368DE0306D523689C033B
:100CEC00DDD56B68002BDAD1D4E76B68B3F5803FA8
:100CFC0012D1236843F480332360FFF72FFC0646A0
:100D0C0023689803CBD4FFF729FC801B6428F7D900
:100D1C00032002B0BDE8F0819BB9236823F4803333
:100D2C002360236823F480232360FFF717FC064617
:100D3C0023689903B3D5FFF711FC801B6428F7D9FE
:100D4C00E6E7B3F5A02F236803D143F48023236097
:100D5C00CFE723F480332360236823F48023CBE78D
:100D6C00674C636813F00C0F07D0636803F00C0337
:100D7C00082B10D16368DA030DD423689B0702D5C6
:100D8C002B69012B86D123686A6923F0F80343EAA7
:100D9C00C203236086E72A695A4B6AB101221A60A2
:100DAC00FFF7DCFB064623689F07ECD4FFF7D6FB66
:100DBC00801B0228F7D9ABE71A60FFF7CFFB06467A
:100DCC00236898077FF56EAFFFF7C8FB801B0228DE
:100DDC00F6D99DE7AA694A4C4B4BDAB101221A604D
:100DEC00FFF7BCFB0646636A9B070DD54FF4FA521E
:100DFC00464B1B68B3FBF2F3019300BF019B5A1ED9
:100E0C000192002BF9D151E7FFF7A8FB801B0228B8
:100E1C00E9D97DE71A60FFF7A1FB0646636A9F07D5
:100E2C007FF544AFFFF79AFB801B0228F6D96FE7DA
:100E3C00334CE369D80024D40127E36943F0805391
:100E4C00E361E36903F080530093009B304E3368F9
:100E5C00D90518D5EB68012B26D1236A43F0010381
:100E6C002362FFF77BFB41F288368046236A9B079F
:100E7C003FD5002F3FF41EAFE36923F08053E361AD
:100E8C0018E70027E2E7336843F480733360FFF719
:100E9C0065FB80463368DA05DCD4FFF75FFBA0EB1B
:100EAC0008006428F6D933E7ABB9236A41F28838D5
:100EBC0023F001032362236A23F004032362FFF768
:100ECC004DFB0646236A9807D3D5FFF747FB801BDB
:100EDC004045F7D91CE7052B236A03D143F00403E3
:100EEC002362BAE723F001032362236A23F004038D
:100EFC00B6E7FFF733FBA0EB0800B042B6D907E723
:100F0C0000100240000042428004424200000020D7
:100F1C00007000402A4B5A681C4602F00C02082A4A
:100F2C003DD00023274E022833602BD1FFF716FB50
:100F3C000746236899011FD42B6AB3F5803F05D16E
:100F4C006268A96822F400320A436260696A6268C6
:100F5C000B4322F474121343636001233360FFF7D5
:100F6C00FDFA054623689A013FF5A8AEFFF7F6FA9D
:100F7C00401B0228F6D9CBE6FFF7F0FAC01B02287B
:100F8C00D7D9C5E6FFF7EAFA054623689B017FF53A
:100F9C0095AEFFF7E3FA401B0228F6D9B8E6012814
:100FAC003FF4B7AE58682B6A00F480329A427FF453
:100FBC0071AE6B6A00F47010C01A18BF0120A8E65D
:100FCC00001002406000424230B5194B87B002ACB1
:100FDC0003F11005224618685968083303C2AB4266
:100FEC001446F7D101238DF80430022311498DF8F2
:100FFC0005304B6803F00C02082A17D1C3F3834267
:10100C0006A80244DB0312F8102C0CD54B680A48D6
:10101C00C3F34043504306AA134413F8143CB0FBEB
:10102C00F3F007B030BD05485043FAE70248F8E743
:10103C004C2100080010024000127A0000093D000B
:10104C002DE9F0410D46044610B90120BDE8F081B0
:10105C00454A136803F007038B4229D321688E0796
:10106C0031D4CA0744D4404A136803F007039D42A5
:10107C0067D322683D4D12F0040F6ED1130706D5CD
:10108C006B68226923F4605343EAC2036B60FFF779
:10109C009BFF6B68364AC3F30313D35CD840354BC4
:1010AC001860354B1868FFF729FA0020BDE8F0816D
:1010BC00136823F007030B431360136803F0070353
:1010CC009942C2D1CAE7294B11F0040F1EBF5A68CE
:1010DC0042F4E0625A60080742BF5A6842F4605218
:1010EC005A605A68A06822F0F00202435A60B8E7CE
:1010FC0062681E4E012A33681BD113F4003FA4D042
:10110C00736841F2883823F0030313437360FFF7CD
:10111C0025FA07467368626803F00C03B3EB820F81
:10112C00A1D0FFF71BFAC01B4045F3D90320BDE843
:10113C00F081022A02D113F0007FE0E713F0020FD6
:10114C00DDE7136823F007032B431360136803F0E8
:10115C0007039D427FF479AF8BE76B68E16823F45A
:10116C00E0630B436B6089E70020024000100240F3
:10117C00622100080000002008000020044B054AF2
:10118C005B68C3F30223D35C034A1068D8407047F2
:10119C0000100240722100080000002003682DE9B5
:1011AC00F341D907054620D5354CE369DA0032D432
:1011BC000127E36943F08053E361E36903F0805353
:1011CC000193019B2F4E3368DB0526D5236A13F45C
:1011DC00407336D1236A6A6823F440731343236245
:1011EC001FB1E36923F08053E3612868830706D5B8
:1011FC00234AA968536823F440430B43536010F00F
:10120C0010001BD01E4AE9685368002023F48003A9
:10121C000B43536012E00027D4E7336843F4807328
:10122C003360FFF79BF980463368D805CED4FFF7BF
:10123C0095F9A0EB08006428F6D9032002B0BDE8AC
:10124C00F0816A6802F440729342C3D001200E4AC6
:10125C00236A1060002023F4407110602162D907CA
:10126C00B8D5FFF77BF941F288380646236A9A070E
:10127C00B0D4FFF773F9801B4045F7D9DDE700BF09
:10128C00001002400070004040044242F8B5044691
:10129C000E4615461F4621688A6836EA020301D0BD
:1012AC000020F8BD6B1CF7D0FFF758F9C01B854226
:1012BC00F1D823685A6822F0E0025A606268B2F5ED
:1012CC00827F0AD1A268B2F5004F02D0B2F5806FCE
:1012DC0003D11A6822F040021A60A26AB2F5005FCC
:1012EC0007D11A6822F400521A601A6842F40052AC
:1012FC001A60012384F851300023032084F8503005
:10130C00F8BD10B513460A4680210446FFF7BEFF10
:10131C0020B10320636D43F02003636510BD10B54D
:10132C000446002834D00023836290F8513003F037
:10133C00FF021BB980F85020FFF776F802232268D1
:10134C0084F851301368A06823F04003136063687D
:10135C00A1690343E06803432069034360690343C5
:10136C00E0690343206A0343A06A034301F400705D
:10137C00090C034301F0040113605160D369002090
:10138C0023F40063D3610123606584F8513010BDF0
:10139C00012010BD2DE9F7431E4690F8503004464D
:1013AC00012B0D4691460A9F00F0E280012380F844
:1013BC005030FFF7D3F894F851308046DBB2012B54
:1013CC0061680AD0B1F5827F40F0D080A068002817
:1013DC0040F0CC80042B40F0C980002D00F0C4807C
:1013EC00B9F1000F00F0C080002E00F0BD8094F821
:1013FC005130C4F83890042B1CBF052384F85130AD
:10140C0000236365236463642368E687E6861A68B1
:10141C00A687500658BF1A68256358BF42F0400291
:10142C00A68658BF1A60E268B2F5006F58D109B1B0
:10143C00012E07D135F8022BDA60E38E2563013BD0
:10144C009BB2E3860125E38E9BB2ABB9E38F9BB2D3
:10145C0093B9424639462046FFF753FF002840F027
:10146C008180A368002B32D123680190DA68019245
:10147C009B680193019B2AE02268936899070DD51C
:10148C00E38E9BB253B14DB10025236B33F8021B95
:10149C00D1602363E38E013B9BB2E3869368DB0749
:1014AC000CD5E38F9BB24BB10125D268A36B23F80B
:1014BC00022BA363E38F013B9BB2E387FFF74EF84C
:1014CC00A0EB08008742BED87E1CBCD003200123B1
:1014DC0084F85130002384F8503003B0BDE8F08319
:1014EC0009B1012E08D12A781A73236B01332363B7
:1014FC00E38E013B9BB2E3860125E38E9BB21BB9C5
:10150C00E38F9BB2002BA4D02268936898070ED56A
:10151C00E38E9BB25BB155B10025236B1B78137323
:10152C00236B01332363E38E013B9BB2E38622687A
:10153C009368D9070DD5E38F9BB253B10125D268BF
:10154C00A36B1A70A36B0133A363E38F013B9BB2B4
:10155C00E387FFF703F8A0EB08008742CDD87B1C8C
:10156C00CBD0B3E7202363650120B0E70220AEE7C0
:10157C000220B2E770B50646202014461D4600F046
:10158C00EFFC00214671C0E90445DDE90445017119
:10159C00C0E902458161C16170BD00002DE9F743CE
:1015AC00C82400252246CDE900452B460120FFF733
:1015BC00E1FFDFF88C90CDE90045C9F80000224628
:1015CC002B460220FFF7D6FFDFF87880CDE90045E7
:1015DC00C8F8000022462B460320FFF7CBFF144F20
:1015EC00224638602B46CDE900450420FFF7C2FFA8
:1015FC00104ECDE90045306022462B460520FFF702
:10160C00B9FF0D4B3268D8F8004039681860D9F82A
:10161C0000309C61D861A161E3618A61CC61906109
:10162C00D161C261054A8361136003B0BDE8F083E8
:10163C00580100205C0100205401002044010020CE
:10164C0060010020500100202DE9F04703464FF0C7
:10165C00000C0026002793F804E05FFA8CFA0CF1DA
:10166C00010CBEF1000F10D10025BAF1000F12D001
:10167C00A846A94604795FFA8EF50EF1010E8CB9D5
:10168C00AA4517D2C1E9006707E09B69D3E9024577
:10169C0036196F41DFE70D604D600121117018465E
:1016AC00BDE8F087C069D0E9044518EB040849EBA4
:1016BC000509DFE7C1E9008903461470EFE72DE95E
:1016CC00F04F90461F4600220023044689460546EB
:1016DC004FF0000B85B0CDE900232B795FFA8BFA24
:1016EC00FBB105224946286800F04AFCC8B9002223
:1016FC0000230646CDE9022323795FFA86FB2BB142
:10170C0005224946206800F03BFCB0B1DDE902013E
:10171C00E4690136D4E9042380185941CDE902016A
:10172C00EAE7AD69DDE90001D5E9022380185941EA
:10173C00CDE900010BF1010BCFE7DA450AD29DE8A8
:10174C00180088E8180001232C463B70204605B091
:10175C00BDE8F08FDDE90223C8E900233870F5E716
:10176C0038B501230546037105200C4600F0F8FB43
:10177C00034628602068227918601A7138BD000071
:10178C000022002330B585B0CDE9022300230B4C99
:10179C0004AA02A9054602F8093D2068FFF754FF88
:1017AC00DDE9022320609DF8070000F08BFB294641
:1017BC002068FFF7D5FF05B030BD00BF4401002005
:1017CC000022002330B5002585B00C4CCDE9022356
:1017DC0004AB014603F8095D02AA2068FFF76FFF0E
:1017EC00DDE9022320609DF8070000F06BFB236805
:1017FC001D71186800F0BCFB05B030BD4401002021
:10180C0010B5044600224FF480511648FEF7EAFF4B
:10181C0000224FF400511348FEF7E4FFDCB901221B
:10182C004FF400510F48FEF7DDFF40F6C410FEF7F1
:10183C009BFE00224FF480510A48FEF7D3FF094863
:10184C0000224FF40051FEF7CDFFBDE810404FF4DD
:10185C007A70FEF789BE012CEBD122464FF48051F1
:10186C00E0E700BF000C014010222DE9F04389B0E5
:10187C000DEB0200002100F092FB444B444E9A69A0
:10188C00444F42F004029A619A69304602F0040215
:10189C000192019A9A69DFF8009142F008029A616C
:1018AC009A69162102F008020292029A9A6900249F
:1018BC0042F010029A619B69012203F0100303931A
:1018CC00039BFEF78FFF384600224BF22001FEF7F8
:1018DC0089FF484600224FF40051FEF783FF002297
:1018EC0030464FF4E061FEF77DFF012540F21623F0
:1018FC004FF0030804A930460493CDF81C800595DD
:10190C000694FEF78DFE44F6034304A9384604936F
:10191C0005940694FEF784FE4FF4304304A9384630
:10192C000493CDF81C8005954FF002080694FEF741
:10193C0077FE4FF4A06304A93046049305950694F2
:10194C00CDF81C80FEF76CFE4FF4C05304A9304652
:10195C00049305940694FEF763FE202304A93846ED
:10196C00049305950694CDF81C80FEF759FE4FF4B0
:10197C00005304A94846049305950694CDF81C80A1
:10198C00FEF74EFE09B0BDE8F08300BF0010024028
:10199C0000080140000C01400010014008B50C4843
:1019AC000C4BDFF834E04FF4804280E80840002311
:1019BC0002618360C36043618361C3610362FEF7AC
:1019CC00F3FF18B1BDE80840FEF7FABC08BD00BF34
:1019DC009000002000540040A0860100642307B54D
:1019EC00009313460A4601460248FFF781F803B0FC
:1019FC005DF804FB9000002007B500F0F00343F005
:101A0C000C028DF8042004220001C0B243F008033C
:101A1C008DF8053040F00C0340F008008DF80700FD
:101A2C000DEB02014E208DF80630FFF7D7FF03B007
:101A3C005DF804FB07B500F0F00343F00D028DF8E0
:101A4C00042004220001C0B243F009038DF80530D4
:101A5C0040F00D0340F009008DF807000DEB02017A
:101A6C004E208DF80630FFF7B9FF03B05DF804FB8C
:101A7C0008B5FFF793FF3220FEF776FD3320FFF712
:101A8C00BBFF3220FFF7B8FF3220FEF76DFD282098
:101A9C00FFF7B2FF3220FEF767FD0120FFF7ACFF26
:101AAC003220FEF761FD0620FFF7A6FF3220FEF77D
:101ABC005BFD0C20FFF7A0FF3220FEF755FD022046
:101ACC00FFF79AFF3220FEF74FFDBDE8084080205B
:101ADC00FFF792BF10B5441E14F8010F00B910BDEA
:101AEC00FFF7A8FFF8E7012815BF01F14000803986
:101AFC0060F07F00C8B218BFC0B2FFF77DBF4000D6
:101B0C0000F07E0000F0AEB9400000F07E0040F026
:101B1C00800000F0BFB938B505460C46FFF7F4FF5E
:101B2C0040EA0401C9B22846BDE83840FFF7E7BFD8
:101B3C0038B505460C46FFF7E7FF20EA0401C9B2A9
:101B4C002846BDE83840FFF7DABF2DE9F84F0C28DE
:101B5C0081460F4692461E46DDF828803ED00E2860
:101B6C003FD000252C4644F08001042000F07AF987
:101B7C0080210420FFF7DCFF80210A20FFF7CBFF38
:101B8C000021022000F06EF9BB461FFA8AFAABEB7B
:101B9C0007039BB29A4527D84946022000F062F908
:101BAC00B9F10C0F03D180210D20FFF7B4FF4FF4D6
:101BBC00FA6745F0010A882000F06CF9013FBFB2CA
:101BCC00054617B110EA0A0FF5D080210D20FFF75A
:101BDC00AFFF7FB902252846BDE8F88F3025772462
:101BEC00C1E710251224BEE71BF8011B122000F0E0
:101BFC0039F9CCE78C2000F04DF910F01B0FE9D12E
:101C0C0004F00104B9F10C0F05EA0405E3D19420AA
:101C1C0000F040F90446982000F03CF910F0070061
:101C2C001BBF04F1FF3300EBC300E300A8F8000076
:101C3C0008BFA8F800307CB1102C28BF1024E4B2E7
:101C4C003746A4B2BB1B9BB29C42C4D9922000F075
:101C5C0021F907F8010BF5E70124F1E730B50C4643
:101C6C00054685B007211A2000F0FCF80DF10E0393
:101C7C00009325702346012221460C20FFF765FFB7
:101C8C0030B9BDF80E30102B18BF022005B030BD96
:101C9C000220FBE730B50021044685B01A2000F085
:101CAC00E1F893232370202363700DF10E0300934E
:101CBC000222234621460C20FFF747FF60B903465A
:101CCC00621EE11C12F8015F8A4283EA0503F9D116
:101CDC0022799A4218BF022005B030BDF8B50446EF
:101CEC000E46052004211746FFF722FF80210A200B
:101CFC00FFF711FF013E651E3444A54216D10321A6
:101D0C00022000F0AFF8FF248A20013C00F0C2F85A
:101D1C0014F0FF0401D04307F6D5C42000F0BAF844
:101D2C003870C22000F0B6F87870F8BD15F8011FB5
:101D3C00122000F097F8E0E70F21022000F092B893
:101D4C0008B5A82000F0A6F8830705D1BDE8084027
:101D5C0003211420FFF7DFBE08BD08B500F04EF8D4
:101D6C003220FEF701FCFFF7E7FF8D21542000F035
:101D7C0079F83E21562000F075F81E215A2000F00B
:101D8C0071F80021582000F06DF870214C2000F003
:101D9C0069F840212A2000F065F83D21222000F04E
:101DAC0061F8BDE80840FFF7CBBF1FB550238DF895
:101DBC000C3000230DF10E0203A802218DF80D301A
:101DCC00FFF78CFF0DF10A03009303AB04221946B5
:101DDC000C20FFF7BAFE05B05DF804FB38B50146E0
:101DEC0005462620FFF73AFF044618B92846FFF7A8
:101DFC0051FF0446FFF7D9FF204638BD08B54FF414
:101E0C00827E0D480D4B4FF4007280E80840002391
:101E1C0082618360C3600361436110220362436289
:101E2C0083620A23C261C362FFF779FA18B1BDE875
:101E3C000840FEF7C5BA08BDE400002000300140A0
:101E4C001FB564238DF80800009303AA012302A98F
:101E5C000348FFF79FFA9DF80C0005B05DF804FBF2
:101E6C00E400002070B506460D46094C00221021F6
:101E7C002046FEF7B7FC3046FFF7E2FF2846FFF797
:101E8C00DFFF2046BDE8704001221021FEF7AABCFE
:101E9C000008014038B50546094C002210212046A7
:101EAC00FEF7A0FC2846FFF7CBFF0020FFF7C8FF8A
:101EBC000546012220461021FEF794FC284638BD29
:101ECC0000080140F8B50421164602460E481F468C
:101EDC000024FEF787FC0C4D0023BB4208BFB44224
:101EEC0000D3F8BD012202212846FEF77BFC1A2004
:101EFC00FEF73AFB002202212846FEF773FC1A205B
:101F0C00FEF732FB0134E7E700080140014B18688B
:101F1C00704700BF0C00002070B500250C4E0D4C16
:101F2C00A41BA410A54209D100F0FEF800250A4E0E
:101F3C000A4CA41BA410A54205D170BD56F825303F
:101F4C0098470135EEE756F8253098470135F2E70A
:101F5C007C2100087C2100087C21000880210008DD
:101F6C00024B0146186800F06FB800BF0C0000204F
:101F7C00024B0146186800F01BB800BF0C00002093
:101F8C0010B501390244904201D1002010BD10F867
:101F9C00013B11F8014FA342F5D0181B10BD0346AD
:101FAC000244934200D1704703F8011BF9E700008B
:101FBC0038B50546002943D051F8043C0C1F002BC2
:101FCC00B8BFE41800F0AEF81E4A1368104633B9D7
:101FDC00636014602846BDE8384000F0A4B8A34202
:101FEC000BD921686218934201BF1A685B685218BA
:101FFC00226063600460EDE713465A680AB1A2429E
:10200C00FAD919685818A0420BD120680144581805
:10201C0082421960DED110685268014419605A601E
:10202C00D8E702D90C232B60D4E7206821188A4208
:10203C0001BF116852680918216062605C60C9E7D1
:10204C0038BD00BF3C01002070B5CD1C25F0030548
:10205C0008350C2D38BF0C25002D064601DBA94296
:10206C0003D90C233360002070BD00F05BF8234AC9
:10207C001468214691B9224C23681BB9304600F0F4
:10208C0041F820602946304600F03CF8431C26D12C
:10209C000C233046336000F046F8E4E70B685B1B1A
:1020AC001AD40B2B0FD90B60CC18CD50304600F046
:1020BC003AF804F10B00231D20F00700C31A1BD0C3
:1020CC005A42E25070BD8C420BBF63684B68136080
:1020DC00636018BF0C46E9E70C464968CAE7C41CA4
:1020EC0024F00304A04205D0211A304600F00AF86F
:1020FC000130CDD02560D9E770BD00BF3C01002078
:10210C004001002038B50023054C054608462360E5
:10211C00FEF73CF8431C02D1236803B12B6038BD99
:10212C006801002070477047F8B500BFF8BC08BCC8
:10213C009E467047F8B500BFF8BC08BC9E46704779
:10214C0002030405060708090A0B0C0D0E0F1010EC
:10215C005374617274000000000000000000010262
:10216C000304060708090000000001020304000034
:04217C003101000825
:042180000D01000845
:102184000024F400010000001000000010000020F2
:10219400000000000000000000000000000000003B
:1021A400000000000000000000000000000000002B
:1021B400000000000000000000000000000000001B
:1021C400000000000000000000000000000000000B
:1021D40000000000000000000000000000000000FB
:1021E40000000000000000000000000000000000EB
:040000050800014DA1
:00000001FF
