:020000040800F2
:10000000005000204D010008C9030008CB03000880
:10001000CD030008CF030008D10300080000000052
:10002000000000000000000000000000D3030008F2
:10003000D503000800000000D7030008D90300081A
:100040009501000895010008950100089501000838
:100050009501000895010008950100089501000828
:100060009501000895010008950100089501000818
:100070009501000895010008950100089501000808
:1000800095010008950100089501000895010008F8
:1000900095010008950100089501000895010008E8
:1000A00095010008950100089501000895010008D8
:1000B00095010008950100089501000895010008C8
:1000C00095010008950100089501000895010008B8
:1000D00095010008950100089501000895010008A8
:1000E0009501000895010008950100080000000036
:1000F0000000000000000000000000000000000000
:0C01000000000000000000005FF808F1A3
:10010C0010B5054C237833B9044B13B10448AFF345
:10011C0000800123237010BD70000020000000003F
:10012C006C1D000808B5034B1BB103490348AFF322
:10013C00008008BD00000000740000206C1D000849
:10014C00002103E00B4B5B58435004310A480B4B26
:10015C0042189A42F6D30A4A02E0002342F8043BC2
:10016C00084B9A42F9D300F033F901F055FD00F039
:10017C005DF87047BC1D00080000002070000020D6
:10018C00700000206C010020FEE7000008B50A4B4F
:10019C000246196809B90949196069461868024488
:1001AC008A4206D901F032FD0C2303604FF0FF3078
:1001BC0008BD1A6008BD00BF8C0000206C01002037
:1001CC00282230B595B00DEB0200002101F050FD56
:1001DC00142210250DEB0200002101F049FD2A46E6
:1001EC00002101A801F044FD012302240E934FF4D9
:1001FC0060130AA813930A940F95119400F000FD54
:10020C000F234FF4806205930023214605A8079322
:10021C0008920993069400F0CDFE4FF4004301A818
:10022C000194039300F074FF15B030BDF8B500F0E5
:10023C0019F9FFF7C5FF01F0C3F901F030FC01F02B
:10024C00B9FA01F065F90221012001F0EEFA154826
:10025C0001F0E2FA4FF47A7000F028F90023124C06
:10026C004FF4FA7023602371264600F01FF90F4FEC
:10027C00304601F055FC0028FAD12378002BF7D03A
:10028C000A254FF40051384600F065FA013D4FF451
:10029C00FA7000F00BF915F0FF05F2D1256025710D
:1002AC00E6E700BF941D0008480100200010014043
:1002BC00704700000A4B82B09A6942F001029A61C1
:1002CC009A6902F001020092009ADA6942F08052B7
:1002DC00DA61DB6903F080530193019B02B0704734
:1002EC000010024010B5044686B01022002102A86E
:1002FC0001F0BEFC2268114B9A421CD1104C02A991
:10030C00A369104843F00803A361A36903F0080331
:10031C000093009BC02302931223039303230593A2
:10032C0000F032F9E36943F40013E361E36903F489
:10033C0000130193019B06B010BD00BF0054004098
:10034C0000100240000C014010B5044686B010228B
:10035C00002102A801F08CFC2268164B9A4226D18F
:10036C0003F560439A6902A942F480529A619A6932
:10037C00114802F480520092009A9A6942F00402E9
:10038C009A619B6903F004030193019BA0230293E0
:10039C00022303930323059300F0F6F84023029302
:1003AC00002302A904480393049300F0EDF806B06F
:1003BC0010BD00BF00300140000801407047FEE74F
:1003CC00FEE7FEE7FEE770477047704700F05CB849
:1003DC000F4B1A6842F001021A6059680D4A0A4024
:1003EC005A601A6822F0847222F480321A601A68F9
:1003FC0022F480221A605A6822F4FE025A604FF4EA
:10040C001F029A604FF00062034B9A60704700BF66
:10041C00001002400000FFF800ED00E038B50E4B74
:10042C00054618784FF47A73B3FBF0F30B4A106857
:10043C00B0FBF3F000F092F8044658B90F2D09D830
:10044C00024629464FF0FF3000F054F8044B20468A
:10045C001D6038BD012038BD0400002000000020C4
:10046C0008000020074A08B51368032043F0100366
:10047C00136000F02DF80020FFF7D0FFFFF71AFFF4
:10048C00002008BD00200240034A044B11681B7871
:10049C000B441360704700BF64010020040000206F
:1004AC00014B1868704700BF6401002038B5044642
:1004BC00FFF7F6FF0546631C1EBF044B1B78E418C0
:1004CC00FFF7EEFF401B8442FAD838BD0400002031
:1004DC00074A0002D36800F4E06023F4E0631B04D5
:1004EC001B0C43F0BF6343F400330343D3607047EA
:1004FC0000ED00E0174B30B5DC68C4F30224C4F106
:10050C000703251D042B28BF0423062D4FF00105DE
:10051C0098BF002405FA03F303F1FF3388BF033CB3
:10052C001940A14005FA04F4013C2240002842EA9B
:10053C0001024FEA0212A9BF00F16040064BD2B291
:10054C0000F56140BBBF00F00F00D2B280F8002371
:10055C001A5430BD00ED00E014ED00E00138B0F1AC
:10056C00807F0AD2F021064B064A586082F823108D
:10057C000020072298601A6070470120704700BF66
:10058C0010E000E000ED00E02DE9F74F00242646D6
:10059C00664BDFF8A8E1DFF8A8C10A6832FA06F565
:1005AC0002D103B0BDE8F08F4FF0010808FA06F84D
:1005BC0002EA080290457FD14D68122D00F0AA8006
:1005CC0000F28380022D00F0A28077D8002D00F07D
:1005DC008980012D00F099804FF00F09FF2A93BFFD
:1005EC00824606F18045083DD0F800B092BFB500B8
:1005FC00D0F804B0AD0009FA05F82BEA080804FAA3
:10060C0005F588BF00F1040A48EA0505CAF8005050
:10061C00D1F804A01AF0805F4ED0454D444FAD691F
:10062C0026F0030845F00105BD61BD6908F180485D
:10063C0005F00105019508F5803806F0030B019DC6
:10064C004FEA8B0BD8F8085009FA0BF925EA09097F
:10065C00384DA84263D005F58065A84261D005F5F8
:10066C008065A8425FD005F58065A8420CBF0325C4
:10067C00042505FA0BF545EA0905C8F808501D686C
:10068C001AF4803F14BF154395431D605D681AF43E
:10069C00003F14BF154395435D609D681AF4801F9D
:1006AC0014BF154395439D60DD681AF4001F14BFF9
:1006BC002A4325EA0202DA6001366EE7032D22D0C6
:1006CC00112D89D1CC68043486E71B4FBD4209D06B
:1006DC0012D8DFF870904D4504D009F580394D459E
:1006EC007FF47AAF8C68C4B1012C0CBFC0F81080B9
:1006FC00C0F8148008246FE77545F3D06545F1D038
:10070C00DFF84490EBE7002466E7CC6864E7CC683C
:10071C00083461E7CC680C345EE704245CE7002500
:10072C00A7E70125A5E70225A3E700BF00040140C8
:10073C0000100240000801400000211000003110A0
:10074C000000321000001110000022100AB10161EB
:10075C0070470904FBE7C3680B4214BF4161016198
:10076C007047016800224B6913F4806310D06FF45A
:10077C0080634B612023026380F83D3080F83E207B
:10078C00036C80F83C2043F00403036401207047A1
:10079C00184670472DE9F843044617469946C1F3AD
:1007AC0007488EB22568B8F1010F0CBF6B69AB69B5
:1007BC0036EA030314BF0120002008B9BDE8F88312
:1007CC006B695A0516D52B68202243F400732B60F5
:1007DC006FF480636B610023236384F83D2084F8FD
:1007EC003E30226C42F00402226484F83C3001203A
:1007FC00BDE8F8837B1CD5D0FFF752FEA0EB0900B7
:10080C00874201D3002FCDD100232022236384F80B
:10081C003D2084F83E30226C42F02002E4E770B5B3
:10082C0004460D46164623685B695B0701D500201C
:10083C0070BD2046FFF795FFA8B96A1CF3D0FFF7EF
:10084C002FFE801B854201D3002DECD100232022EA
:10085C00236384F83D2084F83E30226C84F83C30CD
:10086C0042F020022264012070BD2DE9F8430446B9
:10087C0090461F46089EC1F307498DB22368B9F113
:10088C00010F0CBF5B699B6935EA03030CBF0123A5
:10089C000023434502D00020BDE8F8837B1CEDD03B
:1008AC00FFF7FEFD801B874201D3002FE6D100230A
:1008BC002022236384F83D2084F83E30226C84F897
:1008CC003C3042F0200222640120BDE8F88370B570
:1008DC0004460D46164623685B691B0601D50020AD
:1008EC0070BD2046FFF73DFFA8B96A1CF3D0FFF797
:1008FC00D7FD801B854201D3002DECD10023202293
:10090C00236384F83D2084F83E30226C84F83C301C
:10091C0042F020022264012070BD000070B5044634
:10092C0008B9012070BD90F83D3003F0FF021BB9EF
:10093C0080F83C20FFF7D6FC2423226884F83D3055
:10094C00136823F00103136000F0D2FB6568414B80
:10095C009D424DD8404B9842E3D940492268B0FBA8
:10096C00F1F1536823F03F030B435360136A23F0F8
:10097C003F03013119431162D169364B21F44F41C8
:10098C009D4221F0FF0100F1FF3048D86D00B0FB13
:10099C00F5F00130C0F30B03042B38BF04230B43D9
:1009AC00D3611168206AE36921F0C00103430B4352
:1009BC0013609168E068236921F40341034321F03B
:1009CC00FF010B439360D168A069636921F0FF01BB
:1009DC0003430B43D3601368002043F001031360FF
:1009EC002023206484F83D30206384F83E0070BDE1
:1009FC001B4B984295D9194E4FF49671B0FBF6F6F5
:100A0C0022687143536823F03F0333434FF47A76E3
:100A1C005360136AB1FBF6F123F03F03A9E7A36817
:100A2C0053B905EB4503B0FBF3F0431CC3F30B03C5
:100A3C006BB143F40043B2E719236B43B0FBF3F003
:100A4C00431CC3F30B0313B143F44043A7E7012347
:100A5C00A5E700BFA08601007F841E0040420F0066
:100A6C00FF083D002DE9FF4104461F460D46904608
:100A7C00FFF716FD94F83D300646202B04D00225D6
:100A8C00284604B0BDE8F081009019230122584992
:100A9C002046FFF7EAFE0028F1D194F83C30012BF8
:100AAC00EDD0012384F83C3023681A68D2075EBF6E
:100ABC001A6842F001021A601A6822F400621A6085
:100ACC00212284F83D20102284F83E20002222644A
:100ADC006785628DC4F824802285464AE262E26A08
:100AEC00082A04D0012A02D012F5803F04D11A68DA
:100AFC0042F480721A6002E0226B122AF7D0009640
:100B0C000A9B00224FF001112046FFF7AEFE08B100
:100B1C000125B5E723692268B3F5804F13D105F0A1
:100B2C00FE05156133460A9A33492046FFF732FE1B
:100B3C0005460028ECD1236803905A6903929B69FF
:100B4C000393039B44E0EB1103F0060343F0F00323
:100B5C0013612A4933460A9A2046FFF71BFE0028E8
:100B6C00D6D12368EDB21D61DCE732460A992046E6
:100B7C00FFF7ADFE40B1236C042B01BF2268136854
:100B8C0043F400731360C3E7636A20681A4612F8D3
:100B9C00011B01616262628D013A92B26285228D03
:100BAC004769511E89B27F0721850AD549B1597809
:100BBC00023301616362638D023A013B9BB2638530
:100BCC00228532460A992046FFF729FE0028D2D109
:100BDC00238D002BC9D121680A6842F400720A6087
:100BEC00202284F83C3084F83D2084F83E3047E7DE
:100BFC00020010000000FFFF0200010008000100CD
:100C0C002DE9F341054608B901203CE00368DB07F8
:100C1C0010D42B689F075DD42B68190700F19480C2
:100C2C002B685A0700F1BE80E869002840F02C813F
:100C3C00002028E08F4C636803F00C03042B07D0D2
:100C4C00636803F00C03082B09D16368DE0306D537
:100C5C0023689C03DDD56B68002BDAD1D4E76B6875
:100C6C00B3F5803F12D1236843F480332360FFF740
:100C7C0017FC064623689803CBD4FFF711FC801BA6
:100C8C006428F7D9032002B0BDE8F0819BB9236832
:100C9C0023F480332360236823F480232360FFF73D
:100CAC00FFFB064623689903B3D5FFF7F9FB801BBE
:100CBC006428F7D9E6E7B3F5A02F236803D143F4F2
:100CCC0080232360CFE723F480332360236823F44D
:100CDC008023CBE7674C636813F00C0F07D0636875
:100CEC0003F00C03082B10D16368DA030DD42368CE
:100CFC009B0702D52B69012B86D123686A6923F0E7
:100D0C00F80343EAC203236086E72A695A4B6AB1A7
:100D1C0001221A60FFF7C4FB064623689F07ECD438
:100D2C00FFF7BEFB801B0228F7D9ABE71A60FFF771
:100D3C00B7FB0646236898077FF56EAFFFF7B0FB4D
:100D4C00801B0228F6D99DE7AA694A4C4B4BDAB1B5
:100D5C0001221A60FFF7A4FB0646636A9B070DD5B8
:100D6C004FF4FA52464B1B68B3FBF2F3019300BFEE
:100D7C00019B5A1E0192002BF9D151E7FFF790FB12
:100D8C00801B0228E9D97DE71A60FFF789FB06462C
:100D9C00636A9F077FF544AFFFF782FB801B022835
:100DAC00F6D96FE7334CE369D80024D40127E36903
:100DBC0043F08053E361E36903F080530093009B9D
:100DCC00304E3368D90518D5EB68012B26D1236A30
:100DDC0043F001032362FFF763FB41F28836804640
:100DEC00236A9B073FD5002F3FF41EAFE36923F026
:100DFC008053E36118E70027E2E7336843F480731C
:100E0C003360FFF74DFB80463368DA05DCD4FFF71F
:100E1C0047FBA0EB08006428F6D933E7ABB9236A8B
:100E2C0041F2883823F001032362236A23F0040380
:100E3C002362FFF735FB0646236A9807D3D5FFF7E5
:100E4C002FFB801B4045F7D91CE7052B236A03D1E8
:100E5C0043F004032362BAE723F001032362236AFD
:100E6C0023F00403B6E7FFF71BFBA0EB0800B0422E
:100E7C00B6D907E70010024000004242800442420B
:100E8C0000000020007000402A4B5A681C4602F0FB
:100E9C000C02082A3DD00023274E022833602BD1A8
:100EAC00FFF7FEFA0746236899011FD42B6AB3F5A6
:100EBC00803F05D16268A96822F400320A4362605F
:100ECC00696A62680B4322F4741213436360012352
:100EDC003360FFF7E5FA054623689A013FF5A8AEA3
:100EEC00FFF7DEFA401B0228F6D9CBE6FFF7D8FA5B
:100EFC00C01B0228D7D9C5E6FFF7D2FA05462368EE
:100F0C009B017FF595AEFFF7CBFA401B0228F6D973
:100F1C00B8E601283FF4B7AE58682B6A00F480326B
:100F2C009A427FF471AE6B6A00F47010C01A18BF4D
:100F3C000120A8E6001002406000424230B5194B77
:100F4C0087B002AC03F110052246186859680833C3
:100F5C0003C2AB421446F7D101238DF804300223AF
:100F6C0011498DF805304B6803F00C02082A17D193
:100F7C00C3F3834206A80244DB0312F8102C0CD5F1
:100F8C004B680A48C3F34043504306AA134413F872
:100F9C00143CB0FBF3F007B030BD05485043FAE702
:100FAC000248F8E7841D00080010024000127A0085
:100FBC0000093D002DE9F0410D46044610B9012011
:100FCC00BDE8F081454A136803F007038B4229D32F
:100FDC0021688E0731D4CA0744D4404A136803F001
:100FEC0007039D4267D322683D4D12F0040F6ED16A
:100FFC00130706D56B68226923F4605343EAC203D6
:10100C006B60FFF79BFF6B68364AC3F30313D35C2B
:10101C00D840354B1860354B1868FFF7FFF90020A6
:10102C00BDE8F081136823F007030B4313601368CA
:10103C0003F007039942C2D1CAE7294B11F0040F00
:10104C001EBF5A6842F4E0625A60080742BF5A68F1
:10105C0042F460525A605A68A06822F0F0020243CF
:10106C005A60B8E762681E4E012A33681BD113F42C
:10107C00003FA4D0736841F2883823F00303134374
:10108C007360FFF70DFA07467368626803F00C0390
:10109C00B3EB820FA1D0FFF703FAC01B4045F3D985
:1010AC000320BDE8F081022A02D113F0007FE0E7B3
:1010BC0013F0020FDDE7136823F007032B431360D3
:1010CC00136803F007039D427FF479AF8BE76B68DD
:1010DC00E16823F4E0630B436B6089E70020024076
:1010EC00001002409A1D000800000020080000209B
:1010FC00044B054A5B68C3F30223D35C034A1068B4
:10110C00D840704700100240AA1D000800000020C3
:10111C0003682DE9F341D907054620D5354CE36921
:10112C00DA0032D40127E36943F08053E361E369C9
:10113C0003F080530193019B2F4E3368DB0526D5BA
:10114C00236A13F4407336D1236A6A6823F440731C
:10115C00134323621FB1E36923F08053E3612868D2
:10116C00830706D5234AA968536823F440430B43ED
:10117C00536010F010001BD01E4AE9685368002021
:10118C0023F480030B43536012E00027D4E7336849
:10119C0043F480733360FFF783F980463368D805D6
:1011AC00CED4FFF77DF9A0EB08006428F6D9032014
:1011BC0002B0BDE8F0816A6802F440729342C3D079
:1011CC0001200E4A236A1060002023F44071106045
:1011DC002162D907B8D5FFF763F941F28838064682
:1011EC00236A9A07B0D4FFF75BF9801B4045F7D907
:1011FC00DDE700BF00100240007000404004424296
:10120C00F8B504460E4615461F4621688A6836EA2C
:10121C00020301D00020F8BD6B1CF7D0FFF740F99A
:10122C00C01B8542F1D823685A6822F0E0025A604C
:10123C006268B2F5827F0AD1A268B2F5004F02D083
:10124C00B2F5806F03D11A6822F040021A60A26ACC
:10125C00B2F5005F07D11A6822F400521A601A68BE
:10126C0042F400521A60012384F851300023032009
:10127C0084F85030F8BD10B513460A468021044658
:10128C00FFF7BEFF20B10320636D43F020036365BD
:10129C0010BD10B50446002834D00023836290F8AA
:1012AC00513003F0FF021BB980F85020FFF74CF8C7
:1012BC000223226884F851301368A06823F040039D
:1012CC0013606368A1690343E06803432069034327
:1012DC0060690343E0690343206A0343A06A034344
:1012EC0001F40070090C034301F004011360516018
:1012FC00D369002023F40063D3610123606584F873
:10130C00513010BD012010BD2DE9F7431E4690F859
:10131C0050300446012B0D4691460A9F00F0E280A6
:10132C00012380F85030FFF7BBF894F85130804619
:10133C00DBB2012B61680AD0B1F5827F40F0D0801E
:10134C00A068002840F0CC80042B40F0C980002D10
:10135C0000F0C480B9F1000F00F0C080002E00F046
:10136C00BD8094F85130C4F83890042B1CBF052371
:10137C0084F8513000236365236463642368E68733
:10138C00E6861A68A687500658BF1A68256358BFA8
:10139C0042F04002A68658BF1A60E268B2F5006FB0
:1013AC0058D109B1012E07D135F8022BDA60E38E42
:1013BC002563013B9BB2E3860125E38E9BB2ABB95F
:1013CC00E38F9BB293B9424639462046FFF753FF51
:1013DC00002840F08180A368002B32D12368019053
:1013EC00DA6801929B680193019B2AE0226893685A
:1013FC0099070DD5E38E9BB253B14DB10025236BEC
:10140C0033F8021BD1602363E38E013B9BB2E3866E
:10141C009368DB070CD5E38F9BB24BB10125D268E7
:10142C00A36B23F8022BA363E38F013B9BB2E387EF
:10143C00FFF736F8A0EB08008742BED87E1CBCD064
:10144C000320012384F85130002384F8503003B07A
:10145C00BDE8F08309B1012E08D12A781A73236BE9
:10146C0001332363E38E013B9BB2E3860125E38EBC
:10147C009BB21BB9E38F9BB2002BA4D0226893685C
:10148C0098070ED5E38E9BB25BB155B10025236B4B
:10149C001B781373236B01332363E38E013B9BB2E5
:1014AC00E38622689368D9070DD5E38F9BB253B1BD
:1014BC000125D268A36B1A70A36B0133A363E38F6E
:1014CC00013B9BB2E387FEF7EBFFA0EB08008742E2
:1014DC00CDD87B1CCBD0B3E7202363650120B0E7CC
:1014EC000220AEE70220B2E770B506462020144673
:1014FC001D4600F0B5FB00214671C0E90445DDE94D
:10150C0004450171C0E902458161C16170BD0000F3
:10151C002DE9F7434FF47A6400252246CDE90045C6
:10152C002B460120FFF7E0FFDFF88C90CDE900455A
:10153C00C9F8000022462B460220FFF7D5FFDFF842
:10154C007C80CDE90045C8F8000022462B460320DC
:10155C00FFF7CAFF144F224638602B46CDE90045F1
:10156C000420FFF7C1FF114ECDE900453060224643
:10157C002B460520FFF7B8FF0D4B3268D8F800401A
:10158C0039681860D9F800309C61D861A161E361B9
:10159C008A61CC619061D161C261064A836113603A
:1015AC0003B0BDE8F08300BF580100205C010020AF
:1015BC005401002044010020600100205001002053
:1015CC002DE9F04387B01022002102A800F050FB57
:1015DC003F4B404E9A69404F42F004029A619A691F
:1015EC00304602F004020092009A9A69DFF8EC90FF
:1015FC0042F008029A619B69012203F008030193EF
:10160C001621019BFFF7A2F8384600224BF220016D
:10161C00FFF79CF8484600224FF40051FFF796F86C
:10162C00002230464FF4E061FFF790F800240125CA
:10163C0040F216234FF0030802A930460293CDF86E
:10164C00148003950494FEF79FFF44F6034302A90C
:10165C003846029303940494FEF796FF4FF43043FC
:10166C0002A938460293CDF8148003954FF0020876
:10167C000494FEF789FF4FF4A06302A9304602934D
:10168C0003950494CDF81480FEF77EFF4FF4C053FD
:10169C0002A93046029303940494FEF775FF2023AD
:1016AC0002A93846029303950494CDF81480FEF7F2
:1016BC006BFF4FF4005302A9484602930395049420
:1016CC00CDF81480FEF760FF07B0BDE8F08300BFD3
:1016DC000010024000080140000C014000100140C5
:1016EC0008B50C480C4BDFF834E04FF4804280E82E
:1016FC000840002302618360C36043618361C3615E
:10170C000362FFF70BF918B1BDE80840FEF7D0BD36
:10171C0008BD00BF9000002000540040A0860100CE
:10172C00642307B5009313460A4601460248FFF7A7
:10173C0099F903B05DF804FB9000002007B500F0A8
:10174C00F00343F00C028DF8042004220001C0B217
:10175C0043F008038DF8053040F00C0340F008000E
:10176C008DF807000DEB02014E208DF80630FFF7C7
:10177C00D7FF03B05DF804FB07B500F0F00343F0AE
:10178C000D028DF8042004220001C0B243F00903BD
:10179C008DF8053040F00D0340F009008DF807007E
:1017AC000DEB02014E208DF80630FFF7B9FF03B0A8
:1017BC005DF804FB08B5FFF793FF3220FEF776FEC9
:1017CC003320FFF7BBFF3220FFF7B8FF3220FEF7C4
:1017DC006DFE2820FFF7B2FF3220FEF767FE0120D6
:1017EC00FFF7ACFF3220FEF761FE0620FFF7A6FFE5
:1017FC003220FEF75BFE0C20FFF7A0FF3220FEF735
:10180C0055FE0220FFF79AFF3220FEF74FFEBDE88F
:10181C0008408020FFF792BF10B5441E14F8010F4A
:10182C0000B910BDFFF7A8FFF8E7012815BF01F1BB
:10183C004000803960F07F00C8B218BFC0B2FFF71B
:10184C007DBF400000F07E0000F0B0B9400000F019
:10185C007E0040F0800000F0C1B938B505460C465A
:10186C00FFF7F4FF40EA0401C9B22846BDE838404E
:10187C00FFF7E7BF38B505460C46FFF7E7FF20EA50
:10188C000401C9B22846BDE83840FFF7DABF2DE99C
:10189C00F84F0C2881460F4692461E46DDF82880EC
:1018AC003ED00E283FD000252C4644F08001042069
:1018BC0000F07CF980210420FFF7DCFF80210A2056
:1018CC00FFF7CBFF0021022000F070F9BB461FFA96
:1018DC008AFAABEB07039BB29A4527D849460220FC
:1018EC0000F064F9B9F10C0F03D180210D20FFF742
:1018FC00B4FF4FF4FA6745F0010A882000F06EF946
:10190C00013FBFB2054617B110EA0A0FF5D080218E
:10191C000D20FFF7AFFF7FB902252846BDE8F88FF1
:10192C0030257724C1E710251224BEE71BF8011BD4
:10193C00122000F03BF9CCE78C2000F04FF910F0AE
:10194C001B0FE9D104F00104B9F10C0F05EA0405F1
:10195C00E3D1942000F042F90446982000F03EF9BF
:10196C0010F007001BBF04F1FF3300EBC300E300D2
:10197C00A8F8000008BFA8F800307CB1102C28BFD4
:10198C001024E4B23746A4B2BB1B9BB29C42C4D910
:10199C00922000F023F907F8010BF5E70124F1E799
:1019AC0030B50C46054685B007211A2000F0FEF82C
:1019BC000DF10E03009325702346012221460C20C5
:1019CC00FFF765FF30B9BDF80E30102B18BF0220A1
:1019DC0005B030BD0220FBE730B50021044685B0D0
:1019EC001A2000F0E3F893232370202363700DF189
:1019FC000E0300930222234621460C20FFF747FFDB
:101A0C0060B90346621EE11C12F8015F8A4283EA48
:101A1C000503F9D122799A4218BF022005B030BDD6
:101A2C00F8B504460E46052004211746FFF722FFA1
:101A3C0080210A20FFF711FF013E651E3444A542A8
:101A4C0016D10321022000F0B1F8FF248A20013CBA
:101A5C0000F0C4F814F0FF0401D04307F6D5C420FD
:101A6C0000F0BCF83870C22000F0B8F87870F8BDFF
:101A7C0015F8011F122000F099F8E0E70F21022061
:101A8C0000F094B808B5A82000F0A8F8830705D199
:101A9C00BDE8084003211420FFF7DFBE08BD08B5E0
:101AAC0000F04EF83220FEF701FDFFF7E7FF8D2125
:101ABC00542000F07BF83E21562000F077F81E21D0
:101ACC005A2000F073F80021582000F06FF87021B4
:101ADC004C2000F06BF840212A2000F067F83D21E3
:101AEC00222000F063F8BDE80840FFF7CBBF1FB51C
:101AFC0050238DF80C3000230DF10E0203A80221A7
:101B0C008DF80D30FFF78CFF0DF10A03009303AB3A
:101B1C00042219460C20FFF7BAFE05B05DF804FB51
:101B2C0038B5014605462620FFF73AFF044618B99A
:101B3C002846FFF751FF0446FFF7D9FF204638BD72
:101B4C0008B54FF4827E0D480D4B4FF4007280E8BF
:101B5C000840002382618360C360036143611022EB
:101B6C000362436283620A23C261C362FFF791FB83
:101B7C0018B1BDE80840FEF79BBB08BDE40000208F
:101B8C00003001401FB54FF47A738DF808000093B4
:101B9C0003AA012302A90448FFF7B6FB9DF80C0029
:101BAC0005B05DF804FB00BFE400002070B50646EC
:101BBC000D46094C002210212046FEF7C7FD304689
:101BCC00FFF7E0FF2846FFF7DDFF2046BDE8704039
:101BDC0001221021FEF7BABD0008014038B50546B8
:101BEC00094C002210212046FEF7B0FD2846FFF7D5
:101BFC00C9FF0020FFF7C6FF054601222046102131
:101C0C00FEF7A4FD284638BD00080140014B1868BA
:101C1C00704700BF0C00002070B500250C4E0D4C19
:101C2C00A41BA410A54209D100F09AF800250A4E75
:101C3C000A4CA41BA410A54205D170BD56F8253042
:101C4C0098470135EEE756F8253098470135F2E70D
:101C5C00B41D0008B41D0008B41D0008B81D000810
:101C6C00024B0146186800F00BB800BF0C000020B6
:101C7C0003460244934200D1704703F8011BF9E775
:101C8C0070B5CD1C25F0030508350C2D38BF0C257F
:101C9C00002D064601DBA94203D90C23336000203A
:101CAC0070BD00F05BF8234A1468214691B9224CB0
:101CBC0023681BB9304600F041F8206029463046B5
:101CCC0000F03CF8431C26D10C233046336000F066
:101CDC0046F8E4E70B685B1B1AD40B2B0FD90B608F
:101CEC00CC18CD50304600F03AF804F10B00231D0F
:101CFC0020F00700C31A1BD05A42E25070BD8C4230
:101D0C000BBF63684B681360636018BF0C46E9E750
:101D1C000C464968CAE7C41C24F00304A04205D051
:101D2C00211A304600F00AF80130CDD02560D9E7F1
:101D3C0070BD00BF3C0100204001002038B50023DD
:101D4C00054C054608462360FEF720FA431C02D1D9
:101D5C00236803B12B6038BD6801002070477047C1
:101D6C00F8B500BFF8BC08BC9E467047F8B500BF7C
:081D7C00F8BC08BC9E4670474C
:101D840002030405060708090A0B0C0D0E0F1010B8
:101D940048656C6C6F000000000000000000010248
:101DA4000304060708090000000001020304000000
:041DB40031010008F1
:041DB8000D01000811
:101DBC000024F400010000001000000010000020BE
:101DCC000000000000000000000000000000000007
:101DDC0000000000000000000000000000000000F7
:101DEC0000000000000000000000000000000000E7
:101DFC0000000000000000000000000000000000D7
:101E0C0000000000000000000000000000000000C6
:101E1C0000000000000000000000000000000000B6
:040000050800014DA1
:00000001FF
