:020000040800F2
:10000000005000204D010008A5030008A7030008C8
:10001000A9030008AB030008AD03000800000000BE
:10002000000000000000000000000000AF03000816
:10003000B103000800000000B3030008B503000886
:100040009501000895010008950100089501000838
:100050009501000895010008950100089501000828
:100060009501000895010008950100089501000818
:100070009501000895010008950100089501000808
:1000800095010008950100089501000895010008F8
:1000900095010008950100089501000895010008E8
:1000A00095010008950100089501000895010008D8
:1000B00095010008950100089501000895010008C8
:1000C00095010008950100089501000895010008B8
:1000D00095010008950100089501000895010008A8
:1000E0009501000895010008950100080000000036
:1000F0000000000000000000000000000000000000
:0C01000000000000000000005FF808F1A3
:10010C0010B5054C237833B9044B13B10448AFF345
:10011C0000800123237010BD70000020000000003F
:10012C00A022000808B5034B1BB103490348AFF3E9
:10013C00008008BD0000000074000020A022000810
:10014C00002103E00B4B5B58435004310A480B4B26
:10015C0042189A42F6D30A4A02E0002342F8043BC2
:10016C00084B9A42F9D300F021F901F063F900F041
:10017C0085F87047A42300080000002070000020C0
:10018C00700000208C010020FEE770B50E4615466D
:10019C000C46A31B9D4201DC284670BDAFF30080CA
:1001AC0004F8010BF5E770B50E4615460C46A31B7B
:1001BC009D4201DC284670BD14F8010BAFF30080A2
:1001CC00F5E7000008B50A4B0246196809B9094958
:1001DC0019606946186802448A4206D901F024F96C
:1001EC000C2303604FF0FF3008BD1A6008BD00BF40
:1001FC008C0000208C0100204FF0FF3070474FF432
:10020C00005300204B60704701207047002070475E
:10021C00282230B595B00DEB0200002101F02EF92B
:10022C00142210250DEB0200002101F027F92A46BB
:10023C00002101A801F022F9012302240E934FF4AE
:10024C0060130AA813930A940F95119400F0C0FC44
:10025C000F234FF4806205930023214605A80793D2
:10026C0008920993069400F08DFE4FF4004301A808
:10027C000194039300F034FF15B030BD07B500F0C6
:10028C00DFF8FFF7C5FF00F0A3FF01F085F80221AE
:10029C00012001F0BCF8164801F0B0F84FF47A7068
:1002AC0000F0F2F80023134C4FF4FA702360237122
:1002BC0000F0EAF8104D0221012001F0A8F82846C0
:1002CC0001F09CF80121022001F0A1F82079A3781B
:1002DC000190E078627800902178084801F0D6F817
:1002EC0000234FF4FA702360237100F0CDF8E2E79D
:1002FC00C822000804010020CE220008DA220008DF
:10030C00704700000A4B82B09A6942F001029A6170
:10031C009A6902F001020092009ADA6942F0805266
:10032C00DA61DB6903F080530193019B02B07047E3
:10033C000010024010B5044686B01022002102A81D
:10034C0001F09CF82268114B9A421CD1104C02A966
:10035C00A369104843F00803A361A36903F00803E1
:10036C000093009BC0230293122303930323059352
:10037C0000F0F8F8E36943F40013E361E36903F474
:10038C0000130193019B06B010BD00BF0054004048
:10039C0000100240000C01407047FEE7FEE7FEE74C
:1003AC00FEE770477047704700F05CB80F4B1A6857
:1003BC0042F001021A6059680D4A0A405A601A68E4
:1003CC0022F0847222F480321A601A6822F480229D
:1003DC001A605A6822F4FE025A604FF41F029A60A7
:1003EC004FF00062034B9A60704700BF0010024050
:1003FC000000FFF800ED00E038B50E4B054618780C
:10040C004FF47A73B3FBF0F30B4A1068B0FBF3F0C4
:10041C0000F092F8044658B90F2D09D80246294627
:10042C004FF0FF3000F054F8044B20461D6038BDEF
:10043C00012038BD0400002000000020080000202E
:10044C00074A08B51368032043F01003136000F04B
:10045C002DF80020FFF7D0FFFFF754FF002008BD58
:10046C0000200240034A044B11681B780B441360B4
:10047C00704700BF8401002004000020014B186865
:10048C00704700BF8401002038B50446FFF7F6FF23
:10049C000546631C1EBF044B1B78E418FFF7EEFFE8
:1004AC00401B8442FAD838BD04000020074A0002E1
:1004BC00D36800F4E06023F4E0631B041B0C43F0EE
:1004CC00BF6343F400330343D360704700ED00E097
:1004DC00174B30B5DC68C4F30224C4F10703251DA7
:1004EC00042B28BF0423062D4FF0010598BF0024D0
:1004FC0005FA03F303F1FF3388BF033C1940A14015
:10050C0005FA04F4013C2240002842EA01024FEAB9
:10051C000212A9BF00F16040064BD2B200F5614057
:10052C00BBBF00F00F00D2B280F800231A5430BDCC
:10053C0000ED00E014ED00E00138B0F1807F0AD24C
:10054C00F021064B064A586082F82310002007223F
:10055C0098601A6070470120704700BF10E000E0FF
:10056C0000ED00E02DE9F74F00242646664BDFF83E
:10057C00A8E1DFF8A8C10A6832FA06F502D103B087
:10058C00BDE8F08F4FF0010808FA06F802EA0802FD
:10059C0090457FD14D68122D00F0AA8000F2838027
:1005AC00022D00F0A28077D8002D00F08980012D5B
:1005BC0000F099804FF00F09FF2A93BF824606F195
:1005CC008045083DD0F800B092BFB500D0F804B01B
:1005DC00AD0009FA05F82BEA080804FA05F588BFFE
:1005EC0000F1040A48EA0505CAF80050D1F804A045
:1005FC001AF0805F4ED0454D444FAD6926F003088C
:10060C0045F00105BD61BD6908F1804805F00105A3
:10061C00019508F5803806F0030B019D4FEA8B0B12
:10062C00D8F8085009FA0BF925EA0909384DA842FF
:10063C0063D005F58065A84261D005F58065A842B8
:10064C005FD005F58065A8420CBF0325042505FA8B
:10065C000BF545EA0905C8F808501D681AF4803FE7
:10066C0014BF154395431D605D681AF4003F14BF19
:10067C00154395435D609D681AF4801F14BF1543A4
:10068C0095439D60DD681AF4001F14BF2A4325EAC8
:10069C000202DA6001366EE7032D22D0112D89D1CA
:1006AC00CC68043486E71B4FBD4209D012D8DFF862
:1006BC0070904D4504D009F580394D457FF47AAFE3
:1006CC008C68C4B1012C0CBFC0F81080C0F8148029
:1006DC0008246FE77545F3D06545F1D0DFF84490F9
:1006EC00EBE7002466E7CC6864E7CC68083461E784
:1006FC00CC680C345EE704245CE70025A7E70125F1
:10070C00A5E70225A3E700BF00040140001002404A
:10071C0000080140000021100000311000003210D0
:10072C0000001110000022100AB101617047090489
:10073C00FBE7016800224B6913F4806310D06FF45F
:10074C0080634B612023026380F83D3080F83E20AB
:10075C00036C80F83C2043F00403036401207047D1
:10076C00184670472DE9F843044617469946C1F3DD
:10077C0007488EB22568B8F1010F0CBF6B69AB69E5
:10078C0036EA030314BF0120002008B9BDE8F88342
:10079C006B695A0516D52B68202243F400732B6025
:1007AC006FF480636B610023236384F83D2084F82D
:1007BC003E30226C42F00402226484F83C3001206A
:1007CC00BDE8F8837B1CD5D0FFF758FEA0EB0900E1
:1007DC00874201D3002FCDD100232022236384F83C
:1007EC003D2084F83E30226C42F02002E4E770B5E4
:1007FC0004460D46164623685B695B0701D500204D
:10080C0070BD2046FFF795FFA8B96A1CF3D0FFF71F
:10081C0035FE801B854201D3002DECD10023202214
:10082C00236384F83D2084F83E30226C84F83C30FD
:10083C0042F020022264012070BD2DE9F8430446E9
:10084C0090461F46089EC1F307498DB22368B9F143
:10085C00010F0CBF5B699B6935EA03030CBF0123D5
:10086C000023434502D00020BDE8F8837B1CEDD06B
:10087C00FFF704FE801B874201D3002FE6D1002333
:10088C002022236384F83D2084F83E30226C84F8C7
:10089C003C3042F0200222640120BDE8F88370B5A0
:1008AC0004460D46164623685B691B0601D50020DD
:1008BC0070BD2046FFF73DFFA8B96A1CF3D0FFF7C7
:1008CC00DDFD801B854201D3002DECD100232022BD
:1008DC00236384F83D2084F83E30226C84F83C304D
:1008EC0042F020022264012070BD000070B5044665
:1008FC0008B9012070BD90F83D3003F0FF021BB920
:10090C0080F83C20FFF716FD2423226884F83D3044
:10091C00136823F00103136000F0D2FB6568414BB0
:10092C009D424DD8404B9842E3D940492268B0FBD8
:10093C00F1F1536823F03F030B435360136A23F028
:10094C003F03013119431162D169364B21F44F41F8
:10095C009D4221F0FF0100F1FF3048D86D00B0FB43
:10096C00F5F00130C0F30B03042B38BF04230B4309
:10097C00D3611168206AE36921F0C00103430B4382
:10098C0013609168E068236921F40341034321F06B
:10099C00FF010B439360D168A069636921F0FF01EB
:1009AC0003430B43D3601368002043F0010313602F
:1009BC002023206484F83D30206384F83E0070BD11
:1009CC001B4B984295D9194E4FF49671B0FBF6F625
:1009DC0022687143536823F03F0333434FF47A7614
:1009EC005360136AB1FBF6F123F03F03A9E7A36848
:1009FC0053B905EB4503B0FBF3F0431CC3F30B03F6
:100A0C006BB143F40043B2E719236B43B0FBF3F033
:100A1C00431CC3F30B0313B143F44043A7E7012377
:100A2C00A5E700BFA08601007F841E0040420F0096
:100A3C00FF083D002DE9FF4104461F460D46904638
:100A4C00FFF71CFD94F83D300646202B04D0022500
:100A5C00284604B0BDE8F0810090192301225849C2
:100A6C002046FFF7EAFE0028F1D194F83C30012B28
:100A7C00EDD0012384F83C3023681A68D2075EBF9E
:100A8C001A6842F001021A601A6822F400621A60B5
:100A9C00212284F83D20102284F83E20002222647A
:100AAC006785628DC4F824802285464AE262E26A38
:100ABC00082A04D0012A02D012F5803F04D11A680A
:100ACC0042F480721A6002E0226B122AF7D0009670
:100ADC000A9B00224FF001112046FFF7AEFE08B131
:100AEC000125B5E723692268B3F5804F13D105F0D2
:100AFC00FE05156133460A9A33492046FFF732FE4C
:100B0C0005460028ECD1236803905A6903929B692F
:100B1C000393039B44E0EB1103F0060343F0F00353
:100B2C0013612A4933460A9A2046FFF71BFE002818
:100B3C00D6D12368EDB21D61DCE732460A99204616
:100B4C00FFF7ADFE40B1236C042B01BF2268136884
:100B5C0043F400731360C3E7636A20681A4612F803
:100B6C00011B01616262628D013A92B26285228D33
:100B7C004769511E89B27F0721850AD549B1597839
:100B8C00023301616362638D023A013B9BB2638560
:100B9C00228532460A992046FFF729FE0028D2D139
:100BAC00238D002BC9D121680A6842F400720A60B7
:100BBC00202284F83C3084F83D2084F83E3047E70E
:100BCC00020010000000FFFF0200010008000100FD
:100BDC002DE9F341054608B901203CE00368DB0729
:100BEC0010D42B689F075DD42B68190700F19480F3
:100BFC002B685A0700F1BE80E869002840F02C8170
:100C0C00002028E08F4C636803F00C03042B07D002
:100C1C00636803F00C03082B09D16368DE0306D567
:100C2C0023689C03DDD56B68002BDAD1D4E76B68A5
:100C3C00B3F5803F12D1236843F480332360FFF770
:100C4C001DFC064623689803CBD4FFF717FC801BCA
:100C5C006428F7D9032002B0BDE8F0819BB9236862
:100C6C0023F480332360236823F480232360FFF76D
:100C7C0005FC064623689903B3D5FFF7FFFB801BE1
:100C8C006428F7D9E6E7B3F5A02F236803D143F422
:100C9C0080232360CFE723F480332360236823F47D
:100CAC008023CBE7674C636813F00C0F07D06368A5
:100CBC0003F00C03082B10D16368DA030DD42368FE
:100CCC009B0702D52B69012B86D123686A6923F017
:100CDC00F80343EAC203236086E72A695A4B6AB1D8
:100CEC0001221A60FFF7CAFB064623689F07ECD463
:100CFC00FFF7C4FB801B0228F7D9ABE71A60FFF79C
:100D0C00BDFB0646236898077FF56EAFFFF7B6FB71
:100D1C00801B0228F6D99DE7AA694A4C4B4BDAB1E5
:100D2C0001221A60FFF7AAFB0646636A9B070DD5E2
:100D3C004FF4FA52464B1B68B3FBF2F3019300BF1E
:100D4C00019B5A1E0192002BF9D151E7FFF796FB3C
:100D5C00801B0228E9D97DE71A60FFF78FFB064656
:100D6C00636A9F077FF544AFFFF788FB801B02285F
:100D7C00F6D96FE7334CE369D80024D40127E36933
:100D8C0043F08053E361E36903F080530093009BCD
:100D9C00304E3368D90518D5EB68012B26D1236A60
:100DAC0043F001032362FFF769FB41F2883680466A
:100DBC00236A9B073FD5002F3FF41EAFE36923F056
:100DCC008053E36118E70027E2E7336843F480734C
:100DDC003360FFF753FB80463368DA05DCD4FFF74A
:100DEC004DFBA0EB08006428F6D933E7ABB9236AB6
:100DFC0041F2883823F001032362236A23F00403B1
:100E0C002362FFF73BFB0646236A9807D3D5FFF70F
:100E1C0035FB801B4045F7D91CE7052B236A03D112
:100E2C0043F004032362BAE723F001032362236A2D
:100E3C0023F00403B6E7FFF721FBA0EB0800B04258
:100E4C00B6D907E70010024000004242800442423B
:100E5C0000000020007000402A4B5A681C4602F02B
:100E6C000C02082A3DD00023274E022833602BD1D8
:100E7C00FFF704FB0746236899011FD42B6AB3F5CF
:100E8C00803F05D16268A96822F400320A4362608F
:100E9C00696A62680B4322F4741213436360012382
:100EAC003360FFF7EBFA054623689A013FF5A8AECD
:100EBC00FFF7E4FA401B0228F6D9CBE6FFF7DEFA7F
:100ECC00C01B0228D7D9C5E6FFF7D8FA0546236818
:100EDC009B017FF595AEFFF7D1FA401B0228F6D99E
:100EEC00B8E601283FF4B7AE58682B6A00F480329C
:100EFC009A427FF471AE6B6A00F47010C01A18BF7E
:100F0C000120A8E6001002406000424230B5194BA7
:100F1C0087B002AC03F110052246186859680833F3
:100F2C0003C2AB421446F7D101238DF804300223DF
:100F3C0011498DF805304B6803F00C02082A17D1C3
:100F4C00C3F3834206A80244DB0312F8102C0CD521
:100F5C004B680A48C3F34043504306AA134413F8A2
:100F6C00143CB0FBF3F007B030BD05485043FAE732
:100F7C000248F8E7B82200080010024000127A007C
:100F8C0000093D002DE9F0410D46044610B9012041
:100F9C00BDE8F081454A136803F007038B4229D35F
:100FAC0021688E0731D4CA0744D4404A136803F031
:100FBC0007039D4267D322683D4D12F0040F6ED19A
:100FCC00130706D56B68226923F4605343EAC20306
:100FDC006B60FFF79BFF6B68364AC3F30313D35C5C
:100FEC00D840354B1860354B1868FFF705FA0020D0
:100FFC00BDE8F081136823F007030B4313601368FB
:10100C0003F007039942C2D1CAE7294B11F0040F30
:10101C001EBF5A6842F4E0625A60080742BF5A6821
:10102C0042F460525A605A68A06822F0F0020243FF
:10103C005A60B8E762681E4E012A33681BD113F45C
:10104C00003FA4D0736841F2883823F003031343A4
:10105C007360FFF713FA07467368626803F00C03BA
:10106C00B3EB820FA1D0FFF709FAC01B4045F3D9AF
:10107C000320BDE8F081022A02D113F0007FE0E7E3
:10108C0013F0020FDDE7136823F007032B43136003
:10109C00136803F007039D427FF479AF8BE76B680D
:1010AC00E16823F4E0630B436B6089E700200240A6
:1010BC0000100240E9220008000000200800002077
:1010CC00044B054A5B68C3F30223D35C034A1068E4
:1010DC00D840704700100240F922000800000020A0
:1010EC0003682DE9F341D907054620D5354CE36952
:1010FC00DA0032D40127E36943F08053E361E369FA
:10110C0003F080530193019B2F4E3368DB0526D5EA
:10111C00236A13F4407336D1236A6A6823F440734C
:10112C00134323621FB1E36923F08053E361286802
:10113C00830706D5234AA968536823F440430B431D
:10114C00536010F010001BD01E4AE9685368002051
:10115C0023F480030B43536012E00027D4E7336879
:10116C0043F480733360FFF789F980463368D80500
:10117C00CED4FFF783F9A0EB08006428F6D903203E
:10118C0002B0BDE8F0816A6802F440729342C3D0A9
:10119C0001200E4A236A1060002023F44071106075
:1011AC002162D907B8D5FFF769F941F288380646AC
:1011BC00236A9A07B0D4FFF761F9801B4045F7D931
:1011CC00DDE700BF001002400070004040044242C6
:1011DC002DE9F04186B01022002102A800F04EF952
:1011EC00354B364D9A69364E42F004029A619A6933
:1011FC00284602F004020092009A9A69162142F0E5
:10120C0008029A619B69012203F008030193019B78
:10121C00FFF78AFA304600224BF22001FFF784FADE
:10122C00002228464FF4E061FFF77EFA00240127E4
:10123C0040F216234FF0030802A928460293CDF87A
:10124C00148003970494FFF78DF944F6034302A925
:10125C003046029303940494FFF784F94FF430431F
:10126C0002A930460293CDF8148003974FF0020880
:10127C000494FFF777F94FF4A06302A92846029370
:10128C0003970494CDF81480FFF76CF94FF4C05316
:10129C0002A92846029303940494FFF763F92023D0
:1012AC0002A93046029303970494CDF81480FFF7FB
:1012BC0059F906B0BDE8F081001002400008014069
:1012CC00000C014008B50C480C4BDFF834E04FF42F
:1012DC00804280E80840002302618360C360436160
:1012EC008361C3610362FFF701FB18B1BDE80840DD
:1012FC00FFF706B808BD00BF900000200054004066
:10130C00A0860100642307B5009313460A460146E4
:10131C000248FFF78FFB03B05DF804FB9000002040
:10132C0007B500F0F00343F00C028DF80420042202
:10133C000001C0B243F008038DF8053040F00C03F7
:10134C0040F008008DF807000DEB02014E208DF8DF
:10135C000630FFF7D7FF03B05DF804FB07B500F0CC
:10136C00F00343F00D028DF8042004220001C0B2FA
:10137C0043F009038DF8053040F00D0340F00900EF
:10138C008DF807000DEB02014E208DF80630FFF7AB
:10139C00B9FF03B05DF804FB08B5FFF793FF3220EB
:1013AC00FFF772F83320FFF7BBFF3220FFF7B8FFCF
:1013BC003220FFF769F82820FFF7B2FF3220FFF741
:1013CC0063F80120FFF7ACFF3220FFF75DF8062031
:1013DC00FFF7A6FF3220FFF757F80C20FFF7A0FF0E
:1013EC003220FFF751F80220FFF79AFF3220FFF767
:1013FC004BF8BDE808408020FFF792BF10B5441EA3
:10140C0014F8010F00B910BDFFF7A8FFF8E7012889
:10141C0015BF01F14000803960F07F00C8B218BFE1
:10142C00C0B2FFF77DBF0000014B1868704700BFCA
:10143C000C00002070B500250C4E0D4CA41BA41004
:10144C00A54209D100F026FF00250A4E0A4CA41B28
:10145C00A410A54205D170BD56F82530984701352A
:10146C00EEE756F8253098470135F2E79C23000843
:10147C009C2300089C230008A02300080346024478
:10148C00934200D1704703F8011BF9E70FB40A4BE4
:10149C0013B51C6824B1A36913B9204600F04EF8AB
:1014AC0005AB049AA1682046019300F057F902B0ED
:1014BC00BDE8104004B070470C000020014900F05A
:1014CC00A9B800BF41200008002310B504460360F2
:1014DC004360836081814366C281036143618361A0
:1014EC00194608225C30FFF7C9FF054B2462636282
:1014FC00044BA362044BE362044B236310BD00BF97
:10150C00E51C0008071D00083F1D0008631D0008AE
:10151C0070B568254A1E55430E4605F1740100F05E
:10152C0097F8044640B1002180E842000C30A060DE
:10153C0005F16802FFF7A2FF204670BD836910B564
:10154C00044633BB8364C3640365124B124A1B68A5
:10155C008262984204BF0123836100F01FF860602F
:10156C00204600F01BF8A060204600F017F800227F
:10157C00E06004216068FFF7A7FF01220921A06841
:10158C00FFF7A2FF02221221E068FFF79DFF012363
:10159C00A36110BD04230008C9140008F8B51C4B46
:1015AC0007461E68B36913B93046FFF7C7FF4836C4
:1015BC00B4687368013B03D5336833B13668F7E719
:1015CC00B4F90C506DB16834F4E704213846FFF7D8
:1015DC009FFF30600028F1D10C2304463B6020466D
:1015EC00F8BD4FF6FF73E38101236566A381256087
:1015FC00A560656025616561A5610822294604F135
:10160C005C00FFF73BFF6563A563A564E564E6E753
:10161C00042300082DE9F84380468946002600F192
:10162C00480414B93046BDE8F883A5686768013FE3
:10163C0001D52468F5E7AB89012B07D9B5F90E3034
:10164C00013303D029464046C84706436835EEE7C8
:10165C0070B5CD1C25F0030508350C2D38BF0C25B5
:10166C00002D064601DBA94203D90C233360002070
:10167C0070BD00F08DFD234A1468214691B9224CAF
:10168C0023681BB9304600F017FB20602946304612
:10169C0000F012FB431C26D10C233046336000F0C3
:1016AC0078FDE4E70B685B1B1AD40B2B0FD90B608E
:1016BC00CC18CD50304600F06CFD04F10B00231D0E
:1016CC0020F00700C31A1BD05A42E25070BD8C4266
:1016DC000BBF63684B681360636018BF0C46E9E787
:1016EC000C464968CAE7C41C24F00304A04205D088
:1016FC00211A304600F0E0FA0130CDD02560D9E750
:10170C0070BD00BFE4000020E8000020936810B416
:10171C00013B002B936008DA9469A34202DBCBB245
:10172C000A2B02D110BC00F01BBB1368581C1060B4
:10173C001970C8B210BC7047F8B506460F4614466F
:10174C00D518AC4201D1002007E03A4614F8011B31
:10175C003046FFF7DBFF431CF3D1F8BD2DE9F04F0A
:10176C009DB00C4617460393064618B183690BB916
:10177C00FFF7E4FE7C4B9C4257D17468A389180791
:10178C005DD52369002B5AD00023099320238DF8B3
:10179C00293030234FF0010B8DF82A30B8464546DE
:1017AC0015F8013B002B55D1B8EB070A0BD053466B
:1017BC003A4621463046FFF7BFFF013000F0C480A7
:1017CC00099B5344099398F80030002B00F0BC801F
:1017DC0000234FF0FF3204930793059206938DF884
:1017EC0053301A9305222978604800F0C3FC05F1A8
:1017FC000108049B002831D1D90644BF20228DF862
:10180C0053201A0744BF2B228DF853202A782A2AFA
:10181C002CD000210A20079AA84698F800300135F0
:10182C00303B092B6DD971B326E0514B9C4201D151
:10183C00B468A3E74F4B9C4208BFF4689EE721466F
:10184C00304600F0F1FA00289ED04FF0FF301DB06A
:10185C00BDE8F08F252BA7D0A846A0E7434A454604
:10186C00801A0BFA00F018430490BBE7039A111D81
:10187C0012680391002A01DB079204E0524243F004
:10188C0002030792049398F800302E2B10D198F88D
:10189C00013008F101012A2B37D1039B08F1020812
:1018AC001A1D1B680392002BB8BF4FF0FF33059332
:1018BC00314D032298F80010284600F05BFC40B133
:1018CC004023401B03FA00F0049B08F1010803437A
:1018DC00049398F800100622284808F101078DF8A7
:1018EC00281000F047FC002834D0254B03BB039B89
:1018FC00073323F0070308330393099B4B440993E5
:10190C004CE700FB0232012186E700230A2518462A
:10191C000593884698F800200131303A092A03D9FA
:10192C00002BC5D00590C3E705FB00200123F0E791
:10193C0003AB00932246134B04A93046AFF300804F
:10194C00B0F1FF3F8146D8D1A3895B063FF57DAF4F
:10195C0009987CE703AB009322460A4B04A9304656
:10196C0000F08AF8ECE700BF282300086823000881
:10197C0048230008082300086E230008722300087F
:10198C0000000000451700082DE9F04791461F465E
:10199C008A680B6906469342B8BF1346C9F80030F3
:1019AC0091F843200C46DDF8208012B10133C9F8C0
:1019BC0000302368990642BFD9F800300233C9F8C9
:1019CC000030256815F0060507D104F1190AE36803
:1019DC00D9F800209B1A9D422ADB94F843302268E8
:1019EC00003318BF012392062FD404F14302394669
:1019FC003046C047013022D02368E56803F0060367
:101A0C00042B18BF0025D9F800204FF0000908BF9F
:101A1C00AD1AA368226908BF25EAE5759342C4BFD5
:101A2C009B1AED181A344D451BD10020BDE8F087E8
:101A3C000123524639463046C047013003D14FF09E
:101A4C00FF30BDE8F0870135C1E73020E11881F89F
:101A5C0043005A1C94F845102244023382F8431078
:101A6C00C3E70123224639463046C0470130E6D051
:101A7C0009F10109D7E700002DE9F04317460A7E6A
:101A8C0085B06E2A984606460C460C9B01F1430E17
:101A9C0000F0BC801AD8632A2ED00AD8002A00F095
:101AAC00C880582A00F08A8004F1420584F842204C
:101ABC002AE0642A01D0692AF6D121681A6811F04B
:101ACC00800F23D0111D1960136827E0732A00F0D2
:101ADC00B48008D86F2A2AD0702AE5D10A6842F05F
:101AEC0020020A6003E0752A21D0782ADCD1782202
:101AFC006F4984F8452064E01A6801F14205111D14
:101B0C001960136884F842300123A3E011F0400FF0
:101B1C0002F104011960D7D0B2F90030002B03DABE
:101B2C002D225B4284F8432062490A2217E0206888
:101B3C00196810F0800F03D0081D18600B6806E0C0
:101B4C0010F0400F01F104001860F7D00B886F2AD9
:101B5C0014BF0A2208225749002084F84300656804
:101B6C00002DA560C0F29C80206820F0040020604D
:101B7C00002B3FD1002D40F095807546082A0BD1E3
:101B8C002368DA0708D5236962689A42DEBF3023DE
:101B9C0005F8013C05F1FF35AEEB05032361CDF8EB
:101BAC0000803B4603AA21463046FFF7EDFE01308C
:101BBC0055D14FF0FF3005B0BDE8F08381F84520DA
:101BCC003C492268186812F0800F00F104051D6072
:101BDC0001D0036802E05506FBD50388D00744BF4B
:101BEC0042F0200222601BB9226822F020022260FF
:101BFC001022B1E77546B3FBF2F002FB1033CB5C5D
:101C0C0005F8013D03460028F5D1B7E708681A68C6
:101C1C0010F0800F496904D0101D1860136819600A
:101C2C0007E010F0400F02F1040018601368F6D0C2
:101C3C001980002375462361B1E71A68111D1960DC
:101C4C00156800216268284600F094FA08B1401B20
:101C5C00606063682361002384F843309FE7236945
:101C6C002A4639463046C0470130A2D023689B072C
:101C7C0007D5002504F11909E368039A9B1A9D42C4
:101C8C0005DBE068039B9842B8BF184693E7012335
:101C9C004A4639463046C04701308AD00135EBE719
:101CAC00002BA7D10B7804F1420584F8423065E78C
:101CBC008A2300087923000838B50023054C054613
:101CCC0008462360FEF77EFA431C02D1236803B159
:101CDC002B6038BD8801002010B50C46B1F90E10F0
:101CEC0000F0A4FA0028ABBF636DA3891B1823F482
:101CFC008053ACBF6365A38110BD2DE9F0411F4635
:101D0C008B890546DB050C46164605D502230022B9
:101D1C00B1F90E1000F0B8F9A389324623F48053C0
:101D2C00A381B4F90E103B462846BDE8F04100F003
:101D3C0069B810B50C46B1F90E1000F0A5F9431CAA
:101D4C00A38915BF606523F4805343F48053A381AA
:101D5C0018BFA38110BDB1F90E1000F0D3B800006C
:101D6C00F8B50E461446054618B183690BB9FFF752
:101D7C00E5FB214B9C422AD16C68A369A360A38923
:101D8C001A072ED5236963B323692068F6B2C01AEB
:101D9C0063693746984204DB2146284600F04AF92D
:101DAC0028BBA3680130013BA36023685A1C226046
:101DBC001E706369984204D0A389DB0719D50A2EDB
:101DCC0017D12146284600F035F990B10FE00B4BA6
:101DDC009C4201D1AC68D0E7094B9C4208BFEC682F
:101DEC00CBE72146284600F01FF80028CCD04FF056
:101DFC00FF373846F8BD00BF2823000848230008E9
:101E0C000823000838B50546084611460022054C43
:101E1C0022601A46FEF7C7F9431C02D1236803B1AE
:101E2C002B6038BD88010020324B70B51D6806460A
:101E3C000C4625B1AB6913B92846FFF77FFB2E4B37
:101E4C009C420FD16C68B4F90C309AB215072CD4A3
:101E5C00D00611D40922326043F04003A3814FF025
:101E6C00FF3070BD254B9C4201D1AC68EBE7244B95
:101E7C009C4208BFEC68E6E7510712D5616B41B193
:101E8C0004F14403994202D0304600F083F9002358
:101E9C006363A38923F02403A38100236360236974
:101EAC002360A38943F00803A38123694BB9A38959
:101EBC0003F42073B3F5007F03D02146304600F0C5
:101ECC0019F9A28912F001030CD00023A3606369F5
:101EDC005B42A361236953B9B4F90C3013F0800051
:101EEC00BAD170BD920758BF6369A360F2E70020B6
:101EFC00F7E700BF0C000020282300084823000847
:101F0C000823000838B50023054C05460846236015
:101F1C00FEF772F9431C02D1236803B12B6038BD64
:101F2C00880100208A892DE9F041054610070C46EE
:101F3C005AD44B68002B05DC0B6C002B02DC002008
:101F4C00BDE8F081E66A002EF9D0002312F480522D
:101F5C002F682B6033D0606DA3895A0705D5636851
:101F6C00C01A636B0BB1236CC01A00230246E66ADD
:101F7C00216A2846B047431CA38906D129681D292C
:101F8C004BD82B4ACA40D60747D50022626022693B
:101F9C00D904226004D5421C01D12B6803B96065B9
:101FAC00616B2F600029CAD004F14403994202D01E
:101FBC00284600F0EFF800206063BDE8F081216A4C
:101FCC0001232846B047411CC6D12B68002BC3D037
:101FDC001D2B01D0162B01D12F60B0E7A38943F044
:101FEC004003A381BDE8F0810F69002FA7D09307B0
:101FFC0018BF00230E6808BF4B69A6EB07080F60DB
:10200C008B60B8F1000F9ADD43463A46216A2846A8
:10201C00A66AB047002807DCA38943F04003A381DC
:10202C004FF0FF30BDE8F0810744A8EB0008E8E76B
:10203C000100402038B50B6905460C46DBB118B1E0
:10204C0083690BB9FFF77AFA0C4B9C4209D16C6887
:10205C00B4F90C307BB121462846BDE83840FFF777
:10206C0061BF074B9C4201D1AC68F1E7054B9C4228
:10207C0008BFEC68ECE7002038BD00BF282300083F
:10208C00482300080823000838B5054608461146C1
:10209C000022054C22601A46FEF7B8F8431C02D108
:1020AC00236803B12B6038BD8801002070B50E4643
:1020BC00B1F90E1090B0002914461D4607DA002322
:1020CC002B60B3891A0610D44FF480630EE001AA7A
:1020DC0000F0BEF80028F2DB029A02F47042A2F57E
:1020EC0000535A425A412A60EEE7402300202360F5
:1020FC0010B070BD8B8973B59D0706460C4607D58D
:10210C0004F14703236023610123636102B070BDB6
:10211C0001AB6A46FFF7CAFF009905463046FFF748
:10212C0097FA48B9B4F90C309A05EFD423F00303AD
:10213C0043F00203A381E3E70D4BB362A389206054
:10214C0043F08003A381009B20616361019B5BB121
:10215C00B4F90E10304600F08DF828B1A38923F0A5
:10216C00030343F00103A381A3891D43A581CDE79C
:10217C00C914000810B5C9B202449042034601D1FB
:10218C00002010BD1C7801308C42F6D1184610BDD1
:10219C007047704738B50546002943D051F8043CC8
:1021AC000C1F002BB8BFE418FFF7F2FF1E4A136890
:1021BC00104633B9636014602846BDE83840FFF719
:1021CC00E8BFA3420BD921686218934201BF1A6879
:1021DC005B685218226063600460EDE713465A682E
:1021EC000AB1A242FAD919685818A0420BD120683A
:1021FC000144581882421960DED1106852680144BB
:10220C0019605A60D8E702D90C232B60D4E72068F8
:10221C0021188A4201BF1168526809182160626056
:10222C005C60C9E738BD00BFE400002038B5054646
:10223C00084611460022054C22601A46FDF7A5FF00
:10224C00431C02D1236803B12B6038BD88010020E8
:10225C0038B50023064C0546084611462360FDF7A9
:10226C00CEFF431C02D1236803B12B6038BD00BFE5
:10227C008801002038B50023054C0546084623602C
:10228C00FDF7C2FF431C02D1236803B12B6038BD9C
:10229C0088010020F8B500BFF8BC08BC9E4670470A
:0C22AC00F8B500BFF8BC08BC9E467047A7
:1022B80002030405060708090A0B0C0D0E0F10107F
:1022C80048656C6C6F0043617264204944206973EF
:1022D8003A0025782D25782D25782D25782D2578F7
:1022E80000000000000000000001020304060708C7
:1022F8000900000000010203040000001000002093
:1023080000000000000000000000000000000000C5
:1023180000000000000000000000000000000000B5
:1023280000000000000000000000000000000000A5
:102338000000000000000000000000000000000095
:102348000000000000000000000000000000000085
:102358000000000000000000000000000000000075
:10236800232D302B2000686C4C0065666745464776
:1023780000303132333435363738394142434445F9
:102388004600303132333435363738396162636468
:042398006566000076
:04239C003101000803
:0423A0000D01000823
:1023A4000024F400010000001000000010000020D0
:1023B4000000000028230008482300080823000820
:1023C4000000000000000000000000000000000009
:1023D40000000000000000000000000000000000F9
:1023E40000000000000000000000000000000000E9
:1023F40000000000000000000000000000000000D9
:1024040000000000000000000000000000000000C8
:040000050800014DA1
:00000001FF
