:020000040800F2
:10000000005000204D01000855020008570200086A
:10001000590200085B0200085D02000800000000B1
:100020000000000000000000000000005F02000867
:100030006102000800000000630200086502000879
:100040009501000895010008950100089501000838
:100050009501000895010008950100089501000828
:100060009501000895010008950100089501000818
:100070009501000895010008950100089501000808
:1000800095010008950100089501000895010008F8
:1000900095010008950100089501000895010008E8
:1000A00095010008950100089501000895010008D8
:1000B00095010008950100089501000895010008C8
:1000C00095010008950100089501000895010008B8
:1000D00095010008950100089501000895010008A8
:1000E0009501000895010008950100080000000036
:1000F0000000000000000000000000000000000000
:0C01000000000000000000005FF808F1A3
:10010C0010B5054C237833B9044B13B10448AFF345
:10011C0000800123237010BD0C00002000000000A3
:10012C00340A000808B5034B1BB103490348AFF36D
:10013C00008008BD0000000010000020340A0008F8
:10014C00002103E00B4B5B58435004310A480B4B26
:10015C0042189A42F6D30A4A02E0002342F8043BC2
:10016C00084B9A42F9D300F079F800F031FC00F01A
:10017C0042F87047740A0008000000200C000020B0
:10018C000C0000202C000020FEE7282230B595B092
:10019C000DEB0200002100F03FFC142210250DEBAA
:1001AC000200002100F038FC2A46002101A800F0D2
:1001BC0033FC012302240E934FF460130AA813930B
:1001CC000A940F95119400F013F90F234FF48062E9
:1001DC0005930023214605A80793089209930694DA
:1001EC0000F0E0FA4FF4004301A80194039300F0EF
:1001FC0077FB15B030BD08B500F07AF8FFF7C5FFF6
:10020C00FEE700000E4B82B09A6942F001029A613F
:10021C009A6902F001020092009ADA6942F0805267
:10022C00DA61DB69074A03F080530193019B536841
:10023C0023F0E06343F08063536002B0704700BF6B
:10024C0000100240000001407047FEE7FEE7FEE7A9
:10025C00FEE770477047704700F05CB80F4B1A68A8
:10026C0042F001021A6059680D4A0A405A601A6835
:10027C0022F0847222F480321A601A6822F48022EE
:10028C001A605A6822F4FE025A604FF41F029A60F8
:10029C004FF00062034B9A60704700BF00100240A1
:1002AC000000FFF800ED00E038B50E4B054618785D
:1002BC004FF47A73B3FBF0F30B4A1068B0FBF3F016
:1002CC0000F080F8044658B90F2D09D8024629468B
:1002DC004FF0FF3000F042F8044B20461D6038BD53
:1002EC00012038BD04000020000000200800002080
:1002FC00074A08B51368032043F01003136000F09D
:10030C001BF80020FFF7D0FFFFF77CFF002008BD93
:10031C0000200240034A044B11681B780B44136005
:10032C00704700BF2800002004000020014B186813
:10033C00704700BF28000020074A0002D36800F471
:10034C00E06023F4E0631B041B0C43F0BF6343F435
:10035C0000330343D360704700ED00E0174B30B51A
:10036C00DC68C4F30224C4F10703251D042B28BF49
:10037C000423062D4FF0010598BF002405FA03F362
:10038C0003F1FF3388BF033C1940A14005FA04F484
:10039C00013C2240002842EA01024FEA0212A9BFA6
:1003AC0000F16040064BD2B200F56140BBBF00F0DB
:1003BC000F00D2B280F800231A5430BD00ED00E0DB
:1003CC0014ED00E00138B0F1807F0AD2F021064B29
:1003DC00064A586082F823100020072298601A60A1
:1003EC0070470120704700BF10E000E000ED00E016
:1003FC002DE9F341054608B901203CE00368DB0711
:10040C0010D42B689F075DD42B68190700F19480DA
:10041C002B685A0700F1BE80E869002840F02C8157
:10042C00002028E08F4C636803F00C03042B07D0EA
:10043C00636803F00C03082B09D16368DE0306D54F
:10044C0023689C03DDD56B68002BDAD1D4E76B688D
:10045C00B3F5803F12D1236843F480332360FFF758
:10046C0065FF064623689803CBD4FFF75FFF801B1C
:10047C006428F7D9032002B0BDE8F0819BB923684A
:10048C0023F480332360236823F480232360FFF755
:10049C004DFF064623689903B3D5FFF747FF801B32
:1004AC006428F7D9E6E7B3F5A02F236803D143F40A
:1004BC0080232360CFE723F480332360236823F465
:1004CC008023CBE7674C636813F00C0F07D063688D
:1004DC0003F00C03082B10D16368DA030DD42368E6
:1004EC009B0702D52B69012B86D123686A6923F0FF
:1004FC00F80343EAC203236086E72A695A4B6AB1C0
:10050C0001221A60FFF712FF064623689F07ECD4FE
:10051C00FFF70CFF801B0228F7D9ABE71A60FFF737
:10052C0005FF0646236898077FF56EAFFFF7FEFEC2
:10053C00801B0228F6D99DE7AA694A4C4B4BDAB1CD
:10054C0001221A60FFF7F2FE0646636A9B070DD57F
:10055C004FF4FA52464B1B68B3FBF2F3019300BF06
:10056C00019B5A1E0192002BF9D151E7FFF7DEFED9
:10057C00801B0228E9D97DE71A60FFF7D7FE0646F3
:10058C00636A9F077FF544AFFFF7D0FE801B0228FC
:10059C00F6D96FE7334CE369D80024D40127E3691B
:1005AC0043F08053E361E36903F080530093009BB5
:1005BC00304E3368D90518D5EB68012B26D1236A48
:1005CC0043F001032362FFF7B1FE41F28836804607
:1005DC00236A9B073FD5002F3FF41EAFE36923F03E
:1005EC008053E36118E70027E2E7336843F4807334
:1005FC003360FFF79BFE80463368DA05DCD4FFF7E7
:10060C0095FEA0EB08006428F6D933E7ABB9236A52
:10061C0041F2883823F001032362236A23F0040398
:10062C002362FFF783FE0646236A9807D3D5FFF7AC
:10063C007DFE801B4045F7D91CE7052B236A03D1AF
:10064C0043F004032362BAE723F001032362236A15
:10065C0023F00403B6E7FFF769FEA0EB0800B042F5
:10066C00B6D907E700100240000042428004424223
:10067C0000000020007000402A4B5A681C4602F013
:10068C000C02082A3DD00023274E022833602BD1C0
:10069C00FFF74CFE0746236899011FD42B6AB3F56C
:1006AC00803F05D16268A96822F400320A43626077
:1006BC00696A62680B4322F474121343636001236A
:1006CC003360FFF733FE054623689A013FF5A8AE69
:1006DC00FFF72CFE401B0228F6D9CBE6FFF726FECF
:1006EC00C01B0228D7D9C5E6FFF720FE05462368B4
:1006FC009B017FF595AEFFF719FE401B0228F6D93A
:10070C00B8E601283FF4B7AE58682B6A00F4803283
:10071C009A427FF471AE6B6A00F47010C01A18BF65
:10072C000120A8E6001002406000424230B5194B8F
:10073C0087B002AC03F110052246186859680833DB
:10074C0003C2AB421446F7D101238DF804300223C7
:10075C0011498DF805304B6803F00C02082A17D1AB
:10076C00C3F3834206A80244DB0312F8102C0CD509
:10077C004B680A48C3F34043504306AA134413F88A
:10078C00143CB0FBF3F007B030BD05485043FAE71A
:10079C000248F8E74C0A00080010024000127A00E8
:1007AC0000093D002DE9F0410D46044610B9012029
:1007BC00BDE8F081454A136803F007038B4229D347
:1007CC0021688E0731D4CA0744D4404A136803F019
:1007DC0007039D4267D322683D4D12F0040F6ED182
:1007EC00130706D56B68226923F4605343EAC203EE
:1007FC006B60FFF79BFF6B68364AC3F30313D35C44
:10080C00D840354B1860354B1868FFF74DFD00206C
:10081C00BDE8F081136823F007030B4313601368E2
:10082C0003F007039942C2D1CAE7294B11F0040F18
:10083C001EBF5A6842F4E0625A60080742BF5A6809
:10084C0042F460525A605A68A06822F0F0020243E7
:10085C005A60B8E762681E4E012A33681BD113F444
:10086C00003FA4D0736841F2883823F0030313438C
:10087C007360FFF75BFD07467368626803F00C0357
:10088C00B3EB820FA1D0FFF751FDC01B4045F3D94C
:10089C000320BDE8F081022A02D113F0007FE0E7CB
:1008AC0013F0020FDDE7136823F007032B431360EB
:1008BC00136803F007039D427FF479AF8BE76B68F5
:1008CC00E16823F4E0630B436B6089E7002002408E
:1008DC00001002405C0A0008000000200800002004
:1008EC0003682DE9F341D907054620D5354CE3695A
:1008FC00DA0032D40127E36943F08053E361E36902
:10090C0003F080530193019B2F4E3368DB0526D5F2
:10091C00236A13F4407336D1236A6A6823F4407354
:10092C00134323621FB1E36923F08053E36128680A
:10093C00830706D5234AA968536823F440430B4325
:10094C00536010F010001BD01E4AE9685368002059
:10095C0023F480030B43536012E00027D4E7336881
:10096C0043F480733360FFF7E1FC80463368D805AD
:10097C00CED4FFF7DBFCA0EB08006428F6D90320EB
:10098C0002B0BDE8F0816A6802F440729342C3D0B1
:10099C0001200E4A236A1060002023F4407110607D
:1009AC002162D907B8D5FFF7C1FC41F28838064659
:1009BC00236A9A07B0D4FFF7B9FC801B4045F7D9DE
:1009CC00DDE700BF001002400070004040044242CE
:1009DC0070B500250C4E0D4CA41BA410A54209D1DA
:1009EC0000F022F800250A4E0A4CA41BA410A542C4
:1009FC0005D170BD56F8253098470135EEE756F80D
:100A0C00253098470135F2E76C0A00086C0A00089B
:100A1C006C0A0008700A000803460244934200D195
:100A2C00704703F8011BF9E7F8B500BFF8BC08BC28
:100A3C009E467047F8B500BFF8BC08BC9E46704790
:100A4C0002030405060708090A0B0C0D0E0F101003
:100A5C000000000000000000010203040607080962
:040A6C00310100084C
:040A70000D0100086C
:0C0A74000024F40001000000100000004D
:040000050800014DA1
:00000001FF
