:020000040800F2
:1000000000000220BD0E00085D0E00085F0E000813
:10001000610E0008630E0008650E00080000000075
:10002000000000000000000000000000670E000853
:10003000690E0008000000006B0E00086D0E00083D
:100040000D0F00080D0F00080D0F00080D0F000820
:100050000D0F00080D0F00080D0F00080D0F000810
:100060000D0F00080D0F00080D0F00080D0F000800
:100070000D0F00080D0F00080D0F00080D0F0008F0
:100080000D0F00080D0F00080D0F00080000000004
:100090000000000000000000000000000D0F00083C
:1000A0000D0F00080D0F00080D0F00080D0F0008C0
:1000B0000D0F00080D0F00080D0F00080D0F0008B0
:1000C0000D0F00080D0F00080D0F00080D0F0008A0
:1000D0000D0F00080D0F00080D0F000800000000B4
:1000E0000D0F00080D0F00080D0F000800000000A4
:1000F0000000000000000000000000000D0F0008DC
:10010000000000000D0F00080D0F00080D0F000883
:1001100000000000000000000000000000000000DF
:100120000D0F00080D0F00080D0F00080D0F00083F
:100130000D0F00080000000000000000000000009B
:100140000000000000000000000000000D0F00088B
:100150000D0F00080D0F00080D0F00080D0F00080F
:100160000D0F00080D0F0008000000000000000047
:10017000000000000000000000000000000000007F
:10018000000000000D0F000800000000000000004B
:080190000D0F00080D0F00081F
:1001A00010B5054C237833B9044B13B10448AFF3B1
:1001B00000800123237010BD940000200000000087
:1001C000AC1E000808B5034B1BB103490348AFF34D
:1001D000008008BD0000000098000020AC1E000850
:1001E000034613F8012B002AFBD1181A0138704777
:1001F00001F0FF01102A2BDB10F0070F08D010F8D8
:10020000013B013A8B422DD010F0070F42B3F6D1DB
:10021000F0B441EA012141EA014122F007047FF0F4
:1002200000070023F0E80256083C85EA010586EA4B
:10023000010685FA47F5A3FA87F586FA47F6A5FA87
:1002400087F68EB9EED1F0BC01F0FF0102F0070293
:1002500032B110F8013B013A83EA010313B1F8D13E
:100260000020704701387047002D06BF354603381F
:10027000073815F0010F07D1013015F4807F02BF58
:10028000013015F4C03F0130F0BC0138704700BFA9
:100290002DE9F0430A6892FAA2F44FF0010EB4FA85
:1002A00084F403250F2732FA04F30DD14B68013B88
:1002B000012B06D84368C96823EA02034A431A435C
:1002C00042600120BDE8F0830EFA04F3134069D0C8
:1002D000D1F80480D0F8009093FAA3FCBCFA8CFC0F
:1002E00093FAA3F6B6FA86F64FEA4C0C05FA0CFC24
:1002F000760029EA0C0C08FA06F64CEA06060660B7
:1003000008F1FF36012E16D8866893FAA3FCBCFAD2
:100310008CFC93FAA3F94FEA4C0C05FA0CFC26EA84
:100320000C0CB9FA89F98E684FEA490906FA09F600
:100330004CEA06068660C66893FAA3FCBCFA8CFCFD
:1003400093FAA3F94FEA4C0C05FA0CFC26EA0C0CC4
:10035000B9FA89F90E694FEA490906FA09F64CEA31
:100360000606B8F1020FC6601CD193FAA3F6B6FADE
:1003700086F6072ED1F814C016DCD0F8208093FA48
:10038000A3F6B6FA86F693FAA3F3B3FA83F3B600AC
:1003900007FA06F69B0028EA06060CFA03FC46EA72
:1003A0000C06066201347EE7D0F824801B0A93FA1B
:1003B000A3F6B6FA86F693FAA3F3B3FA83F3B6007C
:1003C00007FA06F69B0028EA06060CFA03F3334305
:1003D0004362E7E7034B044A9B68C3F30313D35C10
:1003E000D840704700380240681F0008034B044A99
:1003F0009B68C3F38223D35CD84070470038024027
:10040000781F0008034B044A9B68C3F34233D35C54
:10041000D840704700380240781F00080F4B104A40
:10042000596810B50F4C01F48001002908BF22461D
:10043000082810D1596858685B68C3F30143C0F3BA
:100440008810013301F03F015B00B2FBF1F2504331
:10045000B0FBF3F010BD002010BD00BF003802401B
:1004600040787D010024F400064B986800F00C00F1
:10047000042803D0082803D0034870470348704776
:10048000FFF7CCBF003802400024F40040787D0123
:1004900010B50446FFF7E8FF2060FFF79BFF6060A0
:1004A000FFF7A4FFA0606068FFF7ACFFE06010BD3D
:1004B00003685B0670B5024624D491E848003343D4
:1004C0008E684C690568086A3343CE6833430E6909
:1004D00033438E6923433343CE6925F47F45334349
:1004E000034325F0BF052B431360536823F0040337
:1004F00043EA1443B0F5005F536001D18B8C136164
:10050000012000E00020D36923F40063D36170BDB3
:1005100030B5C3689B0485B004460D4602D5002063
:1005200005B030BD4B68C968C2680B4329690B43ED
:10053000A96922F416420B4322F00C021343C36054
:100540000369AA6823F440531343036143696A694A
:1005500023F44073134343616846FFF799FF214B2F
:100560009C4225D1039B002BD9D029680029D6D0E5
:10057000AA69B2F5004F4FF0190222D15A4349003F
:10058000B2FBF1F26421B2FBF1F001FB1023DB00BE
:100590003233B3FBF1F39BB203F007025B0002EBD3
:1005A000001203F4F87313449BB2A3600120B7E771
:1005B0000D4B9C4201D1029BD5E70C4B9C42AED126
:1005C000D0E7534364228900B3FBF1F3B3FBF2F1AC
:1005D00002FB11331B013233B3FBF2F303EB0113C4
:1005E000E2E700BF00100140004400400014014059
:1005F0004FF47A73B0FBF3F0034B002201385860DC
:100600009A6005221A60704710E000E0084B82B043
:100610001B680193019B064B411C18BF013008B9B0
:1006200002B070471A68D20348BF00F1FF30F6E706
:1006300010E000E0014B1860704700BF2C00002064
:1006400007B502AA054B02F8011D410001F07E0129
:10065000186800F08FFA03B05DF804FBBC000020BE
:1006600008B54100054B01F07E01012241F08001F7
:10067000186800F05FFAC0B208BD00BFBC000020DF
:1006800010B5431E0139043013F8014F11F8012F42
:10069000944203D18342F7D1002010BD022010BD47
:1006A00038B505460C46FFF7DBFF40EA0401C9B246
:1006B0002846BDE83840FFF7C3BF38B505460C46AD
:1006C000FFF7CEFF20EA0401C9B22846BDE8384052
:1006D000FFF7B6BF2DE9F84F0C2807460D469246A6
:1006E0001E46DDF828803FD00E2841D04FF000098B
:1006F0004C4644F080010220FFF7A2FF8021042035
:10070000FFF7DBFF80210A20FFF7CAFF002101204D
:10071000FFF796FFAB461FFA8AFAABEB05039BB2D5
:100720009A4529D839460120FFF78AFF0C2F03D1BB
:1007300080210D20FFF7B4FF4FF4FA6549F001095D
:100740000420FFF78DFF013DADB2824615B110EADE
:10075000090FF5D080210D20FFF7AFFF95B94FF0BD
:10076000020A5046BDE8F88F4FF030097724C0E701
:100770004FF010091224BCE71BF8011B0920FFF7FA
:100780005FFFCAE70620FFF76BFF10F01B0FE6D1F3
:1007900004F001040C2F0AEA040AE2D10A20FFF750
:1007A0005FFF04463846FFF75BFF10F007001BBFF2
:1007B00004F1FF3300EBC300E300A8F8000008BF1A
:1007C000A8F800307CB1102C28BF1024E4B23746C2
:1007D000A4B2BB1B9BB29C42C3D90920FFF740FFC8
:1007E00007F8010BF5E70124F1E730B50C4685B0B9
:1007F000054607210D20FFF723FF0DF10E0300939F
:1008000025702346012221460C20FFF763FF30B9F3
:10081000BDF80E30102B18BF022005B030BD0220ED
:10082000FBE730B50021044685B00D20FFF708FF37
:1008300093232370202363700DF10E030093022293
:10084000234621460C20FFF745FF60B9621EE11CDC
:10085000034612F8015F8A4283EA0503F9D122793F
:100860009A4218BF022005B030BDF8B504460E46C6
:10087000052004211746FFF720FF80210A20FFF7FB
:100880000FFF013E651E3444A54216D1032101200D
:10089000FFF7D6FEFF240520013CFFF7E1FE14F030
:1008A000FF0401D04307F6D52220FFF7D9FE3870A8
:1008B0002120FFF7D5FE7870F8BD15F8011F09203B
:1008C000FFF7BEFEE0E70F210120FFF7B9BE08B534
:1008D0001420FFF7C5FE830705D103211420BDE8CE
:1008E0000840FFF7DDBE08BD08B5FFF7ECFF8D211E
:1008F0002A20FFF7A5FE3E212B20FFF7A1FE1E2197
:100900002D20FFF79DFE00212C20FFF799FE70217E
:100910002620FFF795FE40211520FFF791FE3D218F
:100920001120FFF78DFEBDE80840FFF7D0BF1FB5CF
:1009300050238DF80C300DF10E02002303A8022184
:100940008DF80D30FFF791FF0DF10A03009303AB13
:10095000042219460C20FFF7BDFE05B05DF804FB2C
:1009600038B5014605462620FFF73FFF044618B973
:100970002846FFF756FF0446FFF7D9FF204638BD4B
:10098000054B1A6B02431A631B6B82B0184001902F
:10099000019B02B0704700BF003802407FB51822AB
:1009A0000021684600F0E0FA8020FFF7E9FF01200F
:1009B000FFF7E6FF09484FF4801383614FF0010E03
:1009C00010238DE8084069460023029303930493A3
:1009D000FFF75EFC07B05DF804FB00BF00000240BB
:1009E00010B592B02822002108A800F0BDFA00211D
:1009F000182202A800F0B8FA1E4B5A6C42F480523A
:100A00005A645B6C03F4805301930120019BFFF750
:100A1000B7FFE023029302230393032300240493EC
:100A200002A905231448059406940793FFF730FCA8
:100A3000124BDB68124B082283F823435A60089458
:100A40000A940B940C940E940F9410944FF48273A8
:100A50000C4C09934FF400730D9308A90A23204608
:100A60001193FFF725FD6368204623F010036360B0
:100A700012B010BD003802400000024000ED00E05E
:100A800000E100E000300140F0B593B028220021E1
:100A900008A800F069FA0021182202A800F064FA00
:100AA000204B1A6C42F480421A641B6C03F480439E
:100AB00001930420019BFFF763FF02200024FFF74E
:100AC0005FFF02270C230326052502A9164802937F
:100AD00005940694039704960795FFF7D9FB4FF406
:100AE000A05302A911480293059406940397049613
:100AF0000795FFF7CDFB089409940A940B940C9486
:100B00000D940F9410940A4C0A2308A920461193BF
:100B1000FFF7CEFC6368204623F01003636013B038
:100B2000F0BD00BF0038024000080240000402404F
:100B30000038004070B5044610460E46154600F0D9
:100B40000BFA0B4B4FF480129A610146E6600022CB
:100B50000B1ADBB29D4203D8054B10229A6170BD7F
:100B6000E260E36801F8013BA3689B07FCD5EFE76F
:100B70000000024070B50546104614460E46FFF7C9
:100B80002FFB0B4B4FF480129A61C0B2EE602246ED
:100B9000131BDBB2984203D8054B10229A6170BD3B
:100BA00012F8013BEB60AB689B07FCD5F0E700BF98
:100BB0000000024010B590B01C22002109A800F0EE
:100BC000D3F91822002103A800F0CEF9234B2448C2
:100BD0005A6C244C42F010025A645A6C02F0100213
:100BE0000292029A1A6B42F001021A631B6B03F025
:100BF00001030193019B4FF4C06303930223049309
:100C0000032305930123079303A907230893FFF701
:100C10003FFB154B154ADB682021002382F8253362
:100C200051604FF41652099209A90C2220460A93EA
:100C30000B930C930E930F930D92FFF769FC2369AE
:100C400023F490432361636923F02A036361E3681B
:100C5000204643F40053E36010B010BD003802405A
:100C6000000002400010014000ED00E000E100E063
:100C70002E4A136823F00F0343F0030310B51360EB
:100C80001368A2F5E632136843F440431360284B1F
:100C90001A6822F0F80242F080021A601A6842F0E4
:100CA00001021A601A689107FCD55968214A0A4066
:100CB00042F4485242F010025A605A6822F440321C
:100CC0005A601A6842F080721A60194B1A689201D1
:100CD000FCD59A68164C22F0F0029A609A6822F4C9
:100CE000E05242F480529A609A6822F460429A601C
:100CF0009A6822F0030242F002029A60A36803F0AD
:100D00000C03082BFAD10C48FFF772FC0B4A0A4877
:100D1000136843F004031360FFF78CFCD4F88C30A5
:100D200023F08073C4F88C3010BD00BF003C02403B
:100D3000003802400080BFFF00E1F50510E000E050
:100D40007FB5364B36495A6C364C374D374E42F4E8
:100D500080425A645A6C02F480420592059A1A6CD9
:100D600042F080521A641B6C03F080530493049B7E
:100D7000CA682F4B22F4E0621204120C1343CB60BA
:100D8000FFF776FFFFF72CFE2A4B1860FFF77CFE7B
:100D9000294B1860FFF70EFF284B1860FFF7FEFD88
:100DA000FFF7A2FD264800F007FA4FF47A70FFF72C
:100DB0002DFC1C48FFF7D4FDE8B920790190E078BC
:100DC00021780090A3786278284600F081F93146B6
:100DD0002046FFF755FC90B91A4800F079F92179BF
:100DE0000291E1780191A178009163782278164907
:100DF000164800F06DF90A20FFF708FCD9E71448FF
:100E000000F066F921790291E1780191A1780091D1
:100E1000637822780F491048EBE700BF00380240A2
:100E200000ED00E0C8000020D31E000800000020F4
:100E30000003FA05BC000020C0000020C400002010
:100E4000C41E0008F11E00081A000020021F00083E
:100E50002F1F0008050000203C1F00087047FEE718
:100E6000FEE7FEE7FEE770477047704770470000F7
:100E70000F49D1F8883043F47003C1F888300D4B26
:100E80001A68002042F001021A6098601A6822F085
:100E9000847222F480321A60074A5A601A6822F477
:100EA00080221A60D8604FF000638B60704700BFEB
:100EB00000ED00E00038024010300024DFF834D0AC
:100EC000002103E00C4B5B58435004310B480C4BA2
:100ED00042189A42F6D30B4A02E0002342F8043B40
:100EE000094B9A42F9D3FFF7C3FF00F011F8FFF75F
:100EF00027FF70470000022020200008000000208B
:100F00009400002094000020D4000020FEE70000A0
:100F100070B50D4E0D4CA41BA4100025A54209D19F
:100F20000B4E0C4C00F0C2FFA41BA4100025A542E0
:100F300005D170BD56F8253098470135EEE756F8D3
:100F4000253098470135F2E71820000818200008DE
:100F5000182000081C200008024B0146186800F009
:100F600059B800BF3000002002440346934200D12C
:100F7000704703F8011BF9E738B50546002945D04D
:100F800051F8043C0C1F002BB8BFE41800F0CCFB58
:100F90001F4A1368104633B9636014602846BDE8E1
:100FA000384000F0C2BBA3420CD9216862189342BA
:100FB00004BF1A685B68636004BF52182260046053
:100FC000ECE713465A680AB1A242FAD919685818D0
:100FD000A0420BD120680144581882421960DDD12B
:100FE000106852685A6001441960D7E702D90C238F
:100FF0002B60D3E7206821188A4204BF1168526829
:10100000626004BF091821605C60C7E738BD00BF9B
:10101000B000002070B5CD1C25F0030508350C2D5F
:1010200038BF0C25002D064601DBA94203D90C234D
:101030003360002070BD00F077FB234A146821461E
:1010400091B9224C23681BB9304600F0BDF82060EE
:101050002946304600F0B8F8431C26D10C233360F3
:10106000304600F062FBE4E70B685B1B1AD40B2BE5
:101070000FD90B60CD50CC18304600F056FB04F170
:101080000B00231D20F00700C31A1BD05A42E25068
:1010900070BD8C420DBF63684B686360136018BFFE
:1010A0000C46E9E70C464968CAE7C41C24F003046F
:1010B000A04205D0211A304600F086F80130CDD08C
:1010C0002560D9E770BD00BFB0000020B40000204B
:1010D0000FB40A4B13B51C6824B1A36913B9204699
:1010E00000F034FA05AB049AA1680193204600F0A1
:1010F00047FB02B0BDE8104004B07047300000204C
:1011000070B50E46054618B183690BB900F01EFA9A
:10111000AB69AC6813B9284600F018FA234B9C421F
:1011200017D16C68A3891B071DD52369DBB1013E6C
:10113000A36816F8011F013BA360E9B9002B2EDA62
:1011400022460A21284600F04FF8013011D00A202B
:1011500070BD174B9C4201D1AC68E3E7154B9C4234
:1011600008BFEC68DEE72146284600F08FF800282B
:10117000DDD04FF0FF3070BD002B04DAA26993423E
:1011800006DB0A2904D023685A1C22601970CFE7B5
:101190002246284600F028F80130C9D1E9E7236843
:1011A0000A205A1C2260187070BD00BFA01F0008E2
:1011B000C01F0008801F0008024B01461868FFF797
:1011C0009FBF00BF3000002038B5064C0023054605
:1011D0000846236000F054FE431C02D1236803B18B
:1011E0002B6038BDD0000020F8B50E4614460546E9
:1011F00018B183690BB900F0A9F9214B9C422AD19F
:101200006C68A369A360A3891A072ED5236963B309
:1012100023692068C01A6369F6B29842374604DB36
:101220002146284600F028F928BBA368013BA360AB
:1012300023685A1C22601E7063690130984204D0F2
:10124000A389DB0719D50A2E17D12146284600F0BD
:1012500013F990B10FE00B4B9C4201D1AC68D0E781
:10126000094B9C4208BFEC68CBE72146284600F0BA
:101270000DF80028CCD04FF0FF373846F8BD00BF3E
:10128000A01F0008C01F0008801F0008324B70B567
:101290001D6806460C4625B1AB6913B9284600F017
:1012A00055F92E4B9C420FD16C68B4F90C309AB2B0
:1012B00015072CD4D00611D40922326043F0400324
:1012C000A3814FF0FF3070BD254B9C4201D1AC682B
:1012D000EBE7244B9C4208BFEC68E6E7510712D5C8
:1012E000616B41B104F14403994202D03046FFF7EB
:1012F00043FE00236363A38923F02403A381002317
:10130000636023692360A38943F00803A3812369F1
:101310004BB9A38903F42073B3F5007F03D02146B2
:10132000304600F0C1F9A28912F001030CD000236D
:10133000A36063695B42A361236953B9B4F90C30BC
:1013400013F08000BAD170BD920758BF6369A360E3
:10135000F2E70020F7E700BF30000020A01F0008E0
:10136000C01F0008801F00088A892DE9F04105464A
:1013700010070C465AD44B68002B05DC0B6C002B75
:1013800002DC0020BDE8F081E66A002EF9D00023DF
:1013900012F480522F682B6033D0606DA3895A07F6
:1013A00005D56368C01A636B0BB1236CC01A0023A8
:1013B0000246E66A216A2846B047431CA38906D143
:1013C00029681D294BD82B4ACA40D60747D5002289
:1013D0006260D9042269226004D5421C01D12B68C5
:1013E00003B96065616B2F600029CAD004F1440322
:1013F000994202D02846FFF7BFFD00206063BDE898
:10140000F081216A01232846B047411CC6D12B68D0
:10141000002BC3D01D2B01D0162B01D12F60B0E7BC
:10142000A38943F04003A381BDE8F0810F69002F39
:10143000A7D093070E6808BF4B690F6018BF002341
:10144000A6EB07088B60B8F1000F9ADD43463A46D9
:10145000216AA66A2846B047002807DCA38943F022
:101460004003A3814FF0FF30BDE8F0810744A8EBB3
:101470000008E8E70100402038B50B6905460C4636
:10148000DBB118B183690BB900F060F80C4B9C42DA
:1014900009D16C68B4F90C307BB121462846BDE80F
:1014A0003840FFF761BF074B9C4201D1AC68F1E7C0
:1014B000054B9C4208BFEC68ECE7002038BD00BF3C
:1014C000A01F0008C01F0008801F0008014900F08D
:1014D000A9B800BF79140008002310B504460360C2
:1014E0004360836081814366C2810361436183619C
:1014F000194608225C30FFF737FD054B6362054B48
:10150000A362054BE362054B2462236310BD00BF59
:10151000D91C0008FB1C0008331D0008571D0008DB
:1015200070B54A1E682555430E4605F17401FFF754
:1015300071FD044640B1002180E842000C30A060FB
:1015400005F16802FFF710FD204670BD836910B5F4
:10155000044633BB8364C3640365124B124A1B68A1
:101560008262984204BF0123836100F01FF860602B
:10157000204600F01BF8A060204600F017F800227B
:10158000E06004216068FFF7A7FF01220921A0683D
:10159000FFF7A2FF02221221E068FFF79DFF01235F
:1015A000A36110BDE01F0008CD140008F8B51C4B66
:1015B0001E68B369074613B93046FFF7C7FF4836C0
:1015C000B4687368013B03D5336833B13668F7E715
:1015D000B4F90C506DB16834F4E704213846FFF7D4
:1015E0009FFF30600028F1D10C233B600446204669
:1015F000F8BD4FF6FF73E3810123A3816566256083
:10160000A560656025616561A5610822294604F130
:101610005C00FFF7A9FC6563A563A564E564E6E7E4
:10162000E01F00082DE9F8438046894600F1480490
:10163000002614B93046BDE8F883A5686768013F05
:1016400001D52468F5E7AB89012B07D9B5F90E3030
:10165000013303D029464046C84706436835EEE7C4
:1016600070B50E46B1F90E10002990B014461D4613
:1016700007DA00232B60B3891A0610D44FF4806375
:101680000EE001AA00F08EFB0028F2DB029A02F4C1
:101690007042A2F500535A425A412A60EEE74023B5
:1016A0000020236010B070BD8B8973B59D0706467E
:1016B0000C4607D504F147032360236101236361CE
:1016C00002B070BD01AB6A46FFF7CAFF009905463C
:1016D0003046FFF79FFC48B9B4F90C309A05EFD4B7
:1016E00023F0030343F00203A381E3E70D4BB3624E
:1016F000A389206043F08003A381009B6361019B69
:1017000020615BB1B4F90E10304600F05DFB28B1EA
:10171000A38923F0030343F00103A381A3891D439D
:10172000A581CDE7CD140008704770479368013B51
:10173000002B10B4936009DA9469A34202DBCBB2A8
:101740000A2B03D15DF8044BFFF74EBD1368581CFC
:1017500010601970C8B25DF8044B7047F8B50646C2
:101760000F461446D518AC4201D1002007E03A4696
:1017700014F8011B3046FFF7D9FF431CF3D1F8BD25
:101780002DE9F04F9DB00C4617460393064618B15D
:1017900083690BB9FFF7DAFE7C4B9C4257D1746822
:1017A000A38918075DD52369002B5AD0002309931C
:1017B00020238DF8293030238DF82A304FF0010B8B
:1017C000B846454615F8013B002B55D1B8EB070A42
:1017D0000BD053463A4621463046FFF7BFFF013053
:1017E00000F0C480099B5344099398F80030002B03
:1017F00000F0BC8000234FF0FF3204930793059262
:1018000006938DF853301A93052229786048FEF725
:10181000EFFC05F10108049B002831D1D90644BF33
:1018200020228DF853201A0744BF2B228DF8532015
:101830002A782A2A2CD0079A00210A20A8460135A6
:1018400098F80030303B092B6DD971B326E0514B2D
:101850009C4201D1B468A3E74F4B9C4208BFF46897
:101860009EE721463046FFF711FD00289ED04FF03D
:10187000FF301DB0BDE8F08F252BA7D0A846A0E70C
:10188000434A801A0BFA00F0184304904546BBE720
:10189000039A111D12680391002A01DB079204E0EC
:1018A000524243F002030792049398F800302E2B23
:1018B00010D198F801302A2B08F1010137D1039B90
:1018C0001A1D1B680392002BB8BF4FF0FF3308F1BD
:1018D00002080593314D98F8001003222846FEF7C0
:1018E00087FC40B14023401B03FA00F0049B0343F4
:1018F000049308F1010898F8001029488DF8281081
:10190000062208F10107FEF773FC002834D0254BAE
:1019100003BB039B073323F0070308330393099B9F
:101920004B4409934CE700FB0232012186E7002378
:10193000059318460A258846013198F80020303A68
:10194000092A03D9002BC5D00590C3E705FB002069
:101950000123F0E703AB00932246134B04A9304662
:10196000AFF30080B0F1FF3F8146D8D1A3895B0679
:101970003FF57DAF09987CE703AB009322460A4B05
:1019800004A9304600F088F8ECE700BFA01F00086B
:10199000E41F0008C01F0008801F0008EA1F00089D
:1019A000EE1F0008000000005D1700082DE9F04759
:1019B00091461F468A680B69DDF820809342B8BFC4
:1019C0001346C9F8003091F8432006460C4612B180
:1019D0000133C9F800302368990642BFD9F80030B6
:1019E0000233C9F80030256815F0060507D104F167
:1019F000190AE368D9F800209B1A9D4229DB94F864
:101A000043302268003318BF012392062ED404F11C
:101A1000430239463046C047013021D02368E5688B
:101A2000D9F8002003F00603042B08BFAD1AA36801
:101A300022690CBF25EAE57500259342C4BF9B1AB5
:101A4000ED184FF000091A344D451BD10020BDE8B8
:101A5000F0870123524639463046C047013003D152
:101A60004FF0FF30BDE8F0870135C2E7E1185A1C9E
:101A7000302081F84300224494F8451082F8431046
:101A80000233C4E70123224639463046C0470130BD
:101A9000E6D009F10109D7E72DE9F04317460A7EA0
:101AA00085B06E2A984606460C460C9B01F1430E03
:101AB00000F0BC801AD8632A2ED00AD8002A00F081
:101AC000C880582A00F08A8004F1420584F8422038
:101AD0002AE0642A01D0692AF6D121681A6811F037
:101AE000800F23D0111D1960136827E0732A00F0BE
:101AF000B48008D86F2A2AD0702AE5D10A6842F04B
:101B000020020A6003E0752A21D0782ADCD17822ED
:101B100084F845206E4964E01A6801F14205111D00
:101B20001960136884F842300123A3E011F0400FDC
:101B300002F104011960D7D0B2F90030002B03DAAA
:101B40002D225B4284F8432062490A2217E0206874
:101B5000196810F0800F03D0081D18600B6806E0AC
:101B600010F0400F01F104001860F7D00B885949BC
:101B70006F2A14BF0A220822002084F843006568F7
:101B8000A560002DC0F29C80206820F00400206039
:101B9000002B3FD1002D40F095807546082A0BD1CF
:101BA0002368DA0708D5236962689A42DEBF3023CA
:101BB00005F8013C05F1FF35AEEB05032361CDF8D7
:101BC00000803B4603AA21463046FFF7EFFE013076
:101BD00055D14FF0FF3005B0BDE8F08381F84520C6
:101BE0003C492268186812F0800F00F104051D605E
:101BF00001D0036802E05506FBD50388D00744BF37
:101C000042F0200222601BB9226822F020022260EA
:101C10001022B1E77546B3FBF2F002FB1033CB5C48
:101C200005F8013D03460028F5D1B7E708681A68B2
:101C3000496910F0800F04D0101D186013681960F6
:101C400007E010F0400F02F1040018601368F6D0AE
:101C50001980002323617546B1E71A68111D1960C8
:101C60001568626800212846FEF7C2FA08B1401BD9
:101C7000606063682361002384F843309FE7236931
:101C80002A4639463046C0470130A2D023689B0718
:101C900007D5002504F11909E368039A9B1A9D42B0
:101CA00005DBE068039B9842B8BF184693E7012321
:101CB0004A4639463046C04701308AD00135EBE705
:101CC000002BA7D10B7884F8423004F1420565E778
:101CD00006200008F51F000810B50C46B1F90E10DB
:101CE00000F094F80028ABBF636DA3891B1823F4A0
:101CF0008053ACBF6365A38110BD2DE9F0411F4641
:101D00008B89DB0505460C46164605D502230022C5
:101D1000B1F90E1000F068F8A389B4F90E1023F49D
:101D20008053A38132463B462846BDE8F04100F08F
:101D300017B810B50C46B1F90E1000F055F8431C59
:101D4000A38915BF606523F4805343F48053A381B6
:101D500018BFA38110BDB1F90E1000F013B8000038
:101D600038B5074C054608461146002222601A463F
:101D700000F094F8431C02D1236803B12B6038BDF6
:101D8000D000002038B5064C0023054608462360E5
:101D900000F04EF8431C02D1236803B12B6038BD1C
:101DA000D000002038B5074C0023054608461146F0
:101DB000236000F045F8431C02D1236803B12B6077
:101DC00038BD00BFD000002038B5064C00230546C2
:101DD0000846236000F03CF8431C02D1236803B19D
:101DE0002B6038BDD000002038B5074C05460846AA
:101DF0001146002222601A4600F032F8431C02D13C
:101E0000236803B12B6038BDD000002038B5074CE3
:101E1000054608461146002222601A4600F028F8BE
:101E2000431C02D1236803B12B6038BDD0000020D1
:101E3000024B58221A604FF0FF307047D00000204C
:101E4000024B58221A604FF0FF307047D00000203C
:101E5000024B58221A600020704700BFD0000020BB
:101E6000024B58221A604FF0FF307047D00000201C
:101E7000024B58221A604FF0FF307047D00000200C
:101E8000044B1968024609B90349196018680244ED
:101E90001A607047B8000020D4000020024B58227E
:101EA0001A604FF0FF307047D0000020F8B500BF37
:101EB000F8BC08BC9E467047F8B500BFF8BC08BC2B
:041EC0009E46704783
:101EC400524649442064617461202E2E2E20005B0A
:101ED400253032782D253032782D253032782D2555
:101EE4003032782D253032785D200D0A00285E5F6F
:101EF4005E292050657266656374210A0D005B25B6
:101F04007320766F6920436172642049443D253013
:101F140032782D253032782D253032782D25303207
:101F2400782D253032785D200D0A0028305F302965
:101F340020426164210A0D005B257320766F6920BD
:101F4400436172642049443D253032782D25303276
:101F5400782D253032782D253032782D2530327881
:101F64005D0D0A00000000000000000001020304EF
:101F74000607080900000000010203040000000035
:101F8400000000000000000000000000000000004D
:101F9400000000000000000000000000000000003D
:101FA400000000000000000000000000000000002D
:101FB400000000000000000000000000000000001D
:101FC400000000000000000000000000000000000D
:101FD40000000000000000000000000034000020A9
:101FE400232D302B2000686C4C00656667454647FE
:101FF4000030313233343536373839414243444581
:1020040046003031323334353637383961626364EF
:0420140065660000FD
:04201800C5010008F6
:04201C00A101000816
:102020006A08E7AB2E4D6120746865206B686F6E9F
:102030006720686F70206C6520004D6120746865B2
:1020400020686F70206C6520000000000024F40000
:102050003400002000000000A01F0008C01F00087E
:10206000801F0008000000000000000000000000C9
:102070000000000000000000000000000000000060
:102080000000000000000000000000000000000050
:102090000000000000000000000000000000000040
:1020A0000000000000000000000000000000000030
:0420B000000000002C
:0400000508000EBD24
:00000001FF
