:020000040800F2
:1080000000500020658100082184000823840008B6
:108010002584000827840008298400080000000047
:108020000000000000000000000000002B84000899
:108030002D840008000000002F840008318400080F
:10804000AD810008AD810008AD810008AD81000858
:10805000AD810008AD810008AD810008AD81000848
:10806000AD810008AD810008AD810008AD81000838
:10807000AD810008AD810008AD810008AD81000828
:10808000AD810008AD810008AD810008AD81000818
:10809000AD810008AD810008AD810008AD81000808
:1080A000AD810008AD810008AD810008AD810008F8
:1080B000AD810008AD810008AD810008AD810008E8
:1080C000AD810008AD810008AD810008AD810008D8
:1080D000AD81000835840008AD810008AD8100083D
:1080E000AD810008AD810008AD81000800000000EE
:1080F0000000000000000000000000000000000080
:0C81000000000000000000005FF808F123
:10810C0010B5054C237833B9044B13B10448AFF3C5
:10811C0000800123237010BD7000002000000000BF
:10812C005496000808B5034B1BB103490348AFF341
:10813C00008008BD00000000740000205496000868
:10814C00D0400B1CD1409C46203AD340184352429D
:10815C006346934018437047002103E00B4B5B5878
:10816C00435004310A480B4B42189A42F6D30A4A40
:10817C0002E0002342F8043B084B9A42F9D300F08A
:10818C0059F901F061F900F075F870479C960008F8
:10819C00000000207000002070000020140200205D
:1081AC00FEE7000008B50A4B0246196809B90949EF
:1081BC0019606946186802448A4206D901F03EF9F2
:1081CC000C2303604FF0FF3008BD1A6008BD00BFE0
:1081DC008C000020140200200E4B02681B6810B5A6
:1081EC009A4216D10C480378FF2B12D143780133F5
:1081FC00DBB2042B43700CD10023084C4380214686
:10820C00043001F081F894E80300BDE8104001F05F
:10821C0091B810BD98000020E0000020D80000208C
:10822C0010B590B02822002106A801F041F90021D8
:10823C00142201A801F03CF94FF4803301220224EE
:10824C0007930E934FF4E01306A806920A920F932D
:10825C000D9400F039FC0F234FF48062019300233E
:10826C00214601A8029403930492059300F006FEA4
:10827C0010B010BD80B588B000F026F9FFF7D0FF24
:10828C00102200210DEB020001F012F9294B4FF4E2
:10829C0000519A69284842F010029A619A690025A7
:1082AC0002F010020192019A9A69012742F0200211
:1082BC009A619A69214C02F020020292029A9A6900
:1082CC001F4E42F004029A619B69012203F00403E1
:1082DC000393039B00F0F2FB4FF40053049303232E
:1082EC0004A9154807930597069500F005FB4FF474
:1082FC00E133144A204684E80C000C23A56063612A
:10830C00E5602561A561E56100F0BEFE40F2071253
:10831C00FF21301D7580757001F0CAF831463A4660
:10832C00204600F0DFFE4FF400414FF0006000F0FB
:10833C00E9FFFEE700100240001001409800002009
:10834C00E0000020003801400E4B82B09A6942F0E8
:10835C0001029A619A6902F001020092009ADA69AC
:10836C0042F08052DA61DB69074A03F080530193D3
:10837C00019B536823F0E06343F08063536002B0C9
:10838C00704700BF001002400000014010B50446C9
:10839C0086B01022002102A801F08AF822681B4B3B
:1083AC009A4230D103F558439A6902A942F48042AB
:1083BC009A619A69164802F480420092009A9A696E
:1083CC00002442F004029A619B6903F004030193B8
:1083DC00019B4FF400730293022303930323059331
:1083EC0000F08AFA4FF4806302A9094802930394BF
:1083FC00049400F081FA25202246214600F09AF8D8
:10840C00252000F0CBF806B010BD00BF00380140AD
:10841C00000801407047FEE7FEE7FEE7FEE7704705
:10842C007047704700F062B8014800F0C3BE00BF4F
:10843C00980000200F4B1A6842F001021A6059682C
:10844C000D4A0A405A601A6822F0847222F4803273
:10845C001A601A6822F480221A605A6822F4FE020A
:10846C005A604FF41F029A604FF00062034B9A60FF
:10847C00704700BF001002400000FFF800ED00E064
:10848C0038B50E4B054618784FF47A73B3FBF0F3FE
:10849C000B4A1068B0FBF3F000F08EF8044658B9A4
:1084AC000F2D09D8024629464FF0FF3000F042F854
:1084BC00044B20461D6038BD012038BD040000204F
:1084CC000000002008000020074A08B513680320AC
:1084DC0043F01003136000F01BF80020FFF7D0FFEF
:1084EC00FFF732FF002008BD00200240034A044B76
:1084FC0011681B780B441360704700BFEC0100201F
:10850C0004000020014B1868704700BFEC010020EC
:10851C00074A0002D36800F4E06023F4E0631B0414
:10852C001B0C43F0BF6343F400330343D360704729
:10853C0000ED00E0174B30B5DC68C4F30224C4F145
:10854C000703251D042B28BF0423062D4FF001051E
:10855C0098BF002405FA03F303F1FF3388BF033CF3
:10856C001940A14005FA04F4013C2240002842EADB
:10857C0001024FEA0212A9BF00F16040064BD2B2D1
:10858C0000F56140BBBF00F00F00D2B280F80023B1
:10859C001A5430BD00ED00E014ED00E0002808DBBB
:1085AC000123420900F01F0003FA00F0014B43F8CD
:1085BC002200704700E100E00138B0F1807F0AD260
:1085CC00F021064B064A586082F82310002007223F
:1085DC0098601A6070470120704700BF10E000E0FF
:1085EC0000ED00E090F8213010B5022B03D00423ED
:1085FC008363012010BD03681A6822F00E021A6012
:10860C001A6822F001021A60184A93421FD01432E1
:10861C0093421ED0143293421DD0143293421DD07B
:10862C00143293421DD0143293420CBF4FF480137A
:10863C004FF080730E4A00245360012380F82130E0
:10864C00436B80F820407BB19847204610BD012336
:10865C00F0E71023EEE74FF48073EBE74FF4805311
:10866C00E8E74FF48033E5E7184610BD08000240F8
:10867C0000000240114AD36813F0100305D01049D2
:10868C00CB6943F00203CB611023D268500706D5A7
:10869C000B4943F00403CA6942F00102CA61074A5C
:1086AC00D169C90708D50648C16941F00401C16107
:1086BC00D16921F00101D161D360704700200240E3
:1086CC00F0010020064B186910F0800007D0054A15
:1086DC005A6002F188325A601869C0F3C0107047B2
:1086EC000020024023016745034A0020136943F030
:1086FC0080031361704700BF00200240064B1869CD
:10870C0010F4007009BF054A01209A6002F188320A
:10871C0008BF9A60704700BF0020024023016745E4
:10872C00034A0020136923F400731361704700BFE0
:10873C0000200240F8B50646FFF7E4FE114C074650
:10874C002546E368D80712D4E368990644BF202372
:10875C00E360EB68DA0606D4EB69DB0703D4E86860
:10876C0010F0040002D0FFF785FF0120F8BD731C48
:10877C00E7D00EB90320F8BDFFF7C4FEC01B86423C
:10878C00DFD2F7E7002002402DE9F84F1F4C994645
:10879C00237E0546012B0F46904633D001234CF225
:1087AC0050302376FFF7C6FF40BB012D03D0022DBE
:1087BC000CBF022504250026B246DFF854B0320166
:1087CC0040464946FFF7BCFCC4F81CA0DBF810304F
:1087DC0080B243F00103CBF8103027F816004CF2AE
:1087EC005030FFF7A7FFDBF8103023F00103CBF874
:1087FC00103018B90136F3B29D42E0D8002323762D
:10880C00BDE8F88F0220BDE8F88F00BFF001002012
:10881C00002002400022064BDA61064B1A6942F036
:10882C0004021A611A6942F040021A61704700BFD3
:10883C00F0010020002002400022064BDA61064BBA
:10884C001A6942F002021A6158611A6942F0400238
:10885C001A617047F0010020002002402DE9F04120
:10886C00234D07462B7E8846012B3DD001240368FF
:10887C002C76022B4CF2503013D1FFF75BFF20B15A
:10888C00012000232B76BDE8F081FFF7C3FF4CF2EB
:10889C005030FFF74FFF174A136923F0040313619D
:1088AC00EFE7FFF747FF0028EAD14FF0FF33C8F896
:1088BC0000302046BE680F4CFA68BB6803EB82237D
:1088CC009E42DED23046FFF7B7FF4CF25030FFF736
:1088DC0031FF236923F00203236110B1C8F8006053
:1088EC00CFE706F58066E7E70220BDE8F08100BF20
:1088FC00F0010020002002402DE9F74F002426460D
:10890C00664BDFF8A8E1DFF8A8C10A6832FA06F571
:10891C0002D103B0BDE8F08F4FF0010808FA06F859
:10892C0002EA080290457FD14D68122D00F0AA8012
:10893C0000F28380022D00F0A28077D8002D00F089
:10894C008980012D00F099804FF00F09FF2A93BF09
:10895C00824606F18045083DD0F800B092BFB500C4
:10896C00D0F804B0AD0009FA05F82BEA080804FAAF
:10897C0005F588BF00F1040A48EA0505CAF800505D
:10898C00D1F804A01AF0805F4ED0454D444FAD692C
:10899C0026F0030845F00105BD61BD6908F180486A
:1089AC0005F00105019508F5803806F0030B019DD3
:1089BC004FEA8B0BD8F8085009FA0BF925EA09098C
:1089CC00384DA84263D005F58065A84261D005F505
:1089DC008065A8425FD005F58065A8420CBF0325D1
:1089EC00042505FA0BF545EA0905C8F808501D6879
:1089FC001AF4803F14BF154395431D605D681AF44B
:108A0C00003F14BF154395435D609D681AF4801FA9
:108A1C0014BF154395439D60DD681AF4001F14BF05
:108A2C002A4325EA0202DA6001366EE7032D22D0D2
:108A3C00112D89D1CC68043486E71B4FBD4209D077
:108A4C0012D8DFF870904D4504D009F580394D45AA
:108A5C007FF47AAF8C68C4B1012C0CBFC0F81080C5
:108A6C00C0F8148008246FE77545F3D06545F1D044
:108A7C00DFF84490EBE7002466E7CC6864E7CC6849
:108A8C00083461E7CC680C345EE704245CE700250D
:108A9C00A7E70125A5E70225A3E700BF00040140D5
:108AAC0000100240000801400000211000003110AD
:108ABC000000321000001110000022100AB10161F8
:108ACC0070470904FBE700002DE9F341054608B99E
:108ADC0001203CE00368DB0710D42B689F075DD4B2
:108AEC002B68190700F194802B685A0700F1BE809F
:108AFC00E869002840F02C81002028E08F4C636846
:108B0C0003F00C03042B07D0636803F00C03082B51
:108B1C0009D16368DE0306D523689C03DDD56B6839
:108B2C00002BDAD1D4E76B68B3F5803F12D1236800
:108B3C0043F480332360FFF7E5FC06462368980373
:108B4C00CBD4FFF7DFFC801B6428F7D9032002B0DD
:108B5C00BDE8F0819BB9236823F48033236023683C
:108B6C0023F480232360FFF7CDFC0646236899038A
:108B7C00B3D5FFF7C7FC801B6428F7D9E6E7B3F53C
:108B8C00A02F236803D143F480232360CFE723F481
:108B9C0080332360236823F48023CBE7674C63681E
:108BAC0013F00C0F07D0636803F00C03082B10D1E3
:108BBC006368DA030DD423689B0702D52B69012B5C
:108BCC0086D123686A6923F0F80343EAC203236061
:108BDC0086E72A695A4B6AB101221A60FFF792FCA8
:108BEC00064623689F07ECD4FFF78CFC801B0228F9
:108BFC00F7D9ABE71A60FFF785FC064623689807A0
:108C0C007FF56EAFFFF77EFC801B0228F6D99DE73F
:108C1C00AA694A4C4B4BDAB101221A60FFF772FC7D
:108C2C000646636A9B070DD54FF4FA52464B1B68F8
:108C3C00B3FBF2F3019300BF019B5A1E0192002B70
:108C4C00F9D151E7FFF75EFC801B0228E9D97DE7DB
:108C5C001A60FFF757FC0646636A9F077FF544AF1F
:108C6C00FFF750FC801B0228F6D96FE7334CE36901
:108C7C00D80024D40127E36943F08053E361E3690E
:108C8C0003F080530093009B304E3368D90518D500
:108C9C00EB68012B26D1236A43F001032362FFF713
:108CAC0031FC41F288368046236A9B073FD5002F62
:108CBC003FF41EAFE36923F08053E36118E700270C
:108CCC00E2E7336843F480733360FFF71BFC8046A4
:108CDC003368DA05DCD4FFF715FCA0EB0800642838
:108CEC00F6D933E7ABB9236A41F2883823F0010394
:108CFC002362236A23F004032362FFF703FC064676
:108D0C00236A9807D3D5FFF7FDFB801B4045F7D9A5
:108D1C001CE7052B236A03D143F004032362BAE753
:108D2C0023F001032362236A23F00403B6E7FFF761
:108D3C00E9FBA0EB0800B042B6D907E700100240EF
:108D4C0000004242800442420000002000700040BB
:108D5C002A4B5A681C4602F00C02082A3DD000230C
:108D6C00274E022833602BD1FFF7CCFB0746236834
:108D7C0099011FD42B6AB3F5803F05D16268A968AD
:108D8C0022F400320A436260696A62680B4322F47F
:108D9C0074121343636001233360FFF7B3FB054682
:108DAC0023689A013FF5A8AEFFF7ACFB401B0228E5
:108DBC00F6D9CBE6FFF7A6FBC01B0228D7D9C5E630
:108DCC00FFF7A0FB054623689B017FF595AEFFF7E7
:108DDC0099FB401B0228F6D9B8E601283FF4B7AE40
:108DEC0058682B6A00F480329A427FF471AE6B6A39
:108DFC0000F47010C01A18BF0120A8E60010024041
:108E0C006000424230B5194B87B002AC03F110053B
:108E1C00224618685968083303C2AB421446F7D18E
:108E2C0001238DF80430022311498DF805304B686D
:108E3C0003F00C02082A17D1C3F3834206A802449C
:108E4C00DB0312F8102C0CD54B680A48C3F34043D3
:108E5C00504306AA134413F8143CB0FBF3F007B0CC
:108E6C0030BD05485043FAE70248F8E76C96000815
:108E7C000010024000127A0000093D002DE9F0417B
:108E8C000D46044610B90120BDE8F081454A13682F
:108E9C0003F007038B4229D321688E0731D4CA070C
:108EAC0044D4404A136803F007039D4267D32268F9
:108EBC003D4D12F0040F6ED1130706D56B68226975
:108ECC0023F4605343EAC2036B60FFF79BFF6B68AC
:108EDC00364AC3F30313D35CD840354B1860354B7B
:108EEC001868FFF7CDFA0020BDE8F081136823F075
:108EFC0007030B431360136803F007039942C2D1B5
:108F0C00CAE7294B11F0040F1EBF5A6842F4E06205
:108F1C005A60080742BF5A6842F460525A605A6855
:108F2C00A06822F0F00202435A60B8E762681E4E55
:108F3C00012A33681BD113F4003FA4D0736841F2AB
:108F4C00883823F0030313437360FFF7DBFA0746FB
:108F5C007368626803F00C03B3EB820FA1D0FFF7C8
:108F6C00D1FAC01B4045F3D90320BDE8F081022A99
:108F7C0002D113F0007FE0E713F0020FDDE7136876
:108F8C0023F007032B431360136803F007039D4280
:108F9C007FF479AF8BE76B68E16823F4E0630B43F4
:108FAC006B6089E700200240001002407C960008AC
:108FBC000000002008000020044B054A5B68C3F346
:108FCC000223D35C034A1068D8407047001002405B
:108FDC008C96000800000020044B054A5B68C3F324
:108FEC00C223D35C034A1068D8407047001002407B
:108FFC008C960008000000200368DA6822F4907256
:10900C00DA605A6922F001025A61202380F83A3062
:10901C007047000038B505460368C1681A69192401
:10902C0022F440520A431A6182680069D9680243EB
:10903C00686921F4B05121F00C0102430A43DA6053
:10904C005A69A96922F440720A435A610D4A934243
:10905C0014D1FFF7C1FF60436C686422A400B0FB1D
:10906C00F4F0B0FBF2F402FB14031B013233B3FB3C
:10907C00F2F3296803EB04138B6038BDFFF79CFFF8
:10908C00E9E700BF0038014010B5044640B390F842
:10909C00393003F0FF021BB980F83820FFF776F95E
:1090AC002423226884F83930D368204623F40053F3
:1090BC00D360FFF7AFFF236800201A6922F49042B7
:1090CC001A615A6922F02A025A61DA6842F4005293
:1090DC00DA602023E06384F8393084F83A3010BD2C
:1090EC00012010BD90F83A30202B20D1E9B1E2B12B
:1090FC0090F83830012B1AD0C285828500232222A9
:10910C00C36380F83A2002688162D16880F83830F5
:10911C0041F48071D1605169184641F001015161EF
:10912C00D16841F02001D1607047012070470220C6
:10913C007047704790F83A3010B5222B36D18368BF
:10914C000169B3F5805F0268836A23D15268E9B97B
:10915C00C2F3080223F8022B8362C48D013CA4B233
:10916C00C4858CB90368DA6822F02002DA60DA6808
:10917C0022F48072DA605A6922F001025A612023CB
:10918C0080F83A30FFF728F8002010BDD2B223F84F
:10919C00012BE1E721B9591C526881621A70DCE796
:1091AC005268591C816202F07F02F7E7022010BD61
:1091BC0070470000036870B51A6804461607D96832
:1091CC005D6907D196065AD58D0658D5BDE8704015
:1091DC00FFF7B0BF15F0010502D111F4907F4ED00E
:1091EC00D30705D5CE0542BFE36B43F00103E36320
:1091FC00500704D51DB1E36B43F00203E3639307FF
:10920C0004D51DB1E36B43F00403E363160704D5E7
:10921C001DB1E36B43F00803E363E36B002B66D0F3
:10922C00950604D5880602D52046FFF783FF2368F0
:10923C0020465D69E26B110702D415F040051AD087
:10924C00FFF7DAFE23685A69520610D55A69606B2B
:10925C0022F040025A6150B1254B4363FFF7C2F92B
:10926C00002844D0606BBDE87040436B1847204623
:10927C00FFF79EFF70BDFFF79BFFE56370BD160601
:10928C0027D50D0625D594F83920212A2FD1A2688F
:10929C00B2F5805F226A17D11188C1F308015960B9
:1092AC00216979B902322262E28C013A92B2E284EB
:1092BC00EAB9DA6822F08002DA60DA6842F0400239
:1092CC00DA6070BD0132EEE7511C216212785A60EF
:1092DC00EAE750060BD54A0609D5DA68204622F093
:1092EC004002DA60202384F83930FFF722FF70BD8A
:1092FC000193000808B50023406AC385C384FFF7B7
:10930C0057FF08BD00F024B830B58278C37843EA23
:10931C0002230B8003798B7000238A785C1CDBB2F0
:10932C009A4201D8002030BDC21855794A68D554EC
:10933C002346F2E782B002AB03E90300BDF800005C
:10934C009DF80220019900F1006002B000F028B8ED
:10935C0030B505460C4687B0FFF7B4F90028FBD1B1
:10936C00FFF7CCF90028FBD1029001A902A80495C3
:10937C000594FFF773FA50B1FFF7D2F90028FBD12F
:10938C00FFF7B2F90028FBD1012007B030BDFFF781
:10939C00C7F90028FBD1FFF7A7F90028FBD1F4E7A8
:1093AC002DE9F04193074FEA920618BF013680462B
:1093BC00B0000C4600F06CF807464FF0FF31324617
:1093CC0000F076F82146384600F034F9FFF77AF9C8
:1093DC000028FBD1FFF792F90028FBD10446054683
:1093EC00AE420ED8FFF79CF90028FBD1FFF77CF9B1
:1093FC0004460028FAD1384600F052F82046BDE861
:10940C00F08157F82520002308EB85010220FFF797
:10941C00BBF918B90135ADB20446E1E70134E0B24D
:10942C000528F9D1FFF77CF90028FBD1FFF75CF98F
:10943C000028FBD10120BDE8F0810000014B186829
:10944C00704700BF0C00002070B500250C4E0D4C71
:10945C00A41BA410A54209D100F0F6F800250A4E71
:10946C000A4CA41BA410A54205D170BD56F825309A
:10947C0098470135EEE756F8253098470135F2E765
:10948C009496000894960008949600089896000804
:10949C00024B0146186800F05FB800BF0C000020BA
:1094AC00024B0146186800F00BB800BF0C000020FE
:1094BC0003460244934200D1704703F8011BF9E7BD
:1094CC0038B50546002943D051F8043C0C1F002B3D
:1094DC00B8BFE41800F0B6F81E4A1368104633B94A
:1094EC00636014602846BDE8384000F0ACB8A34275
:1094FC000BD921686218934201BF1A685B68521835
:10950C00226063600460EDE713465A680AB1A24218
:10951C00FAD919685818A0420BD120680144581880
:10952C0082421960DED110685268014419605A6099
:10953C00D8E702D90C232B60D4E7206821188A4283
:10954C0001BF116852680918216062605C60C9E74C
:10955C0038BD00BF9000002070B5CD1C25F0030570
:10956C0008350C2D38BF0C25002D064601DBA94211
:10957C0003D90C233360002070BD00F063F8234A3C
:10958C001468214691B9224C23681BB9304600F06F
:10959C0041F820602946304600F03CF8431C26D1A7
:1095AC000C233046336000F04EF8E4E70B685B1B8D
:1095BC001AD40B2B0FD90B60CC18CD50304600F0C1
:1095CC0042F804F10B00231D20F00700C31A1BD036
:1095DC005A42E25070BD8C420BBF63684B681360FB
:1095EC00636018BF0C46E9E70C464968CAE7C41C1F
:1095FC0024F00304A04205D0211A304600F00AF8EA
:10960C000130CDD02560D9E770BD00BF900000209F
:10961C009400002038B50023054C0546084623600D
:10962C00FEF7C0FD431C02D1236803B12B6038BD8B
:10963C0010020020034611F8012B03F8012B002A1D
:10964C00F9D1704770477047F8B500BFF8BC08BC3B
:10965C009E467047F8B500BFF8BC08BC9E467047E4
:10966C0002030405060708090A0B0C0D0E0F101057
:10967C0000000000000000000102030406070809B6
:08968C000000000001020304CC
:049694003181000818
:049698000D81000838
:10969C000024F40001000000100000001000002065
:1096AC0000000000000000000000000000000000AE
:1096BC00000000000000000000000000000000009E
:1096CC00000000000000000000000000000000008E
:1096DC00000000000000000000000000000000007E
:1096EC00000000000000000000000000000000006E
:1096FC00000000000000000000000000000000005E
:040000050800816509
:00000001FF
