:020000040800F2
:1000000000500020150F0008810E0008830E000824
:10001000850E0008870E0008890E00080000000009
:100020000000000000000000000000008B0E00082F
:100030008D0E0008000000008F0E0008910E0008D1
:100040005D0F00085D0F00085D0F00085D0F0008E0
:100050005D0F00085D0F00085D0F00085D0F0008D0
:100060005D0F00085D0F00085D0F00085D0F0008C0
:100070005D0F00085D0F00085D0F00085D0F0008B0
:100080005D0F00085D0F00085D0F00085D0F0008A0
:100090005D0F00085D0F00085D0F00085D0F000890
:1000A0005D0F00085D0F00085D0F00085D0F000880
:1000B0005D0F00085D0F00085D0F00085D0F000870
:1000C0005D0F00085D0F00085D0F00085D0F000860
:1000D0005D0F00085D0F00085D0F00085D0F000850
:1000E0005D0F00085D0F00085D0F000800000000B4
:1000F0000000000000000000000000000000000000
:0C01000000000000000000005FF808F1A3
:10010C0010B5054C237833B9044B13B10448AFF345
:10011C0000800123237010BD70000020000000003F
:10012C006C11000808B5034B1BB103490348AFF32E
:10013C00008008BD00000000740000206C11000855
:10014C00D0400B1CD1409C46203AD340184352421D
:10015C00634693401843704738B50E4B05461878E4
:10016C004FF47A73B3FBF0F30B4A1068B0FBF3F067
:10017C0000F092F8044658B90F2D09D802462946CA
:10018C004FF0FF3000F054F8044B20461D6038BD92
:10019C00012038BD000000200800002004000020D1
:1001AC00074A08B51368032043F01003136000F0EE
:1001BC002DF80020FFF7D0FF00F03AFE002008BD1C
:1001CC0000200240034A044B11681B780B44136057
:1001DC00704700BF9800002000000020014B1868F9
:1001EC00704700BF9800002038B50446FFF7F6FFB3
:1001FC000546631C1EBF044B1B78E418FFF7EEFF8B
:10020C00401B8442FAD838BD00000020074A000287
:10021C00D36800F4E06023F4E0631B041B0C43F090
:10022C00BF6343F400330343D360704700ED00E039
:10023C00174B30B5DC68C4F30224C4F10703251D49
:10024C00042B28BF0423062D4FF0010598BF002472
:10025C0005FA03F303F1FF3388BF033C1940A140B7
:10026C0005FA04F4013C2240002842EA01024FEA5C
:10027C000212A9BF00F16040064BD2B200F56140FA
:10028C00BBBF00F00F00D2B280F800231A5430BD6F
:10029C0000ED00E014ED00E00138B0F1807F0AD2EF
:1002AC00F021064B064A586082F8231000200722E2
:1002BC0098601A6070470120704700BF10E000E0A2
:1002CC0000ED00E0114AD36813F0100305D010497B
:1002DC00CB6943F00203CB611023D268500706D5DB
:1002EC000B4943F00403CA6942F00102CA61074A90
:1002FC00D169C90708D50648C16941F00401C1613B
:10030C00D16921F00101D161D36070470020024016
:10031C00A0000020064B186910F0800007D0054A99
:10032C005A6002F188325A601869C0F3C0107047E5
:10033C000020024023016745034A0020136943F063
:10034C0080031361704700BF00200240064B186900
:10035C0010F4007009BF054A01209A6002F188323E
:10036C0008BF9A60704700BF002002402301674518
:10037C00034A0020136923F400731361704700BF14
:10038C0000200240F8B50646FFF728FF114C07463F
:10039C002546E368D80712D4E368990644BF2023A6
:1003AC00E360EB68DA0606D4EB69DB0703D4E86894
:1003BC0010F0040002D0FFF785FF0120F8BD731C7C
:1003CC00E7D00EB90320F8BDFFF708FFC01B86422B
:1003DC00DFD2F7E7002002402DE9F84F1F4C994679
:1003EC00237E0546012B0F46904633D001234CF259
:1003FC0050302376FFF7C6FF40BB012D03D0022DF2
:10040C000CBF022504250026B246DFF854B0320199
:10041C0040464946FFF794FEC4F81CA0DBF81030A8
:10042C0080B243F00103CBF8103027F816004CF2E1
:10043C005030FFF7A7FFDBF8103023F00103CBF8A7
:10044C00103018B90136F3B29D42E0D80023237660
:10045C00BDE8F88F0220BDE8F88F00BFA000002097
:10046C00002002400022064BDA61064B1A6942F06A
:10047C0004021A611A6942F040021A61704700BF07
:10048C00A0000020002002400022064BDA61064B3F
:10049C001A6942F002021A6158611A6942F040026C
:1004AC001A617047A0000020002002402DE9F041A5
:1004BC00234D07462B7E8846012B3DD00124036833
:1004CC002C76022B4CF2503013D1FFF75BFF20B18E
:1004DC00012000232B76BDE8F081FFF7C3FF4CF21F
:1004EC005030FFF74FFF174A136923F004031361D1
:1004FC00EFE7FFF747FF0028EAD14FF0FF33C8F8CA
:10050C0000302046BE680F4CFA68BB6803EB8223B0
:10051C009E42DED23046FFF7B7FF4CF25030FFF769
:10052C0031FF236923F00203236110B1C8F8006086
:10053C00CFE706F58066E7E70220BDE8F08100BF53
:10054C00A0000020002002402DE9F74F0024264691
:10055C00664BDFF8A8E1DFF8A8C10A6832FA06F5A5
:10056C0002D103B0BDE8F08F4FF0010808FA06F88D
:10057C0002EA080290457FD14D68122D00F0AA8046
:10058C0000F28380022D00F0A28077D8002D00F0BD
:10059C008980012D00F099804FF00F09FF2A93BF3D
:1005AC00824606F18045083DD0F800B092BFB500F8
:1005BC00D0F804B0AD0009FA05F82BEA080804FAE3
:1005CC0005F588BF00F1040A48EA0505CAF8005091
:1005DC00D1F804A01AF0805F4ED0454D444FAD6960
:1005EC0026F0030845F00105BD61BD6908F180489E
:1005FC0005F00105019508F5803806F0030B019D07
:10060C004FEA8B0BD8F8085009FA0BF925EA0909BF
:10061C00384DA84263D005F58065A84261D005F538
:10062C008065A8425FD005F58065A8420CBF032504
:10063C00042505FA0BF545EA0905C8F808501D68AC
:10064C001AF4803F14BF154395431D605D681AF47E
:10065C00003F14BF154395435D609D681AF4801FDD
:10066C0014BF154395439D60DD681AF4001F14BF39
:10067C002A4325EA0202DA6001366EE7032D22D006
:10068C00112D89D1CC68043486E71B4FBD4209D0AB
:10069C0012D8DFF870904D4504D009F580394D45DE
:1006AC007FF47AAF8C68C4B1012C0CBFC0F81080F9
:1006BC00C0F8148008246FE77545F3D06545F1D078
:1006CC00DFF84490EBE7002466E7CC6864E7CC687D
:1006DC00083461E7CC680C345EE704245CE7002541
:1006EC00A7E70125A5E70225A3E700BF0004014009
:1006FC0000100240000801400000211000003110E1
:10070C000000321000001110000022100AB101612B
:10071C0070470904FBE7C3680B4214BF41610161D8
:10072C00704700002DE9F341054608B901203CE073
:10073C000368DB0710D42B689F075DD42B6819075F
:10074C0000F194802B685A0700F1BE80E8690028FC
:10075C0040F02C81002028E08F4C636803F00C03E0
:10076C00042B07D0636803F00C03082B09D16368D2
:10077C00DE0306D523689C03DDD56B68002BDAD12C
:10078C00D4E76B68B3F5803F12D1236843F4803310
:10079C002360FFF723FD064623689803CBD4FFF7AD
:1007AC001DFD801B6428F7D9032002B0BDE8F08141
:1007BC009BB9236823F480332360236823F48023BC
:1007CC002360FFF70BFD064623689903B3D5FFF7AB
:1007DC0005FD801B6428F7D9E6E7B3F5A02F236845
:1007EC0003D143F480232360CFE723F480332360C9
:1007FC00236823F48023CBE7674C636813F00C0F5A
:10080C0007D0636803F00C03082B10D16368DA037C
:10081C000DD423689B0702D52B69012B86D1236845
:10082C006A6923F0F80343EAC203236086E72A6966
:10083C005A4B6AB101221A60FFF7D0FC06462368B6
:10084C009F07ECD4FFF7CAFC801B0228F7D9ABE753
:10085C001A60FFF7C3FC0646236898077FF56EAF56
:10086C00FFF7BCFC801B0228F6D99DE7AA694A4C0D
:10087C004B4BDAB101221A60FFF7B0FC0646636AF3
:10088C009B070DD54FF4FA52464B1B68B3FBF2F3A2
:10089C00019300BF019B5A1E0192002BF9D151E725
:1008AC00FFF79CFC801B0228E9D97DE71A60FFF753
:1008BC0095FC0646636A9F077FF544AFFFF78EFCF5
:1008CC00801B0228F6D96FE7334CE369D80024D497
:1008DC000127E36943F08053E361E36903F080533C
:1008EC000093009B304E3368D90518D5EB68012B6B
:1008FC0026D1236A43F001032362FFF76FFC41F218
:10090C0088368046236A9B073FD5002F3FF41EAFE5
:10091C00E36923F08053E36118E70027E2E73368CB
:10092C0043F480733360FFF759FC80463368DA0573
:10093C00DCD4FFF753FCA0EB08006428F6D933E7AE
:10094C00ABB9236A41F2883823F001032362236A8E
:10095C0023F004032362FFF741FC0646236A980741
:10096C00D3D5FFF73BFC801B4045F7D91CE7052B83
:10097C00236A03D143F004032362BAE723F0010393
:10098C002362236A23F00403B6E7FFF727FCA0EBEE
:10099C000800B042B6D907E70010024000004242FE
:1009AC008004424208000020007000402A4B5A6824
:1009BC001C4602F00C02082A3DD00023274E0228C8
:1009CC0033602BD1FFF70AFC0746236899011FD42B
:1009DC002B6AB3F5803F05D16268A96822F4003216
:1009EC000A436260696A62680B4322F4741213430F
:1009FC00636001233360FFF7F1FB054623689A011E
:100A0C003FF5A8AEFFF7EAFB401B0228F6D9CBE670
:100A1C00FFF7E4FBC01B0228D7D9C5E6FFF7DEFBC6
:100A2C00054623689B017FF595AEFFF7D7FB401B6E
:100A3C000228F6D9B8E601283FF4B7AE58682B6AFD
:100A4C0000F480329A427FF471AE6B6A00F470103D
:100A5C00C01A18BF0120A8E60010024060004242F4
:100A6C0030B5194B87B002AC03F11005224618685B
:100A7C005968083303C2AB421446F7D101238DF8F1
:100A8C000430022311498DF805304B6803F00C0239
:100A9C00082A17D1C3F3834206A80244DB0312F8D9
:100AAC00102C0CD54B680A48C3F34043504306AA9C
:100ABC00134413F8143CB0FBF3F007B030BD0548F9
:100ACC005043FAE70248F8E784110008001002408E
:100ADC0000127A0000093D002DE9F0410D46044654
:100AEC0010B90120BDE8F081454A136803F00703F3
:100AFC008B4229D321688E0731D4CA0744D4404A8B
:100B0C00136803F007039D4267D322683D4D12F032
:100B1C00040F6ED1130706D56B68226923F460535A
:100B2C0043EAC2036B60FFF79BFF6B68364AC3F363
:100B3C000313D35CD840354B1860354B1868FFF75E
:100B4C000BFB0020BDE8F081136823F007030B4377
:100B5C001360136803F007039942C2D1CAE7294B0B
:100B6C0011F0040F1EBF5A6842F4E0625A60080785
:100B7C0042BF5A6842F460525A605A68A06822F028
:100B8C00F00202435A60B8E762681E4E012A3368CD
:100B9C001BD113F4003FA4D0736841F2883823F0C2
:100BAC00030313437360FFF719FB0746736862680E
:100BBC0003F00C03B3EB820FA1D0FFF70FFBC01BAC
:100BCC004045F3D90320BDE8F081022A02D113F08D
:100BDC00007FE0E713F0020FDDE7136823F0070353
:100BEC002B431360136803F007039D427FF479AF26
:100BFC008BE76B68E16823F4E0630B436B6089E778
:100C0C00002002400010024094110008080000204F
:100C1C0004000020F0B593074FEA92064FEA9225A4
:100C2C00C2F3090287B00C4618BF013602B1013578
:100C3C00B00000F0B9F907464FF0FF31324600F032
:100C4C00C3F92146384600F081FAFFF763FB002810
:100C5C00FBD1FFF77BFB04460028FAD1194B02901D
:100C6C0001A902A804930595FFF720FC38BB0446A4
:100C7C000546AE420DD8FFF77BFB0028FBD1FFF7F2
:100C8C005BFB0028FBD1384600F096F9012007B039
:100C9C00F0BD05F1007101F5105157F82520002326
:100CAC0089000220FFF798FB18B90135ADB2044654
:100CBC00DFE70134E0B20528F9D10220E7E720464E
:100CCC00E5E700BF0090000810B590B02822002185
:100CDC0006A800F079F90021142201A800F074F99B
:100CEC004FF480330122022407930E934FF4E01348
:100CFC0006A806920A920F930D94FFF713FD0F238B
:100D0C004FF4806201930023214601A802940393BF
:100D1C0004920593FFF7E0FE10B010BD30B500242F
:100D2C0089B08DF80740FFF73BFAFFF7CDFF102293
:100D3C0021460DEB020000F047F93A4B4FF40051FD
:100D4C009A69394842F010029A619A69012502F0B9
:100D5C0010020292029A9A6942F020029A619B69EF
:100D6C00012203F020030393039BFFF7CFFC4FF406
:100D7C0000530493032304A92B4807930595069469
:100D8C00FFF7E2FB294808A903680493049B5A1C4B
:100D9C0008BF23462B4401F8193D2A46FFF73AFFBA
:100DAC0038B907238DF807301F4C9DF807300BBB63
:100DBC00FEE70228F8D10A231B4C8DF807309DF86A
:100DCC00070008B909B030BD4FF400512046FFF7B9
:100DDC00A2FC6420FFF708FA4FF400512046FFF7FD
:100DEC009AFC6420FFF700FA9DF80730013B8DF860
:100DFC000730E4E74FF400512046FFF78CFC4FF42A
:100E0C007A70FFF7F1F94FF400512046FFF783FC9D
:100E1C004FF47A70FFF7E8F99DF80730013B8DF835
:100E2C000730C2E70010024000100140009000089B
:100E3C000E4B82B09A6942F001029A619A6902F0F3
:100E4C0001020092009ADA6942F08052DA61DB69A1
:100E5C00074A03F080530193019B536823F0E0632E
:100E6C0043F08063536002B0704700BF0010024033
:100E7C00000001407047FEE7FEE7FEE7FEE7704723
:100E8C0070477047FFF79EB908B50A4B02461968C0
:100E9C0009B9094919606946186802448A4206D999
:100EAC0000F058F80C2303604FF0FF3008BD1A60B7
:100EBC0008BD00BF8C000020C40000200F4B1A6836
:100ECC0042F001021A6059680D4A0A405A601A68C9
:100EDC0022F0847222F480321A601A6822F4802282
:100EEC001A605A6822F4FE025A604FF41F029A608C
:100EFC004FF00062034B9A60704700BF0010024035
:100F0C000000FFF800ED00E0002103E00B4B5B5804
:100F1C00435004310A480B4B42189A42F6D30A4A02
:100F2C0002E0002342F8043B084B9A42F9D3FFF746
:100F3C00C5FF00F015F8FFF7F1FE7047AC11000883
:100F4C00000000207000002070000020C400002071
:100F5C00FEE70000014B1868704700BF0C00002032
:100F6C0070B500250C4E0D4CA41BA410A54209D144
:100F7C0000F0F6F800250A4E0A4CA41BA410A5425A
:100F8C0005D170BD56F8253098470135EEE756F877
:100F9C00253098470135F2E7A4110008A411000888
:100FAC00A4110008A8110008024B0146186800F0B3
:100FBC005FB800BF0C000020024B0146186800F01F
:100FCC000BB800BF0C00002003460244934200D132
:100FDC00704703F8011BF9E738B50546002943D0E3
:100FEC0051F8043C0C1F002BB8BFE41800F0B6F805
:100FFC001E4A1368104633B9636014602846BDE876
:10100C00384000F0ACB8A3420BD921686218934267
:10101C0001BF1A685B685218226063600460EDE7D8
:10102C0013465A680AB1A242FAD919685818A04254
:10103C000BD120680144581882421960DED1106827
:10104C005268014419605A60D8E702D90C232B600E
:10105C00D4E7206821188A4201BF11685268091828
:10106C00216062605C60C9E738BD00BF9000002061
:10107C0070B5CD1C25F0030508350C2D38BF0C259B
:10108C00002D064601DBA94203D90C233360002056
:10109C0070BD00F063F8234A1468214691B9224CC4
:1010AC0023681BB9304600F041F8206029463046D1
:1010BC0000F03CF8431C26D10C233046336000F082
:1010CC004EF8E4E70B685B1B1AD40B2B0FD90B60A3
:1010DC00CC18CD50304600F042F804F10B00231D23
:1010EC0020F00700C31A1BD05A42E25070BD8C424C
:1010FC000BBF63684B681360636018BF0C46E9E76D
:10110C000C464968CAE7C41C24F00304A04205D06D
:10111C00211A304600F00AF80130CDD02560D9E70D
:10112C0070BD00BF900000209400002038B5002353
:10113C00054C054608462360FFF7A6FE431C02D16A
:10114C00236803B12B6038BDC0000020034611F8A2
:10115C00012B03F8012B002AF9D170477047704717
:10116C00F8B500BFF8BC08BC9E467047F8B500BF88
:08117C00F8BC08BC9E46704758
:1011840002030405060708090A0B0C0D0E0F1010C4
:101194000000000000000000010203040607080923
:0411A400310100080D
:0411A8000D0100082D
:1011AC0001000000100000000024F40010000020DA
:1011BC000000000000000000000000000000000023
:1011CC000000000000000000000000000000000013
:1011DC000000000000000000000000000000000003
:1011EC0000000000000000000000000000000000F3
:1011FC0000000000000000000000000000000000E3
:10120C0000000000000000000000000000000000D2
:0400000508000F15CB
:00000001FF
