:020000040800F2
:1000000000000220D9010008590300085B03000822
:100010005D0300085F0300086103000800000000A2
:100020000000000000000000000000006303000862
:10003000650300080000000067030008690300086A
:1000400029020008290200082902000829020008E4
:1000500029020008290200082902000829020008D4
:1000600029020008290200082902000829020008C4
:1000700029020008290200082902000829020008B4
:1000800029020008290200082902000800000000D7
:10009000000000000000000000000000290200082D
:1000A0002902000829020008290200082902000884
:1000B0002902000829020008290200082902000874
:1000C0002902000829020008290200086B03000821
:1000D000290200086D030008290200080000000042
:1000E0002902000829020008290200080000000077
:1000F00000000000000000000000000029020008CD
:100100000000000029020008290200082902000856
:1001100000000000000000000000000000000000DF
:100120002902000829020008290200082902000803
:10013000290200080000000000000000000000008C
:10014000000000000000000000000000290200087C
:1001500029020008290200082902000829020008D3
:100160002902000829020008000000000000000029
:10017000000000000000000000000000000000007F
:10018000000000002902000800000000000000003C
:08019000290200082902000801
:1001980010B5054C237833B9044B13B10448AFF3B9
:1001A80000800123237010BD04000020000000001F
:1001B8006409000808B5034B1BB103490348AFF3B2
:1001C800008008BD00000000080000206409000845
:1001D800DFF834D0002103E00C4B5B584350043166
:1001E8000B480C4B42189A42F6D30B4A02E0002304
:1001F80042F8043B094B9A42F9D300F0B5F800F0F5
:1002080081FB00F071F87047000002209C0900088B
:100218000000002004000020040000202800002026
:10022800FEE700002A4A136823F00F0343F0030394
:1002380010B513601368A2F5E632136843F440431F
:100248001360244B1A6842F480321A601A689103CA
:10025800FCD55A6820491140204A0A435A605A6816
:1002680022F440325A601A6842F080721A60194BC0
:100278001A689201FCD59A68164C22F0F0029A602E
:100288009A6822F4E05242F480529A609A6822F402
:1002980060429A609A6822F0030242F002029A6071
:1002A800A36803F00C03082BFAD10D4800F034FAC8
:1002B8000C4A0B48136843F00403136000F03AFA41
:1002C800D4F88C3023F08073C4F88C3010BD00BF94
:1002D800003C0240003802400080BFFF0832400066
:1002E80000E1F50510E000E0144B07B55A6C14491D
:1002F80042F480425A645A6C02F480420192019A94
:100308001A6C42F080521A641B6C03F080530093FD
:10031800009BCA680B4B22F4E0621204120C1343D0
:10032800CB60FFF77FFF00F019FA00F039FA064BAF
:10033800186000F089FA054B1860FEE700380240A3
:1003480000ED00E00003FA05200000202400002052
:100358007047FEE7FEE7FEE7FEE770477047704725
:1003680070477047704700000F49D1F8883043F450
:100378007003C1F888300D4B1A68002042F0010262
:100388001A6098601A6822F0847222F480321A6027
:10039800074A5A601A6822F480221A60D8604FF01F
:1003A80000638B60704700BF00ED00E0003802403A
:1003B800103000242DE9F0430A6892FAA2F44FF0B5
:1003C800010EB4FA84F403250F2732FA04F30DD191
:1003D8004B68013B012B06D84368C96823EA02032E
:1003E8004A431A4342600020BDE8F0830EFA04F342
:1003F800134069D0D1F80480D0F8009093FAA3FC98
:10040800BCFA8CFC93FAA3F6B6FA86F64FEA4C0CC3
:1004180005FA0CFC760029EA0C0C08FA06F64CEAF8
:100428000606066008F1FF36012E16D8866893FA8C
:10043800A3FCBCFA8CFC93FAA3F94FEA4C0C05FA1E
:100448000CFC26EA0C0CB9FA89F98E684FEA4909BE
:1004580006FA09F64CEA06068660C66893FAA3FC13
:10046800BCFA8CFC93FAA3F94FEA4C0C05FA0CFC85
:1004780026EA0C0CB9FA89F90E694FEA490906FA15
:1004880009F64CEA0606B8F1020FC6601CD193FAC9
:10049800A3F6B6FA86F6072ED1F814C016DCD0F803
:1004A800208093FAA3F6B6FA86F693FAA3F3B3FA82
:1004B80083F3B60007FA06F69B0028EA06060CFA4C
:1004C80003FC46EA0C06066201347EE7D0F8248075
:1004D8001B0A93FAA3F6B6FA86F693FAA3F3B3FACD
:1004E80083F3B60007FA06F69B0028EA06060CFA1C
:1004F80003F333434362E7E7034B044A9B68C3F3C0
:100508000313D35CD8407047003802407C090008C8
:10051800034B044A9B68C3F38223D35CD8407047DB
:10052800003802408C090008034B044A9B68C3F357
:100538004233D35CD8407047003802408C09000829
:100548000F4B104A596810B50F4C01F4800100296F
:1005580008BF2246082810D1596858685B68C3F359
:100568000143C0F38810013301F03F015B00B2FB87
:10057800F1F25043B0FBF3F010BD002010BD00BFF6
:100588000038024000127A000024F400064B9868F4
:1005980000F00C00042803D0082803D00348704753
:1005A80003487047FFF7CCBF003802400024F4002E
:1005B80000127A0010B50446FFF7E8FF2060FFF745
:1005C8009BFF6060FFF7A4FFA0606068FFF7ACFFC7
:1005D800E06010BD026812F04002F0B5044605D094
:1005E8000120E36923F40063E361F0BD91E888002A
:1005F8003B438F684D690668086A3B43CF683B43B5
:100608000F693B438F692B433B43CF6926F47F46F1
:100618003B43034326F0BF0633432360636823F05C
:10062800040343EA1545B0F5005F656001D18B8C82
:1006380023611046D5E7000030B5C3689B0485B038
:1006480004460D4602D5012005B030BD4B68C96887
:10065800C2680B4329690B43A96922F416420B436C
:1006680022F00C021343C3600369AA6823F44053C1
:100678001343036143696A6923F440731343436175
:100688006846FFF797FF214B9C4225D1039B002B1F
:10069800D9D029680029D6D0AA69B2F5004F4FF001
:1006A800190222D15A434900B2FBF1F26421B2FB8C
:1006B800F1F001FB1023DB003233B3FBF1F39BB203
:1006C80003F007025B0002EB001203F4F873134413
:1006D8009BB2A3600020B7E70D4B9C4201D1029B5F
:1006E800D5E70C4B9C42AED1D0E753436422890036
:1006F800B3FBF1F3B3FBF2F102FB11331B0132330D
:10070800B3FBF2F303EB0113E2E700BF0010014073
:1007180000440040001401404FF47A73B0FBF3F03A
:10072800034B0022013858609A6005221A6070470E
:1007380010E000E0014B1860704700BF0000002087
:10074800054B1A6B02431A631B6B82B01840019069
:10075800019B02B0704700BF003802407FB51822E5
:100768000021684600F0F2F88020FFF7E9FF012039
:10077800FFF7E6FF09484FF4801383614FF0010E3D
:1007880010238DE8084069460023029303930493DD
:10079800FFF710FE07B05DF804FB00BF0000024041
:1007A80010B592B02822002108A800F0CFF8002147
:1007B800182202A800F0CAF81E4B5A6C42F4805264
:1007C8005A645B6C03F4805301930120019BFFF78B
:1007D800B7FFE02302930223039303230024049327
:1007E80002A905231448059406940793FFF7E2FD30
:1007F800124BDB68124B082283F823435A60089493
:100808000A940B940C940E940F9410944FF48273E2
:100818000C4C09934FF400730D9308A90A23204642
:100828001193FFF7D7FE6368204623F01003636037
:1008380012B010BD003802400000024000ED00E098
:1008480000E100E00030014010B590B01C2200210A
:1008580009A800F07BF81822002103A800F076F818
:10086800234B24485A6C244C42F010025A645A6CA8
:1008780002F010020292029A1A6B42F001021A6305
:100888001B6B03F001030193019B4FF4C0630393B7
:1008980002230493032305930123079303A9072342
:1008A8000893FFF787FD154B154ADB6820210023C5
:1008B80082F8253351604FF41652099209A90C2287
:1008C80020460A930B930C930E930F930D92FFF708
:1008D800B3FE236923F490432361636923F02A0359
:1008E8006361E368204643F40053E36010B010BD31
:1008F80000380240000002400010014000ED00E016
:1009080000E100E070B50D4E0D4CA41BA4100025AD
:10091800A54209D10B4E0C4C00F020F8A41BA410E2
:100928000025A54205D170BD56F8253098470135F8
:10093800EEE756F8253098470135F2E794090008A4
:10094800940900089409000898090008024403461D
:10095800934200D1704703F8011BF9E7F8B500BFCF
:10096800F8BC08BC9E467047F8B500BFF8BC08BC88
:040978009E467047E0
:10097C000000000000000000010203040607080943
:08098C00000000000102030459
:04099400BD01000899
:0409980099010008B9
:04099C000024F4003F
:04000005080001D915
:00000001FF
